{
  "abi": [
    {
      "inputs": [
        {
          "internalType": "address",
          "name": "manager",
          "type": "address"
        },
        {
          "internalType": "uint256",
          "name": "minimumContribution",
          "type": "uint256"
        }
      ],
      "name": "createCampaign",
      "outputs": [],
      "stateMutability": "nonpayable",
      "type": "function"
    },
    {
      "inputs": [
        {
          "internalType": "uint256",
          "name": "",
          "type": "uint256"
        }
      ],
      "name": "deployedCampaigns",
      "outputs": [
        {
          "internalType": "address",
          "name": "",
          "type": "address"
        }
      ],
      "stateMutability": "view",
      "type": "function"
    },
    {
      "inputs": [],
      "name": "getDeployedCampaigns",
      "outputs": [
        {
          "internalType": "address[]",
          "name": "",
          "type": "address[]"
        }
      ],
      "stateMutability": "view",
      "type": "function"
    }
  ],
  "devdoc": {
    "kind": "dev",
    "methods": {},
    "version": 1
  },
  "evm": {
    "assembly": "    /* \"Campaign.sol\":72:492  contract CampaignFactory {... */\n  mstore(0x40, 0x80)\n  callvalue\n  dup1\n  iszero\n  tag_1\n  jumpi\n  0x00\n  dup1\n  revert\ntag_1:\n  pop\n  dataSize(sub_0)\n  dup1\n  dataOffset(sub_0)\n  0x00\n  codecopy\n  0x00\n  return\nstop\n\nsub_0: assembly {\n        /* \"Campaign.sol\":72:492  contract CampaignFactory {... */\n      mstore(0x40, 0x80)\n      callvalue\n      dup1\n      iszero\n      tag_1\n      jumpi\n      0x00\n      dup1\n      revert\n    tag_1:\n      pop\n      jumpi(tag_2, lt(calldatasize, 0x04))\n      shr(0xe0, calldataload(0x00))\n      dup1\n      0x064e1faf\n      eq\n      tag_3\n      jumpi\n      dup1\n      0x339d50a5\n      eq\n      tag_4\n      jumpi\n      dup1\n      0x4acb9d4f\n      eq\n      tag_5\n      jumpi\n    tag_2:\n      0x00\n      dup1\n      revert\n        /* \"Campaign.sol\":147:367  function createCampaign(address manager, uint minimumContribution) public {... */\n    tag_3:\n      tag_6\n      0x04\n      dup1\n      calldatasize\n      sub\n      dup2\n      add\n      swap1\n      tag_7\n      swap2\n      swap1\n      tag_8\n      jump\t// in\n    tag_7:\n      tag_9\n      jump\t// in\n    tag_6:\n      stop\n        /* \"Campaign.sol\":104:138  address[] public deployedCampaigns */\n    tag_4:\n      tag_10\n      0x04\n      dup1\n      calldatasize\n      sub\n      dup2\n      add\n      swap1\n      tag_11\n      swap2\n      swap1\n      tag_12\n      jump\t// in\n    tag_11:\n      tag_13\n      jump\t// in\n    tag_10:\n      mload(0x40)\n      tag_14\n      swap2\n      swap1\n      tag_15\n      jump\t// in\n    tag_14:\n      mload(0x40)\n      dup1\n      swap2\n      sub\n      swap1\n      return\n        /* \"Campaign.sol\":375:489  function getDeployedCampaigns() public view returns (address[] memory) {... */\n    tag_5:\n      tag_16\n      tag_17\n      jump\t// in\n    tag_16:\n      mload(0x40)\n      tag_18\n      swap2\n      swap1\n      tag_19\n      jump\t// in\n    tag_18:\n      mload(0x40)\n      dup1\n      swap2\n      sub\n      swap1\n      return\n        /* \"Campaign.sol\":147:367  function createCampaign(address manager, uint minimumContribution) public {... */\n    tag_9:\n        /* \"Campaign.sol\":232:255  address campaignAddress */\n      0x00\n        /* \"Campaign.sol\":279:286  manager */\n      dup3\n        /* \"Campaign.sol\":288:307  minimumContribution */\n      dup3\n        /* \"Campaign.sol\":266:308  new Campaign(manager, minimumContribution) */\n      mload(0x40)\n      tag_21\n      swap1\n      tag_22\n      jump\t// in\n    tag_21:\n      tag_23\n      swap3\n      swap2\n      swap1\n      tag_24\n      jump\t// in\n    tag_23:\n      mload(0x40)\n      dup1\n      swap2\n      sub\n      swap1\n      0x00\n      create\n      dup1\n      iszero\n      dup1\n      iszero\n      tag_25\n      jumpi\n      returndatasize\n      0x00\n      dup1\n      returndatacopy\n      revert(0x00, returndatasize)\n    tag_25:\n      pop\n        /* \"Campaign.sol\":232:309  address campaignAddress = address(new Campaign(manager, minimumContribution)) */\n      swap1\n      pop\n        /* \"Campaign.sol\":320:337  deployedCampaigns */\n      0x00\n        /* \"Campaign.sol\":343:358  campaignAddress */\n      dup2\n        /* \"Campaign.sol\":320:359  deployedCampaigns.push(campaignAddress) */\n      swap1\n      dup1\n      0x01\n      dup2\n      sload\n      add\n      dup1\n      dup3\n      sstore\n      dup1\n      swap2\n      pop\n      pop\n      0x01\n      swap1\n      sub\n      swap1\n      0x00\n      mstore\n      keccak256(0x00, 0x20)\n      add\n      0x00\n      swap1\n      swap2\n      swap1\n      swap2\n      swap1\n      swap2\n      0x0100\n      exp\n      dup2\n      sload\n      dup2\n      0xffffffffffffffffffffffffffffffffffffffff\n      mul\n      not\n      and\n      swap1\n      dup4\n      0xffffffffffffffffffffffffffffffffffffffff\n      and\n      mul\n      or\n      swap1\n      sstore\n      pop\n        /* \"Campaign.sol\":221:367  {... */\n      pop\n        /* \"Campaign.sol\":147:367  function createCampaign(address manager, uint minimumContribution) public {... */\n      pop\n      pop\n      jump\t// out\n        /* \"Campaign.sol\":104:138  address[] public deployedCampaigns */\n    tag_13:\n      0x00\n      dup2\n      dup2\n      sload\n      dup2\n      lt\n      tag_27\n      jumpi\n      0x00\n      dup1\n      revert\n    tag_27:\n      swap1\n      0x00\n      mstore\n      keccak256(0x00, 0x20)\n      add\n      0x00\n      swap2\n      pop\n      sload\n      swap1\n      0x0100\n      exp\n      swap1\n      div\n      0xffffffffffffffffffffffffffffffffffffffff\n      and\n      dup2\n      jump\t// out\n        /* \"Campaign.sol\":375:489  function getDeployedCampaigns() public view returns (address[] memory) {... */\n    tag_17:\n        /* \"Campaign.sol\":428:444  address[] memory */\n      0x60\n        /* \"Campaign.sol\":464:481  deployedCampaigns */\n      0x00\n        /* \"Campaign.sol\":457:481  return deployedCampaigns */\n      dup1\n      sload\n      dup1\n      0x20\n      mul\n      0x20\n      add\n      mload(0x40)\n      swap1\n      dup2\n      add\n      0x40\n      mstore\n      dup1\n      swap3\n      swap2\n      swap1\n      dup2\n      dup2\n      mstore\n      0x20\n      add\n      dup3\n      dup1\n      sload\n      dup1\n      iszero\n      tag_30\n      jumpi\n      0x20\n      mul\n      dup3\n      add\n      swap2\n      swap1\n      0x00\n      mstore\n      keccak256(0x00, 0x20)\n      swap1\n    tag_31:\n      dup2\n      0x00\n      swap1\n      sload\n      swap1\n      0x0100\n      exp\n      swap1\n      div\n      0xffffffffffffffffffffffffffffffffffffffff\n      and\n      0xffffffffffffffffffffffffffffffffffffffff\n      and\n      dup2\n      mstore\n      0x20\n      add\n      swap1\n      0x01\n      add\n      swap1\n      dup1\n      dup4\n      gt\n      tag_31\n      jumpi\n    tag_30:\n      pop\n      pop\n      pop\n      pop\n      pop\n      swap1\n      pop\n        /* \"Campaign.sol\":375:489  function getDeployedCampaigns() public view returns (address[] memory) {... */\n      swap1\n      jump\t// out\n    tag_22:\n      dataSize(sub_0)\n      dup1\n      dataOffset(sub_0)\n      dup4\n      codecopy\n      add\n      swap1\n      jump\t// out\n        /* \"#utility.yul\":88:205   */\n    tag_33:\n        /* \"#utility.yul\":197:198   */\n      0x00\n        /* \"#utility.yul\":194:195   */\n      dup1\n        /* \"#utility.yul\":187:199   */\n      revert\n        /* \"#utility.yul\":334:460   */\n    tag_35:\n        /* \"#utility.yul\":371:378   */\n      0x00\n        /* \"#utility.yul\":411:453   */\n      0xffffffffffffffffffffffffffffffffffffffff\n        /* \"#utility.yul\":404:409   */\n      dup3\n        /* \"#utility.yul\":400:454   */\n      and\n        /* \"#utility.yul\":389:454   */\n      swap1\n      pop\n        /* \"#utility.yul\":334:460   */\n      swap2\n      swap1\n      pop\n      jump\t// out\n        /* \"#utility.yul\":466:562   */\n    tag_36:\n        /* \"#utility.yul\":503:510   */\n      0x00\n        /* \"#utility.yul\":532:556   */\n      tag_57\n        /* \"#utility.yul\":550:555   */\n      dup3\n        /* \"#utility.yul\":532:556   */\n      tag_35\n      jump\t// in\n    tag_57:\n        /* \"#utility.yul\":521:556   */\n      swap1\n      pop\n        /* \"#utility.yul\":466:562   */\n      swap2\n      swap1\n      pop\n      jump\t// out\n        /* \"#utility.yul\":568:690   */\n    tag_37:\n        /* \"#utility.yul\":641:665   */\n      tag_59\n        /* \"#utility.yul\":659:664   */\n      dup2\n        /* \"#utility.yul\":641:665   */\n      tag_36\n      jump\t// in\n    tag_59:\n        /* \"#utility.yul\":634:639   */\n      dup2\n        /* \"#utility.yul\":631:666   */\n      eq\n        /* \"#utility.yul\":621:684   */\n      tag_60\n      jumpi\n        /* \"#utility.yul\":680:681   */\n      0x00\n        /* \"#utility.yul\":677:678   */\n      dup1\n        /* \"#utility.yul\":670:682   */\n      revert\n        /* \"#utility.yul\":621:684   */\n    tag_60:\n        /* \"#utility.yul\":568:690   */\n      pop\n      jump\t// out\n        /* \"#utility.yul\":696:835   */\n    tag_38:\n        /* \"#utility.yul\":742:747   */\n      0x00\n        /* \"#utility.yul\":780:786   */\n      dup2\n        /* \"#utility.yul\":767:787   */\n      calldataload\n        /* \"#utility.yul\":758:787   */\n      swap1\n      pop\n        /* \"#utility.yul\":796:829   */\n      tag_62\n        /* \"#utility.yul\":823:828   */\n      dup2\n        /* \"#utility.yul\":796:829   */\n      tag_37\n      jump\t// in\n    tag_62:\n        /* \"#utility.yul\":696:835   */\n      swap3\n      swap2\n      pop\n      pop\n      jump\t// out\n        /* \"#utility.yul\":841:918   */\n    tag_39:\n        /* \"#utility.yul\":878:885   */\n      0x00\n        /* \"#utility.yul\":907:912   */\n      dup2\n        /* \"#utility.yul\":896:912   */\n      swap1\n      pop\n        /* \"#utility.yul\":841:918   */\n      swap2\n      swap1\n      pop\n      jump\t// out\n        /* \"#utility.yul\":924:1046   */\n    tag_40:\n        /* \"#utility.yul\":997:1021   */\n      tag_65\n        /* \"#utility.yul\":1015:1020   */\n      dup2\n        /* \"#utility.yul\":997:1021   */\n      tag_39\n      jump\t// in\n    tag_65:\n        /* \"#utility.yul\":990:995   */\n      dup2\n        /* \"#utility.yul\":987:1022   */\n      eq\n        /* \"#utility.yul\":977:1040   */\n      tag_66\n      jumpi\n        /* \"#utility.yul\":1036:1037   */\n      0x00\n        /* \"#utility.yul\":1033:1034   */\n      dup1\n        /* \"#utility.yul\":1026:1038   */\n      revert\n        /* \"#utility.yul\":977:1040   */\n    tag_66:\n        /* \"#utility.yul\":924:1046   */\n      pop\n      jump\t// out\n        /* \"#utility.yul\":1052:1191   */\n    tag_41:\n        /* \"#utility.yul\":1098:1103   */\n      0x00\n        /* \"#utility.yul\":1136:1142   */\n      dup2\n        /* \"#utility.yul\":1123:1143   */\n      calldataload\n        /* \"#utility.yul\":1114:1143   */\n      swap1\n      pop\n        /* \"#utility.yul\":1152:1185   */\n      tag_68\n        /* \"#utility.yul\":1179:1184   */\n      dup2\n        /* \"#utility.yul\":1152:1185   */\n      tag_40\n      jump\t// in\n    tag_68:\n        /* \"#utility.yul\":1052:1191   */\n      swap3\n      swap2\n      pop\n      pop\n      jump\t// out\n        /* \"#utility.yul\":1197:1671   */\n    tag_8:\n        /* \"#utility.yul\":1265:1271   */\n      0x00\n        /* \"#utility.yul\":1273:1279   */\n      dup1\n        /* \"#utility.yul\":1322:1324   */\n      0x40\n        /* \"#utility.yul\":1310:1319   */\n      dup4\n        /* \"#utility.yul\":1301:1308   */\n      dup6\n        /* \"#utility.yul\":1297:1320   */\n      sub\n        /* \"#utility.yul\":1293:1325   */\n      slt\n        /* \"#utility.yul\":1290:1409   */\n      iszero\n      tag_70\n      jumpi\n        /* \"#utility.yul\":1328:1407   */\n      tag_71\n      tag_33\n      jump\t// in\n    tag_71:\n        /* \"#utility.yul\":1290:1409   */\n    tag_70:\n        /* \"#utility.yul\":1448:1449   */\n      0x00\n        /* \"#utility.yul\":1473:1526   */\n      tag_72\n        /* \"#utility.yul\":1518:1525   */\n      dup6\n        /* \"#utility.yul\":1509:1515   */\n      dup3\n        /* \"#utility.yul\":1498:1507   */\n      dup7\n        /* \"#utility.yul\":1494:1516   */\n      add\n        /* \"#utility.yul\":1473:1526   */\n      tag_38\n      jump\t// in\n    tag_72:\n        /* \"#utility.yul\":1463:1526   */\n      swap3\n      pop\n        /* \"#utility.yul\":1419:1536   */\n      pop\n        /* \"#utility.yul\":1575:1577   */\n      0x20\n        /* \"#utility.yul\":1601:1654   */\n      tag_73\n        /* \"#utility.yul\":1646:1653   */\n      dup6\n        /* \"#utility.yul\":1637:1643   */\n      dup3\n        /* \"#utility.yul\":1626:1635   */\n      dup7\n        /* \"#utility.yul\":1622:1644   */\n      add\n        /* \"#utility.yul\":1601:1654   */\n      tag_41\n      jump\t// in\n    tag_73:\n        /* \"#utility.yul\":1591:1654   */\n      swap2\n      pop\n        /* \"#utility.yul\":1546:1664   */\n      pop\n        /* \"#utility.yul\":1197:1671   */\n      swap3\n      pop\n      swap3\n      swap1\n      pop\n      jump\t// out\n        /* \"#utility.yul\":1677:2006   */\n    tag_12:\n        /* \"#utility.yul\":1736:1742   */\n      0x00\n        /* \"#utility.yul\":1785:1787   */\n      0x20\n        /* \"#utility.yul\":1773:1782   */\n      dup3\n        /* \"#utility.yul\":1764:1771   */\n      dup5\n        /* \"#utility.yul\":1760:1783   */\n      sub\n        /* \"#utility.yul\":1756:1788   */\n      slt\n        /* \"#utility.yul\":1753:1872   */\n      iszero\n      tag_75\n      jumpi\n        /* \"#utility.yul\":1791:1870   */\n      tag_76\n      tag_33\n      jump\t// in\n    tag_76:\n        /* \"#utility.yul\":1753:1872   */\n    tag_75:\n        /* \"#utility.yul\":1911:1912   */\n      0x00\n        /* \"#utility.yul\":1936:1989   */\n      tag_77\n        /* \"#utility.yul\":1981:1988   */\n      dup5\n        /* \"#utility.yul\":1972:1978   */\n      dup3\n        /* \"#utility.yul\":1961:1970   */\n      dup6\n        /* \"#utility.yul\":1957:1979   */\n      add\n        /* \"#utility.yul\":1936:1989   */\n      tag_41\n      jump\t// in\n    tag_77:\n        /* \"#utility.yul\":1926:1989   */\n      swap2\n      pop\n        /* \"#utility.yul\":1882:1999   */\n      pop\n        /* \"#utility.yul\":1677:2006   */\n      swap3\n      swap2\n      pop\n      pop\n      jump\t// out\n        /* \"#utility.yul\":2012:2130   */\n    tag_42:\n        /* \"#utility.yul\":2099:2123   */\n      tag_79\n        /* \"#utility.yul\":2117:2122   */\n      dup2\n        /* \"#utility.yul\":2099:2123   */\n      tag_36\n      jump\t// in\n    tag_79:\n        /* \"#utility.yul\":2094:2097   */\n      dup3\n        /* \"#utility.yul\":2087:2124   */\n      mstore\n        /* \"#utility.yul\":2012:2130   */\n      pop\n      pop\n      jump\t// out\n        /* \"#utility.yul\":2136:2358   */\n    tag_15:\n        /* \"#utility.yul\":2229:2233   */\n      0x00\n        /* \"#utility.yul\":2267:2269   */\n      0x20\n        /* \"#utility.yul\":2256:2265   */\n      dup3\n        /* \"#utility.yul\":2252:2270   */\n      add\n        /* \"#utility.yul\":2244:2270   */\n      swap1\n      pop\n        /* \"#utility.yul\":2280:2351   */\n      tag_81\n        /* \"#utility.yul\":2348:2349   */\n      0x00\n        /* \"#utility.yul\":2337:2346   */\n      dup4\n        /* \"#utility.yul\":2333:2350   */\n      add\n        /* \"#utility.yul\":2324:2330   */\n      dup5\n        /* \"#utility.yul\":2280:2351   */\n      tag_42\n      jump\t// in\n    tag_81:\n        /* \"#utility.yul\":2136:2358   */\n      swap3\n      swap2\n      pop\n      pop\n      jump\t// out\n        /* \"#utility.yul\":2364:2478   */\n    tag_43:\n        /* \"#utility.yul\":2431:2437   */\n      0x00\n        /* \"#utility.yul\":2465:2470   */\n      dup2\n        /* \"#utility.yul\":2459:2471   */\n      mload\n        /* \"#utility.yul\":2449:2471   */\n      swap1\n      pop\n        /* \"#utility.yul\":2364:2478   */\n      swap2\n      swap1\n      pop\n      jump\t// out\n        /* \"#utility.yul\":2484:2668   */\n    tag_44:\n        /* \"#utility.yul\":2583:2594   */\n      0x00\n        /* \"#utility.yul\":2617:2623   */\n      dup3\n        /* \"#utility.yul\":2612:2615   */\n      dup3\n        /* \"#utility.yul\":2605:2624   */\n      mstore\n        /* \"#utility.yul\":2657:2661   */\n      0x20\n        /* \"#utility.yul\":2652:2655   */\n      dup3\n        /* \"#utility.yul\":2648:2662   */\n      add\n        /* \"#utility.yul\":2633:2662   */\n      swap1\n      pop\n        /* \"#utility.yul\":2484:2668   */\n      swap3\n      swap2\n      pop\n      pop\n      jump\t// out\n        /* \"#utility.yul\":2674:2806   */\n    tag_45:\n        /* \"#utility.yul\":2741:2745   */\n      0x00\n        /* \"#utility.yul\":2764:2767   */\n      dup2\n        /* \"#utility.yul\":2756:2767   */\n      swap1\n      pop\n        /* \"#utility.yul\":2794:2798   */\n      0x20\n        /* \"#utility.yul\":2789:2792   */\n      dup3\n        /* \"#utility.yul\":2785:2799   */\n      add\n        /* \"#utility.yul\":2777:2799   */\n      swap1\n      pop\n        /* \"#utility.yul\":2674:2806   */\n      swap2\n      swap1\n      pop\n      jump\t// out\n        /* \"#utility.yul\":2812:2920   */\n    tag_46:\n        /* \"#utility.yul\":2889:2913   */\n      tag_86\n        /* \"#utility.yul\":2907:2912   */\n      dup2\n        /* \"#utility.yul\":2889:2913   */\n      tag_36\n      jump\t// in\n    tag_86:\n        /* \"#utility.yul\":2884:2887   */\n      dup3\n        /* \"#utility.yul\":2877:2914   */\n      mstore\n        /* \"#utility.yul\":2812:2920   */\n      pop\n      pop\n      jump\t// out\n        /* \"#utility.yul\":2926:3105   */\n    tag_47:\n        /* \"#utility.yul\":2995:3005   */\n      0x00\n        /* \"#utility.yul\":3016:3062   */\n      tag_88\n        /* \"#utility.yul\":3058:3061   */\n      dup4\n        /* \"#utility.yul\":3050:3056   */\n      dup4\n        /* \"#utility.yul\":3016:3062   */\n      tag_46\n      jump\t// in\n    tag_88:\n        /* \"#utility.yul\":3094:3098   */\n      0x20\n        /* \"#utility.yul\":3089:3092   */\n      dup4\n        /* \"#utility.yul\":3085:3099   */\n      add\n        /* \"#utility.yul\":3071:3099   */\n      swap1\n      pop\n        /* \"#utility.yul\":2926:3105   */\n      swap3\n      swap2\n      pop\n      pop\n      jump\t// out\n        /* \"#utility.yul\":3111:3224   */\n    tag_48:\n        /* \"#utility.yul\":3181:3185   */\n      0x00\n        /* \"#utility.yul\":3213:3217   */\n      0x20\n        /* \"#utility.yul\":3208:3211   */\n      dup3\n        /* \"#utility.yul\":3204:3218   */\n      add\n        /* \"#utility.yul\":3196:3218   */\n      swap1\n      pop\n        /* \"#utility.yul\":3111:3224   */\n      swap2\n      swap1\n      pop\n      jump\t// out\n        /* \"#utility.yul\":3260:3992   */\n    tag_49:\n        /* \"#utility.yul\":3379:3382   */\n      0x00\n        /* \"#utility.yul\":3408:3462   */\n      tag_91\n        /* \"#utility.yul\":3456:3461   */\n      dup3\n        /* \"#utility.yul\":3408:3462   */\n      tag_43\n      jump\t// in\n    tag_91:\n        /* \"#utility.yul\":3478:3564   */\n      tag_92\n        /* \"#utility.yul\":3557:3563   */\n      dup2\n        /* \"#utility.yul\":3552:3555   */\n      dup6\n        /* \"#utility.yul\":3478:3564   */\n      tag_44\n      jump\t// in\n    tag_92:\n        /* \"#utility.yul\":3471:3564   */\n      swap4\n      pop\n        /* \"#utility.yul\":3588:3644   */\n      tag_93\n        /* \"#utility.yul\":3638:3643   */\n      dup4\n        /* \"#utility.yul\":3588:3644   */\n      tag_45\n      jump\t// in\n    tag_93:\n        /* \"#utility.yul\":3667:3674   */\n      dup1\n        /* \"#utility.yul\":3698:3699   */\n      0x00\n        /* \"#utility.yul\":3683:3967   */\n    tag_94:\n        /* \"#utility.yul\":3708:3714   */\n      dup4\n        /* \"#utility.yul\":3705:3706   */\n      dup2\n        /* \"#utility.yul\":3702:3715   */\n      lt\n        /* \"#utility.yul\":3683:3967   */\n      iszero\n      tag_96\n      jumpi\n        /* \"#utility.yul\":3784:3790   */\n      dup2\n        /* \"#utility.yul\":3778:3791   */\n      mload\n        /* \"#utility.yul\":3811:3874   */\n      tag_97\n        /* \"#utility.yul\":3870:3873   */\n      dup9\n        /* \"#utility.yul\":3855:3868   */\n      dup3\n        /* \"#utility.yul\":3811:3874   */\n      tag_47\n      jump\t// in\n    tag_97:\n        /* \"#utility.yul\":3804:3874   */\n      swap8\n      pop\n        /* \"#utility.yul\":3897:3957   */\n      tag_98\n        /* \"#utility.yul\":3950:3956   */\n      dup4\n        /* \"#utility.yul\":3897:3957   */\n      tag_48\n      jump\t// in\n    tag_98:\n        /* \"#utility.yul\":3887:3957   */\n      swap3\n      pop\n        /* \"#utility.yul\":3743:3967   */\n      pop\n        /* \"#utility.yul\":3730:3731   */\n      0x01\n        /* \"#utility.yul\":3727:3728   */\n      dup2\n        /* \"#utility.yul\":3723:3732   */\n      add\n        /* \"#utility.yul\":3718:3732   */\n      swap1\n      pop\n        /* \"#utility.yul\":3683:3967   */\n      jump(tag_94)\n    tag_96:\n        /* \"#utility.yul\":3687:3701   */\n      pop\n        /* \"#utility.yul\":3983:3986   */\n      dup6\n        /* \"#utility.yul\":3976:3986   */\n      swap4\n      pop\n        /* \"#utility.yul\":3384:3992   */\n      pop\n      pop\n      pop\n        /* \"#utility.yul\":3260:3992   */\n      swap3\n      swap2\n      pop\n      pop\n      jump\t// out\n        /* \"#utility.yul\":3998:4371   */\n    tag_19:\n        /* \"#utility.yul\":4141:4145   */\n      0x00\n        /* \"#utility.yul\":4179:4181   */\n      0x20\n        /* \"#utility.yul\":4168:4177   */\n      dup3\n        /* \"#utility.yul\":4164:4182   */\n      add\n        /* \"#utility.yul\":4156:4182   */\n      swap1\n      pop\n        /* \"#utility.yul\":4228:4237   */\n      dup2\n        /* \"#utility.yul\":4222:4226   */\n      dup2\n        /* \"#utility.yul\":4218:4238   */\n      sub\n        /* \"#utility.yul\":4214:4215   */\n      0x00\n        /* \"#utility.yul\":4203:4212   */\n      dup4\n        /* \"#utility.yul\":4199:4216   */\n      add\n        /* \"#utility.yul\":4192:4239   */\n      mstore\n        /* \"#utility.yul\":4256:4364   */\n      tag_100\n        /* \"#utility.yul\":4359:4363   */\n      dup2\n        /* \"#utility.yul\":4350:4356   */\n      dup5\n        /* \"#utility.yul\":4256:4364   */\n      tag_49\n      jump\t// in\n    tag_100:\n        /* \"#utility.yul\":4248:4364   */\n      swap1\n      pop\n        /* \"#utility.yul\":3998:4371   */\n      swap3\n      swap2\n      pop\n      pop\n      jump\t// out\n        /* \"#utility.yul\":4377:4495   */\n    tag_50:\n        /* \"#utility.yul\":4464:4488   */\n      tag_102\n        /* \"#utility.yul\":4482:4487   */\n      dup2\n        /* \"#utility.yul\":4464:4488   */\n      tag_39\n      jump\t// in\n    tag_102:\n        /* \"#utility.yul\":4459:4462   */\n      dup3\n        /* \"#utility.yul\":4452:4489   */\n      mstore\n        /* \"#utility.yul\":4377:4495   */\n      pop\n      pop\n      jump\t// out\n        /* \"#utility.yul\":4501:4833   */\n    tag_24:\n        /* \"#utility.yul\":4622:4626   */\n      0x00\n        /* \"#utility.yul\":4660:4662   */\n      0x40\n        /* \"#utility.yul\":4649:4658   */\n      dup3\n        /* \"#utility.yul\":4645:4663   */\n      add\n        /* \"#utility.yul\":4637:4663   */\n      swap1\n      pop\n        /* \"#utility.yul\":4673:4744   */\n      tag_104\n        /* \"#utility.yul\":4741:4742   */\n      0x00\n        /* \"#utility.yul\":4730:4739   */\n      dup4\n        /* \"#utility.yul\":4726:4743   */\n      add\n        /* \"#utility.yul\":4717:4723   */\n      dup6\n        /* \"#utility.yul\":4673:4744   */\n      tag_42\n      jump\t// in\n    tag_104:\n        /* \"#utility.yul\":4754:4826   */\n      tag_105\n        /* \"#utility.yul\":4822:4824   */\n      0x20\n        /* \"#utility.yul\":4811:4820   */\n      dup4\n        /* \"#utility.yul\":4807:4825   */\n      add\n        /* \"#utility.yul\":4798:4804   */\n      dup5\n        /* \"#utility.yul\":4754:4826   */\n      tag_50\n      jump\t// in\n    tag_105:\n        /* \"#utility.yul\":4501:4833   */\n      swap4\n      swap3\n      pop\n      pop\n      pop\n      jump\t// out\n    stop\n\n    sub_0: assembly {\n            /* \"Campaign.sol\":498:3320  contract Campaign {... */\n          mstore(0x40, 0x80)\n            /* \"Campaign.sol\":1558:1691  constructor(address managerAddress, uint minimum) {... */\n          callvalue\n          dup1\n          iszero\n          tag_1\n          jumpi\n          0x00\n          dup1\n          revert\n        tag_1:\n          pop\n          mload(0x40)\n          sub(codesize, bytecodeSize)\n          dup1\n          bytecodeSize\n          dup4\n          codecopy\n          dup2\n          dup2\n          add\n          0x40\n          mstore\n          dup2\n          add\n          swap1\n          tag_2\n          swap2\n          swap1\n          tag_3\n          jump\t// in\n        tag_2:\n            /* \"Campaign.sol\":1629:1643  managerAddress */\n          dup2\n            /* \"Campaign.sol\":1619:1626  manager */\n          0x00\n          dup1\n            /* \"Campaign.sol\":1619:1643  manager = managerAddress */\n          0x0100\n          exp\n          dup2\n          sload\n          dup2\n          0xffffffffffffffffffffffffffffffffffffffff\n          mul\n          not\n          and\n          swap1\n          dup4\n          0xffffffffffffffffffffffffffffffffffffffff\n          and\n          mul\n          or\n          swap1\n          sstore\n          pop\n            /* \"Campaign.sol\":1676:1683  minimum */\n          dup1\n            /* \"Campaign.sol\":1654:1673  minimumContribution */\n          0x01\n            /* \"Campaign.sol\":1654:1683  minimumContribution = minimum */\n          dup2\n          swap1\n          sstore\n          pop\n            /* \"Campaign.sol\":1558:1691  constructor(address managerAddress, uint minimum) {... */\n          pop\n          pop\n            /* \"Campaign.sol\":498:3320  contract Campaign {... */\n          jump(tag_6)\n            /* \"#utility.yul\":88:205   */\n        tag_8:\n            /* \"#utility.yul\":197:198   */\n          0x00\n            /* \"#utility.yul\":194:195   */\n          dup1\n            /* \"#utility.yul\":187:199   */\n          revert\n            /* \"#utility.yul\":334:460   */\n        tag_10:\n            /* \"#utility.yul\":371:378   */\n          0x00\n            /* \"#utility.yul\":411:453   */\n          0xffffffffffffffffffffffffffffffffffffffff\n            /* \"#utility.yul\":404:409   */\n          dup3\n            /* \"#utility.yul\":400:454   */\n          and\n            /* \"#utility.yul\":389:454   */\n          swap1\n          pop\n            /* \"#utility.yul\":334:460   */\n          swap2\n          swap1\n          pop\n          jump\t// out\n            /* \"#utility.yul\":466:562   */\n        tag_11:\n            /* \"#utility.yul\":503:510   */\n          0x00\n            /* \"#utility.yul\":532:556   */\n          tag_23\n            /* \"#utility.yul\":550:555   */\n          dup3\n            /* \"#utility.yul\":532:556   */\n          tag_10\n          jump\t// in\n        tag_23:\n            /* \"#utility.yul\":521:556   */\n          swap1\n          pop\n            /* \"#utility.yul\":466:562   */\n          swap2\n          swap1\n          pop\n          jump\t// out\n            /* \"#utility.yul\":568:690   */\n        tag_12:\n            /* \"#utility.yul\":641:665   */\n          tag_25\n            /* \"#utility.yul\":659:664   */\n          dup2\n            /* \"#utility.yul\":641:665   */\n          tag_11\n          jump\t// in\n        tag_25:\n            /* \"#utility.yul\":634:639   */\n          dup2\n            /* \"#utility.yul\":631:666   */\n          eq\n            /* \"#utility.yul\":621:684   */\n          tag_26\n          jumpi\n            /* \"#utility.yul\":680:681   */\n          0x00\n            /* \"#utility.yul\":677:678   */\n          dup1\n            /* \"#utility.yul\":670:682   */\n          revert\n            /* \"#utility.yul\":621:684   */\n        tag_26:\n            /* \"#utility.yul\":568:690   */\n          pop\n          jump\t// out\n            /* \"#utility.yul\":696:839   */\n        tag_13:\n            /* \"#utility.yul\":753:758   */\n          0x00\n            /* \"#utility.yul\":784:790   */\n          dup2\n            /* \"#utility.yul\":778:791   */\n          mload\n            /* \"#utility.yul\":769:791   */\n          swap1\n          pop\n            /* \"#utility.yul\":800:833   */\n          tag_28\n            /* \"#utility.yul\":827:832   */\n          dup2\n            /* \"#utility.yul\":800:833   */\n          tag_12\n          jump\t// in\n        tag_28:\n            /* \"#utility.yul\":696:839   */\n          swap3\n          swap2\n          pop\n          pop\n          jump\t// out\n            /* \"#utility.yul\":845:922   */\n        tag_14:\n            /* \"#utility.yul\":882:889   */\n          0x00\n            /* \"#utility.yul\":911:916   */\n          dup2\n            /* \"#utility.yul\":900:916   */\n          swap1\n          pop\n            /* \"#utility.yul\":845:922   */\n          swap2\n          swap1\n          pop\n          jump\t// out\n            /* \"#utility.yul\":928:1050   */\n        tag_15:\n            /* \"#utility.yul\":1001:1025   */\n          tag_31\n            /* \"#utility.yul\":1019:1024   */\n          dup2\n            /* \"#utility.yul\":1001:1025   */\n          tag_14\n          jump\t// in\n        tag_31:\n            /* \"#utility.yul\":994:999   */\n          dup2\n            /* \"#utility.yul\":991:1026   */\n          eq\n            /* \"#utility.yul\":981:1044   */\n          tag_32\n          jumpi\n            /* \"#utility.yul\":1040:1041   */\n          0x00\n            /* \"#utility.yul\":1037:1038   */\n          dup1\n            /* \"#utility.yul\":1030:1042   */\n          revert\n            /* \"#utility.yul\":981:1044   */\n        tag_32:\n            /* \"#utility.yul\":928:1050   */\n          pop\n          jump\t// out\n            /* \"#utility.yul\":1056:1199   */\n        tag_16:\n            /* \"#utility.yul\":1113:1118   */\n          0x00\n            /* \"#utility.yul\":1144:1150   */\n          dup2\n            /* \"#utility.yul\":1138:1151   */\n          mload\n            /* \"#utility.yul\":1129:1151   */\n          swap1\n          pop\n            /* \"#utility.yul\":1160:1193   */\n          tag_34\n            /* \"#utility.yul\":1187:1192   */\n          dup2\n            /* \"#utility.yul\":1160:1193   */\n          tag_15\n          jump\t// in\n        tag_34:\n            /* \"#utility.yul\":1056:1199   */\n          swap3\n          swap2\n          pop\n          pop\n          jump\t// out\n            /* \"#utility.yul\":1205:1712   */\n        tag_3:\n            /* \"#utility.yul\":1284:1290   */\n          0x00\n            /* \"#utility.yul\":1292:1298   */\n          dup1\n            /* \"#utility.yul\":1341:1343   */\n          0x40\n            /* \"#utility.yul\":1329:1338   */\n          dup4\n            /* \"#utility.yul\":1320:1327   */\n          dup6\n            /* \"#utility.yul\":1316:1339   */\n          sub\n            /* \"#utility.yul\":1312:1344   */\n          slt\n            /* \"#utility.yul\":1309:1428   */\n          iszero\n          tag_36\n          jumpi\n            /* \"#utility.yul\":1347:1426   */\n          tag_37\n          tag_8\n          jump\t// in\n        tag_37:\n            /* \"#utility.yul\":1309:1428   */\n        tag_36:\n            /* \"#utility.yul\":1467:1468   */\n          0x00\n            /* \"#utility.yul\":1492:1556   */\n          tag_38\n            /* \"#utility.yul\":1548:1555   */\n          dup6\n            /* \"#utility.yul\":1539:1545   */\n          dup3\n            /* \"#utility.yul\":1528:1537   */\n          dup7\n            /* \"#utility.yul\":1524:1546   */\n          add\n            /* \"#utility.yul\":1492:1556   */\n          tag_13\n          jump\t// in\n        tag_38:\n            /* \"#utility.yul\":1482:1556   */\n          swap3\n          pop\n            /* \"#utility.yul\":1438:1566   */\n          pop\n            /* \"#utility.yul\":1605:1607   */\n          0x20\n            /* \"#utility.yul\":1631:1695   */\n          tag_39\n            /* \"#utility.yul\":1687:1694   */\n          dup6\n            /* \"#utility.yul\":1678:1684   */\n          dup3\n            /* \"#utility.yul\":1667:1676   */\n          dup7\n            /* \"#utility.yul\":1663:1685   */\n          add\n            /* \"#utility.yul\":1631:1695   */\n          tag_16\n          jump\t// in\n        tag_39:\n            /* \"#utility.yul\":1621:1695   */\n          swap2\n          pop\n            /* \"#utility.yul\":1576:1705   */\n          pop\n            /* \"#utility.yul\":1205:1712   */\n          swap3\n          pop\n          swap3\n          swap1\n          pop\n          jump\t// out\n            /* \"Campaign.sol\":498:3320  contract Campaign {... */\n        tag_6:\n          dataSize(sub_0)\n          dup1\n          dataOffset(sub_0)\n          0x00\n          codecopy\n          0x00\n          return\n        stop\n\n        sub_0: assembly {\n                /* \"Campaign.sol\":498:3320  contract Campaign {... */\n              mstore(0x40, 0x80)\n              jumpi(tag_1, lt(calldatasize, 0x04))\n              shr(0xe0, calldataload(0x00))\n              dup1\n              0x81d12c58\n              gt\n              tag_12\n              jumpi\n              dup1\n              0x81d12c58\n              eq\n              tag_7\n              jumpi\n              dup1\n              0x937e09b1\n              eq\n              tag_8\n              jumpi\n              dup1\n              0xd7bb99ba\n              eq\n              tag_9\n              jumpi\n              dup1\n              0xd7d1bbdb\n              eq\n              tag_10\n              jumpi\n              dup1\n              0xfbfa4b7f\n              eq\n              tag_11\n              jumpi\n              jump(tag_1)\n            tag_12:\n              dup1\n              0x03441006\n              eq\n              tag_2\n              jumpi\n              dup1\n              0x1b16bb5c\n              eq\n              tag_3\n              jumpi\n              dup1\n              0x1f6d4942\n              eq\n              tag_4\n              jumpi\n              dup1\n              0x481c6a75\n              eq\n              tag_5\n              jumpi\n              dup1\n              0x7569b3d7\n              eq\n              tag_6\n              jumpi\n            tag_1:\n              0x00\n              dup1\n              revert\n                /* \"Campaign.sol\":2802:3317  function finalizeRequest(uint index) public isManager {... */\n            tag_2:\n              callvalue\n              dup1\n              iszero\n              tag_13\n              jumpi\n              0x00\n              dup1\n              revert\n            tag_13:\n              pop\n              tag_14\n              0x04\n              dup1\n              calldatasize\n              sub\n              dup2\n              add\n              swap1\n              tag_15\n              swap2\n              swap1\n              tag_16\n              jump\t// in\n            tag_15:\n              tag_17\n              jump\t// in\n            tag_14:\n              stop\n                /* \"Campaign.sol\":2124:2386  function createRequest(string memory description, address recipient, uint amount) public isManager {... */\n            tag_3:\n              callvalue\n              dup1\n              iszero\n              tag_18\n              jumpi\n              0x00\n              dup1\n              revert\n            tag_18:\n              pop\n              tag_19\n              0x04\n              dup1\n              calldatasize\n              sub\n              dup2\n              add\n              swap1\n              tag_20\n              swap2\n              swap1\n              tag_21\n              jump\t// in\n            tag_20:\n              tag_22\n              jump\t// in\n            tag_19:\n              stop\n                /* \"Campaign.sol\":1318:1362  mapping(address => bool) public contributors */\n            tag_4:\n              callvalue\n              dup1\n              iszero\n              tag_23\n              jumpi\n              0x00\n              dup1\n              revert\n            tag_23:\n              pop\n              tag_24\n              0x04\n              dup1\n              calldatasize\n              sub\n              dup2\n              add\n              swap1\n              tag_25\n              swap2\n              swap1\n              tag_26\n              jump\t// in\n            tag_25:\n              tag_27\n              jump\t// in\n            tag_24:\n              mload(0x40)\n              tag_28\n              swap2\n              swap1\n              tag_29\n              jump\t// in\n            tag_28:\n              mload(0x40)\n              dup1\n              swap2\n              sub\n              swap1\n              return\n                /* \"Campaign.sol\":1247:1269  address public manager */\n            tag_5:\n              callvalue\n              dup1\n              iszero\n              tag_30\n              jumpi\n              0x00\n              dup1\n              revert\n            tag_30:\n              pop\n              tag_31\n              tag_32\n              jump\t// in\n            tag_31:\n              mload(0x40)\n              tag_33\n              swap2\n              swap1\n              tag_34\n              jump\t// in\n            tag_33:\n              mload(0x40)\n              dup1\n              swap2\n              sub\n              swap1\n              return\n                /* \"Campaign.sol\":1369:1398  uint public contributorsCount */\n            tag_6:\n              callvalue\n              dup1\n              iszero\n              tag_35\n              jumpi\n              0x00\n              dup1\n              revert\n            tag_35:\n              pop\n              tag_36\n              tag_37\n              jump\t// in\n            tag_36:\n              mload(0x40)\n              tag_38\n              swap2\n              swap1\n              tag_39\n              jump\t// in\n            tag_38:\n              mload(0x40)\n              dup1\n              swap2\n              sub\n              swap1\n              return\n                /* \"Campaign.sol\":1407:1432  Request[] public requests */\n            tag_7:\n              callvalue\n              dup1\n              iszero\n              tag_40\n              jumpi\n              0x00\n              dup1\n              revert\n            tag_40:\n              pop\n              tag_41\n              0x04\n              dup1\n              calldatasize\n              sub\n              dup2\n              add\n              swap1\n              tag_42\n              swap2\n              swap1\n              tag_16\n              jump\t// in\n            tag_42:\n              tag_43\n              jump\t// in\n            tag_41:\n              mload(0x40)\n              tag_44\n              swap6\n              swap5\n              swap4\n              swap3\n              swap2\n              swap1\n              tag_45\n              jump\t// in\n            tag_44:\n              mload(0x40)\n              dup1\n              swap2\n              sub\n              swap1\n              return\n                /* \"Campaign.sol\":1278:1309  uint public minimumContribution */\n            tag_8:\n              callvalue\n              dup1\n              iszero\n              tag_46\n              jumpi\n              0x00\n              dup1\n              revert\n            tag_46:\n              pop\n              tag_47\n              tag_48\n              jump\t// in\n            tag_47:\n              mload(0x40)\n              tag_49\n              swap2\n              swap1\n              tag_39\n              jump\t// in\n            tag_49:\n              mload(0x40)\n              dup1\n              swap2\n              sub\n              swap1\n              return\n                /* \"Campaign.sol\":1799:2116  function contribute() public payable {... */\n            tag_9:\n              tag_50\n              tag_51\n              jump\t// in\n            tag_50:\n              stop\n                /* \"Campaign.sol\":2394:2794  function approveRequest(uint index) public {... */\n            tag_10:\n              callvalue\n              dup1\n              iszero\n              tag_52\n              jumpi\n              0x00\n              dup1\n              revert\n            tag_52:\n              pop\n              tag_53\n              0x04\n              dup1\n              calldatasize\n              sub\n              dup2\n              add\n              swap1\n              tag_54\n              swap2\n              swap1\n              tag_16\n              jump\t// in\n            tag_54:\n              tag_55\n              jump\t// in\n            tag_53:\n              stop\n                /* \"Campaign.sol\":1699:1791  function requestsCount() public view returns(uint) {... */\n            tag_11:\n              callvalue\n              dup1\n              iszero\n              tag_56\n              jumpi\n              0x00\n              dup1\n              revert\n            tag_56:\n              pop\n              tag_57\n              tag_58\n              jump\t// in\n            tag_57:\n              mload(0x40)\n              tag_59\n              swap2\n              swap1\n              tag_39\n              jump\t// in\n            tag_59:\n              mload(0x40)\n              dup1\n              swap2\n              sub\n              swap1\n              return\n                /* \"Campaign.sol\":2802:3317  function finalizeRequest(uint index) public isManager {... */\n            tag_17:\n                /* \"Campaign.sol\":1495:1502  manager */\n              0x00\n              dup1\n              sload\n              swap1\n              0x0100\n              exp\n              swap1\n              div\n              0xffffffffffffffffffffffffffffffffffffffff\n              and\n                /* \"Campaign.sol\":1481:1502  msg.sender == manager */\n              0xffffffffffffffffffffffffffffffffffffffff\n              and\n                /* \"Campaign.sol\":1481:1491  msg.sender */\n              caller\n                /* \"Campaign.sol\":1481:1502  msg.sender == manager */\n              0xffffffffffffffffffffffffffffffffffffffff\n              and\n              eq\n                /* \"Campaign.sol\":1473:1530  require(msg.sender == manager, \"Caller is not a manager\") */\n              tag_61\n              jumpi\n              mload(0x40)\n              0x08c379a000000000000000000000000000000000000000000000000000000000\n              dup2\n              mstore\n              0x04\n              add\n              tag_62\n              swap1\n              tag_63\n              jump\t// in\n            tag_62:\n              mload(0x40)\n              dup1\n              swap2\n              sub\n              swap1\n              revert\n            tag_61:\n                /* \"Campaign.sol\":2867:2890  Request storage request */\n              0x00\n                /* \"Campaign.sol\":2893:2901  requests */\n              0x04\n                /* \"Campaign.sol\":2902:2907  index */\n              dup3\n                /* \"Campaign.sol\":2893:2908  requests[index] */\n              dup2\n              sload\n              dup2\n              lt\n              tag_65\n              jumpi\n              tag_66\n              tag_67\n              jump\t// in\n            tag_66:\n            tag_65:\n              swap1\n              0x00\n              mstore\n              keccak256(0x00, 0x20)\n              swap1\n              0x06\n              mul\n              add\n                /* \"Campaign.sol\":2867:2908  Request storage request = requests[index] */\n              swap1\n              pop\n                /* \"Campaign.sol\":2930:2937  request */\n              dup1\n                /* \"Campaign.sol\":2930:2949  request.isCompleted */\n              0x03\n              add\n              0x00\n              swap1\n              sload\n              swap1\n              0x0100\n              exp\n              swap1\n              div\n              0xff\n              and\n                /* \"Campaign.sol\":2929:2949  !request.isCompleted */\n              iszero\n                /* \"Campaign.sol\":2921:2974  require(!request.isCompleted, \"Request is completed\") */\n              tag_69\n              jumpi\n              mload(0x40)\n              0x08c379a000000000000000000000000000000000000000000000000000000000\n              dup2\n              mstore\n              0x04\n              add\n              tag_70\n              swap1\n              tag_71\n              jump\t// in\n            tag_70:\n              mload(0x40)\n              dup1\n              swap2\n              sub\n              swap1\n              revert\n            tag_69:\n                /* \"Campaign.sol\":3105:3106  2 */\n              0x02\n                /* \"Campaign.sol\":3085:3102  contributorsCount */\n              sload(0x03)\n                /* \"Campaign.sol\":3085:3106  contributorsCount / 2 */\n              tag_72\n              swap2\n              swap1\n              tag_73\n              jump\t// in\n            tag_72:\n                /* \"Campaign.sol\":3060:3067  request */\n              dup2\n                /* \"Campaign.sol\":3060:3082  request.approvalsCount */\n              0x05\n              add\n              sload\n                /* \"Campaign.sol\":3060:3106  request.approvalsCount > contributorsCount / 2 */\n              gt\n                /* \"Campaign.sol\":3052:3144  require(request.approvalsCount > contributorsCount / 2, \"Request has not enought approvals\") */\n              tag_74\n              jumpi\n              mload(0x40)\n              0x08c379a000000000000000000000000000000000000000000000000000000000\n              dup2\n              mstore\n              0x04\n              add\n              tag_75\n              swap1\n              tag_76\n              jump\t// in\n            tag_75:\n              mload(0x40)\n              dup1\n              swap2\n              sub\n              swap1\n              revert\n            tag_74:\n                /* \"Campaign.sol\":3158:3167  bool sent */\n              0x00\n                /* \"Campaign.sol\":3172:3179  request */\n              dup2\n                /* \"Campaign.sol\":3172:3189  request.recipient */\n              0x01\n              add\n              0x00\n              swap1\n              sload\n              swap1\n              0x0100\n              exp\n              swap1\n              div\n              0xffffffffffffffffffffffffffffffffffffffff\n              and\n                /* \"Campaign.sol\":3172:3194  request.recipient.call */\n              0xffffffffffffffffffffffffffffffffffffffff\n              and\n                /* \"Campaign.sol\":3202:3209  request */\n              dup3\n                /* \"Campaign.sol\":3202:3216  request.amount */\n              0x02\n              add\n              sload\n                /* \"Campaign.sol\":3172:3221  request.recipient.call{value: request.amount}(\"\") */\n              mload(0x40)\n              tag_77\n              swap1\n              tag_78\n              jump\t// in\n            tag_77:\n              0x00\n              mload(0x40)\n              dup1\n              dup4\n              sub\n              dup2\n              dup6\n              dup8\n              gas\n              call\n              swap3\n              pop\n              pop\n              pop\n              returndatasize\n              dup1\n              0x00\n              dup2\n              eq\n              tag_81\n              jumpi\n              mload(0x40)\n              swap2\n              pop\n              and(add(returndatasize, 0x3f), not(0x1f))\n              dup3\n              add\n              0x40\n              mstore\n              returndatasize\n              dup3\n              mstore\n              returndatasize\n              0x00\n              0x20\n              dup5\n              add\n              returndatacopy\n              jump(tag_80)\n            tag_81:\n              0x60\n              swap2\n              pop\n            tag_80:\n              pop\n                /* \"Campaign.sol\":3157:3221  (bool sent,) = request.recipient.call{value: request.amount}(\"\") */\n              pop\n              swap1\n              pop\n                /* \"Campaign.sol\":3240:3244  sent */\n              dup1\n                /* \"Campaign.sol\":3232:3272  require(sent, \"Failure! Ether not sent\") */\n              tag_82\n              jumpi\n              mload(0x40)\n              0x08c379a000000000000000000000000000000000000000000000000000000000\n              dup2\n              mstore\n              0x04\n              add\n              tag_83\n              swap1\n              tag_84\n              jump\t// in\n            tag_83:\n              mload(0x40)\n              dup1\n              swap2\n              sub\n              swap1\n              revert\n            tag_82:\n                /* \"Campaign.sol\":3305:3309  true */\n              0x01\n                /* \"Campaign.sol\":3283:3290  request */\n              dup3\n                /* \"Campaign.sol\":3283:3302  request.isCompleted */\n              0x03\n              add\n              0x00\n                /* \"Campaign.sol\":3283:3309  request.isCompleted = true */\n              0x0100\n              exp\n              dup2\n              sload\n              dup2\n              0xff\n              mul\n              not\n              and\n              swap1\n              dup4\n              iszero\n              iszero\n              mul\n              or\n              swap1\n              sstore\n              pop\n                /* \"Campaign.sol\":2856:3317  {... */\n              pop\n              pop\n                /* \"Campaign.sol\":2802:3317  function finalizeRequest(uint index) public isManager {... */\n              pop\n              jump\t// out\n                /* \"Campaign.sol\":2124:2386  function createRequest(string memory description, address recipient, uint amount) public isManager {... */\n            tag_22:\n                /* \"Campaign.sol\":1495:1502  manager */\n              0x00\n              dup1\n              sload\n              swap1\n              0x0100\n              exp\n              swap1\n              div\n              0xffffffffffffffffffffffffffffffffffffffff\n              and\n                /* \"Campaign.sol\":1481:1502  msg.sender == manager */\n              0xffffffffffffffffffffffffffffffffffffffff\n              and\n                /* \"Campaign.sol\":1481:1491  msg.sender */\n              caller\n                /* \"Campaign.sol\":1481:1502  msg.sender == manager */\n              0xffffffffffffffffffffffffffffffffffffffff\n              and\n              eq\n                /* \"Campaign.sol\":1473:1530  require(msg.sender == manager, \"Caller is not a manager\") */\n              tag_86\n              jumpi\n              mload(0x40)\n              0x08c379a000000000000000000000000000000000000000000000000000000000\n              dup2\n              mstore\n              0x04\n              add\n              tag_87\n              swap1\n              tag_63\n              jump\t// in\n            tag_87:\n              mload(0x40)\n              dup1\n              swap2\n              sub\n              swap1\n              revert\n            tag_86:\n                /* \"Campaign.sol\":2234:2251  Request storage r */\n              0x00\n                /* \"Campaign.sol\":2254:2262  requests */\n              0x04\n                /* \"Campaign.sol\":2254:2269  requests.push() */\n              0x01\n              dup2\n              0x01\n              dup2\n              sload\n              add\n              dup1\n              dup3\n              sstore\n              dup1\n              swap2\n              pop\n              pop\n              sub\n              swap1\n              0x00\n              mstore\n              keccak256(0x00, 0x20)\n              swap1\n              0x06\n              mul\n              add\n                /* \"Campaign.sol\":2234:2269  Request storage r = requests.push() */\n              swap1\n              pop\n                /* \"Campaign.sol\":2296:2307  description */\n              dup4\n                /* \"Campaign.sol\":2280:2281  r */\n              dup2\n                /* \"Campaign.sol\":2280:2293  r.description */\n              0x00\n              add\n                /* \"Campaign.sol\":2280:2307  r.description = description */\n              swap1\n              dup1\n              mload\n              swap1\n              0x20\n              add\n              swap1\n              tag_90\n              swap3\n              swap2\n              swap1\n              tag_91\n              jump\t// in\n            tag_90:\n              pop\n                /* \"Campaign.sol\":2340:2349  recipient */\n              dup3\n                /* \"Campaign.sol\":2318:2319  r */\n              dup2\n                /* \"Campaign.sol\":2318:2329  r.recipient */\n              0x01\n              add\n              0x00\n                /* \"Campaign.sol\":2318:2350  r.recipient = payable(recipient) */\n              0x0100\n              exp\n              dup2\n              sload\n              dup2\n              0xffffffffffffffffffffffffffffffffffffffff\n              mul\n              not\n              and\n              swap1\n              dup4\n              0xffffffffffffffffffffffffffffffffffffffff\n              and\n              mul\n              or\n              swap1\n              sstore\n              pop\n                /* \"Campaign.sol\":2372:2378  amount */\n              dup2\n                /* \"Campaign.sol\":2361:2362  r */\n              dup2\n                /* \"Campaign.sol\":2361:2369  r.amount */\n              0x02\n              add\n                /* \"Campaign.sol\":2361:2378  r.amount = amount */\n              dup2\n              swap1\n              sstore\n              pop\n                /* \"Campaign.sol\":2223:2386  {... */\n              pop\n                /* \"Campaign.sol\":2124:2386  function createRequest(string memory description, address recipient, uint amount) public isManager {... */\n              pop\n              pop\n              pop\n              jump\t// out\n                /* \"Campaign.sol\":1318:1362  mapping(address => bool) public contributors */\n            tag_27:\n              mstore(0x20, 0x02)\n              dup1\n              0x00\n              mstore\n              keccak256(0x00, 0x40)\n              0x00\n              swap2\n              pop\n              sload\n              swap1\n              0x0100\n              exp\n              swap1\n              div\n              0xff\n              and\n              dup2\n              jump\t// out\n                /* \"Campaign.sol\":1247:1269  address public manager */\n            tag_32:\n              0x00\n              dup1\n              sload\n              swap1\n              0x0100\n              exp\n              swap1\n              div\n              0xffffffffffffffffffffffffffffffffffffffff\n              and\n              dup2\n              jump\t// out\n                /* \"Campaign.sol\":1369:1398  uint public contributorsCount */\n            tag_37:\n              sload(0x03)\n              dup2\n              jump\t// out\n                /* \"Campaign.sol\":1407:1432  Request[] public requests */\n            tag_43:\n              0x04\n              dup2\n              dup2\n              sload\n              dup2\n              lt\n              tag_92\n              jumpi\n              0x00\n              dup1\n              revert\n            tag_92:\n              swap1\n              0x00\n              mstore\n              keccak256(0x00, 0x20)\n              swap1\n              0x06\n              mul\n              add\n              0x00\n              swap2\n              pop\n              swap1\n              pop\n              dup1\n              0x00\n              add\n              dup1\n              sload\n              tag_94\n              swap1\n              tag_95\n              jump\t// in\n            tag_94:\n              dup1\n              0x1f\n              add\n              0x20\n              dup1\n              swap2\n              div\n              mul\n              0x20\n              add\n              mload(0x40)\n              swap1\n              dup2\n              add\n              0x40\n              mstore\n              dup1\n              swap3\n              swap2\n              swap1\n              dup2\n              dup2\n              mstore\n              0x20\n              add\n              dup3\n              dup1\n              sload\n              tag_96\n              swap1\n              tag_95\n              jump\t// in\n            tag_96:\n              dup1\n              iszero\n              tag_97\n              jumpi\n              dup1\n              0x1f\n              lt\n              tag_98\n              jumpi\n              0x0100\n              dup1\n              dup4\n              sload\n              div\n              mul\n              dup4\n              mstore\n              swap2\n              0x20\n              add\n              swap2\n              jump(tag_97)\n            tag_98:\n              dup3\n              add\n              swap2\n              swap1\n              0x00\n              mstore\n              keccak256(0x00, 0x20)\n              swap1\n            tag_99:\n              dup2\n              sload\n              dup2\n              mstore\n              swap1\n              0x01\n              add\n              swap1\n              0x20\n              add\n              dup1\n              dup4\n              gt\n              tag_99\n              jumpi\n              dup3\n              swap1\n              sub\n              0x1f\n              and\n              dup3\n              add\n              swap2\n            tag_97:\n              pop\n              pop\n              pop\n              pop\n              pop\n              swap1\n              dup1\n              0x01\n              add\n              0x00\n              swap1\n              sload\n              swap1\n              0x0100\n              exp\n              swap1\n              div\n              0xffffffffffffffffffffffffffffffffffffffff\n              and\n              swap1\n              dup1\n              0x02\n              add\n              sload\n              swap1\n              dup1\n              0x03\n              add\n              0x00\n              swap1\n              sload\n              swap1\n              0x0100\n              exp\n              swap1\n              div\n              0xff\n              and\n              swap1\n              dup1\n              0x05\n              add\n              sload\n              swap1\n              pop\n              dup6\n              jump\t// out\n                /* \"Campaign.sol\":1278:1309  uint public minimumContribution */\n            tag_48:\n              sload(0x01)\n              dup2\n              jump\t// out\n                /* \"Campaign.sol\":1799:2116  function contribute() public payable {... */\n            tag_51:\n                /* \"Campaign.sol\":1868:1887  minimumContribution */\n              sload(0x01)\n                /* \"Campaign.sol\":1855:1864  msg.value */\n              callvalue\n                /* \"Campaign.sol\":1855:1887  msg.value >= minimumContribution */\n              lt\n              iszero\n                /* \"Campaign.sol\":1847:1924  require(msg.value >= minimumContribution, \"Minimum contribution is required\") */\n              tag_101\n              jumpi\n              mload(0x40)\n              0x08c379a000000000000000000000000000000000000000000000000000000000\n              dup2\n              mstore\n              0x04\n              add\n              tag_102\n              swap1\n              tag_103\n              jump\t// in\n            tag_102:\n              mload(0x40)\n              dup1\n              swap2\n              sub\n              swap1\n              revert\n            tag_101:\n                /* \"Campaign.sol\":1991:2003  contributors */\n              0x02\n                /* \"Campaign.sol\":1991:2015  contributors[msg.sender] */\n              0x00\n                /* \"Campaign.sol\":2004:2014  msg.sender */\n              caller\n                /* \"Campaign.sol\":1991:2015  contributors[msg.sender] */\n              0xffffffffffffffffffffffffffffffffffffffff\n              and\n              0xffffffffffffffffffffffffffffffffffffffff\n              and\n              dup2\n              mstore\n              0x20\n              add\n              swap1\n              dup2\n              mstore\n              0x20\n              add\n              0x00\n              keccak256\n              0x00\n              swap1\n              sload\n              swap1\n              0x0100\n              exp\n              swap1\n              div\n              0xff\n              and\n                /* \"Campaign.sol\":1986:2109  if (!contributors[msg.sender]) {... */\n              tag_104\n              jumpi\n                /* \"Campaign.sol\":2059:2063  true */\n              0x01\n                /* \"Campaign.sol\":2032:2044  contributors */\n              0x02\n                /* \"Campaign.sol\":2032:2056  contributors[msg.sender] */\n              0x00\n                /* \"Campaign.sol\":2045:2055  msg.sender */\n              caller\n                /* \"Campaign.sol\":2032:2056  contributors[msg.sender] */\n              0xffffffffffffffffffffffffffffffffffffffff\n              and\n              0xffffffffffffffffffffffffffffffffffffffff\n              and\n              dup2\n              mstore\n              0x20\n              add\n              swap1\n              dup2\n              mstore\n              0x20\n              add\n              0x00\n              keccak256\n              0x00\n                /* \"Campaign.sol\":2032:2063  contributors[msg.sender] = true */\n              0x0100\n              exp\n              dup2\n              sload\n              dup2\n              0xff\n              mul\n              not\n              and\n              swap1\n              dup4\n              iszero\n              iszero\n              mul\n              or\n              swap1\n              sstore\n              pop\n                /* \"Campaign.sol\":2078:2095  contributorsCount */\n              0x03\n              0x00\n                /* \"Campaign.sol\":2078:2097  contributorsCount++ */\n              dup2\n              sload\n              dup1\n              swap3\n              swap2\n              swap1\n              tag_105\n              swap1\n              tag_106\n              jump\t// in\n            tag_105:\n              swap2\n              swap1\n              pop\n              sstore\n              pop\n                /* \"Campaign.sol\":1986:2109  if (!contributors[msg.sender]) {... */\n            tag_104:\n                /* \"Campaign.sol\":1799:2116  function contribute() public payable {... */\n              jump\t// out\n                /* \"Campaign.sol\":2394:2794  function approveRequest(uint index) public {... */\n            tag_55:\n                /* \"Campaign.sol\":2448:2471  Request storage request */\n              0x00\n                /* \"Campaign.sol\":2474:2482  requests */\n              0x04\n                /* \"Campaign.sol\":2483:2488  index */\n              dup3\n                /* \"Campaign.sol\":2474:2489  requests[index] */\n              dup2\n              sload\n              dup2\n              lt\n              tag_108\n              jumpi\n              tag_109\n              tag_67\n              jump\t// in\n            tag_109:\n            tag_108:\n              swap1\n              0x00\n              mstore\n              keccak256(0x00, 0x20)\n              swap1\n              0x06\n              mul\n              add\n                /* \"Campaign.sol\":2448:2489  Request storage request = requests[index] */\n              swap1\n              pop\n                /* \"Campaign.sol\":2510:2522  contributors */\n              0x02\n                /* \"Campaign.sol\":2510:2534  contributors[msg.sender] */\n              0x00\n                /* \"Campaign.sol\":2523:2533  msg.sender */\n              caller\n                /* \"Campaign.sol\":2510:2534  contributors[msg.sender] */\n              0xffffffffffffffffffffffffffffffffffffffff\n              and\n              0xffffffffffffffffffffffffffffffffffffffff\n              and\n              dup2\n              mstore\n              0x20\n              add\n              swap1\n              dup2\n              mstore\n              0x20\n              add\n              0x00\n              keccak256\n              0x00\n              swap1\n              sload\n              swap1\n              0x0100\n              exp\n              swap1\n              div\n              0xff\n              and\n                /* \"Campaign.sol\":2502:2566  require(contributors[msg.sender], \"Caller is not a contributor\") */\n              tag_111\n              jumpi\n              mload(0x40)\n              0x08c379a000000000000000000000000000000000000000000000000000000000\n              dup2\n              mstore\n              0x04\n              add\n              tag_112\n              swap1\n              tag_113\n              jump\t// in\n            tag_112:\n              mload(0x40)\n              dup1\n              swap2\n              sub\n              swap1\n              revert\n            tag_111:\n                /* \"Campaign.sol\":2640:2647  request */\n              dup1\n                /* \"Campaign.sol\":2640:2657  request.approvals */\n              0x04\n              add\n                /* \"Campaign.sol\":2640:2669  request.approvals[msg.sender] */\n              0x00\n                /* \"Campaign.sol\":2658:2668  msg.sender */\n              caller\n                /* \"Campaign.sol\":2640:2669  request.approvals[msg.sender] */\n              0xffffffffffffffffffffffffffffffffffffffff\n              and\n              0xffffffffffffffffffffffffffffffffffffffff\n              and\n              dup2\n              mstore\n              0x20\n              add\n              swap1\n              dup2\n              mstore\n              0x20\n              add\n              0x00\n              keccak256\n              0x00\n              swap1\n              sload\n              swap1\n              0x0100\n              exp\n              swap1\n              div\n              0xff\n              and\n                /* \"Campaign.sol\":2639:2669  !request.approvals[msg.sender] */\n              iszero\n                /* \"Campaign.sol\":2631:2702  require(!request.approvals[msg.sender], \"Request was already approved\") */\n              tag_114\n              jumpi\n              mload(0x40)\n              0x08c379a000000000000000000000000000000000000000000000000000000000\n              dup2\n              mstore\n              0x04\n              add\n              tag_115\n              swap1\n              tag_116\n              jump\t// in\n            tag_115:\n              mload(0x40)\n              dup1\n              swap2\n              sub\n              swap1\n              revert\n            tag_114:\n                /* \"Campaign.sol\":2747:2751  true */\n              0x01\n                /* \"Campaign.sol\":2715:2722  request */\n              dup2\n                /* \"Campaign.sol\":2715:2732  request.approvals */\n              0x04\n              add\n                /* \"Campaign.sol\":2715:2744  request.approvals[msg.sender] */\n              0x00\n                /* \"Campaign.sol\":2733:2743  msg.sender */\n              caller\n                /* \"Campaign.sol\":2715:2744  request.approvals[msg.sender] */\n              0xffffffffffffffffffffffffffffffffffffffff\n              and\n              0xffffffffffffffffffffffffffffffffffffffff\n              and\n              dup2\n              mstore\n              0x20\n              add\n              swap1\n              dup2\n              mstore\n              0x20\n              add\n              0x00\n              keccak256\n              0x00\n                /* \"Campaign.sol\":2715:2751  request.approvals[msg.sender] = true */\n              0x0100\n              exp\n              dup2\n              sload\n              dup2\n              0xff\n              mul\n              not\n              and\n              swap1\n              dup4\n              iszero\n              iszero\n              mul\n              or\n              swap1\n              sstore\n              pop\n                /* \"Campaign.sol\":2762:2769  request */\n              dup1\n                /* \"Campaign.sol\":2762:2784  request.approvalsCount */\n              0x05\n              add\n              0x00\n                /* \"Campaign.sol\":2762:2786  request.approvalsCount++ */\n              dup2\n              sload\n              dup1\n              swap3\n              swap2\n              swap1\n              tag_117\n              swap1\n              tag_106\n              jump\t// in\n            tag_117:\n              swap2\n              swap1\n              pop\n              sstore\n              pop\n                /* \"Campaign.sol\":2437:2794  {... */\n              pop\n                /* \"Campaign.sol\":2394:2794  function approveRequest(uint index) public {... */\n              pop\n              jump\t// out\n                /* \"Campaign.sol\":1699:1791  function requestsCount() public view returns(uint) {... */\n            tag_58:\n                /* \"Campaign.sol\":1744:1748  uint */\n              0x00\n                /* \"Campaign.sol\":1768:1776  requests */\n              0x04\n                /* \"Campaign.sol\":1768:1783  requests.length */\n              dup1\n              sload\n              swap1\n              pop\n                /* \"Campaign.sol\":1761:1783  return requests.length */\n              swap1\n              pop\n                /* \"Campaign.sol\":1699:1791  function requestsCount() public view returns(uint) {... */\n              swap1\n              jump\t// out\n            tag_91:\n              dup3\n              dup1\n              sload\n              tag_119\n              swap1\n              tag_95\n              jump\t// in\n            tag_119:\n              swap1\n              0x00\n              mstore\n              keccak256(0x00, 0x20)\n              swap1\n              0x1f\n              add\n              0x20\n              swap1\n              div\n              dup2\n              add\n              swap3\n              dup3\n              tag_121\n              jumpi\n              0x00\n              dup6\n              sstore\n              jump(tag_120)\n            tag_121:\n              dup3\n              0x1f\n              lt\n              tag_122\n              jumpi\n              dup1\n              mload\n              not(0xff)\n              and\n              dup4\n              dup1\n              add\n              or\n              dup6\n              sstore\n              jump(tag_120)\n            tag_122:\n              dup3\n              dup1\n              add\n              0x01\n              add\n              dup6\n              sstore\n              dup3\n              iszero\n              tag_120\n              jumpi\n              swap2\n              dup3\n              add\n            tag_123:\n              dup3\n              dup2\n              gt\n              iszero\n              tag_124\n              jumpi\n              dup3\n              mload\n              dup3\n              sstore\n              swap2\n              0x20\n              add\n              swap2\n              swap1\n              0x01\n              add\n              swap1\n              jump(tag_123)\n            tag_124:\n            tag_120:\n              pop\n              swap1\n              pop\n              tag_125\n              swap2\n              swap1\n              tag_126\n              jump\t// in\n            tag_125:\n              pop\n              swap1\n              jump\t// out\n            tag_126:\n            tag_127:\n              dup1\n              dup3\n              gt\n              iszero\n              tag_128\n              jumpi\n              0x00\n              dup2\n              0x00\n              swap1\n              sstore\n              pop\n              0x01\n              add\n              jump(tag_127)\n            tag_128:\n              pop\n              swap1\n              jump\t// out\n                /* \"#utility.yul\":7:82   */\n            tag_129:\n                /* \"#utility.yul\":40:46   */\n              0x00\n                /* \"#utility.yul\":73:75   */\n              0x40\n                /* \"#utility.yul\":67:76   */\n              mload\n                /* \"#utility.yul\":57:76   */\n              swap1\n              pop\n                /* \"#utility.yul\":7:82   */\n              swap1\n              jump\t// out\n                /* \"#utility.yul\":88:205   */\n            tag_130:\n                /* \"#utility.yul\":197:198   */\n              0x00\n                /* \"#utility.yul\":194:195   */\n              dup1\n                /* \"#utility.yul\":187:199   */\n              revert\n                /* \"#utility.yul\":211:328   */\n            tag_131:\n                /* \"#utility.yul\":320:321   */\n              0x00\n                /* \"#utility.yul\":317:318   */\n              dup1\n                /* \"#utility.yul\":310:322   */\n              revert\n                /* \"#utility.yul\":334:411   */\n            tag_132:\n                /* \"#utility.yul\":371:378   */\n              0x00\n                /* \"#utility.yul\":400:405   */\n              dup2\n                /* \"#utility.yul\":389:405   */\n              swap1\n              pop\n                /* \"#utility.yul\":334:411   */\n              swap2\n              swap1\n              pop\n              jump\t// out\n                /* \"#utility.yul\":417:539   */\n            tag_133:\n                /* \"#utility.yul\":490:514   */\n              tag_185\n                /* \"#utility.yul\":508:513   */\n              dup2\n                /* \"#utility.yul\":490:514   */\n              tag_132\n              jump\t// in\n            tag_185:\n                /* \"#utility.yul\":483:488   */\n              dup2\n                /* \"#utility.yul\":480:515   */\n              eq\n                /* \"#utility.yul\":470:533   */\n              tag_186\n              jumpi\n                /* \"#utility.yul\":529:530   */\n              0x00\n                /* \"#utility.yul\":526:527   */\n              dup1\n                /* \"#utility.yul\":519:531   */\n              revert\n                /* \"#utility.yul\":470:533   */\n            tag_186:\n                /* \"#utility.yul\":417:539   */\n              pop\n              jump\t// out\n                /* \"#utility.yul\":545:684   */\n            tag_134:\n                /* \"#utility.yul\":591:596   */\n              0x00\n                /* \"#utility.yul\":629:635   */\n              dup2\n                /* \"#utility.yul\":616:636   */\n              calldataload\n                /* \"#utility.yul\":607:636   */\n              swap1\n              pop\n                /* \"#utility.yul\":645:678   */\n              tag_188\n                /* \"#utility.yul\":672:677   */\n              dup2\n                /* \"#utility.yul\":645:678   */\n              tag_133\n              jump\t// in\n            tag_188:\n                /* \"#utility.yul\":545:684   */\n              swap3\n              swap2\n              pop\n              pop\n              jump\t// out\n                /* \"#utility.yul\":690:1019   */\n            tag_16:\n                /* \"#utility.yul\":749:755   */\n              0x00\n                /* \"#utility.yul\":798:800   */\n              0x20\n                /* \"#utility.yul\":786:795   */\n              dup3\n                /* \"#utility.yul\":777:784   */\n              dup5\n                /* \"#utility.yul\":773:796   */\n              sub\n                /* \"#utility.yul\":769:801   */\n              slt\n                /* \"#utility.yul\":766:885   */\n              iszero\n              tag_190\n              jumpi\n                /* \"#utility.yul\":804:883   */\n              tag_191\n              tag_130\n              jump\t// in\n            tag_191:\n                /* \"#utility.yul\":766:885   */\n            tag_190:\n                /* \"#utility.yul\":924:925   */\n              0x00\n                /* \"#utility.yul\":949:1002   */\n              tag_192\n                /* \"#utility.yul\":994:1001   */\n              dup5\n                /* \"#utility.yul\":985:991   */\n              dup3\n                /* \"#utility.yul\":974:983   */\n              dup6\n                /* \"#utility.yul\":970:992   */\n              add\n                /* \"#utility.yul\":949:1002   */\n              tag_134\n              jump\t// in\n            tag_192:\n                /* \"#utility.yul\":939:1002   */\n              swap2\n              pop\n                /* \"#utility.yul\":895:1012   */\n              pop\n                /* \"#utility.yul\":690:1019   */\n              swap3\n              swap2\n              pop\n              pop\n              jump\t// out\n                /* \"#utility.yul\":1025:1142   */\n            tag_135:\n                /* \"#utility.yul\":1134:1135   */\n              0x00\n                /* \"#utility.yul\":1131:1132   */\n              dup1\n                /* \"#utility.yul\":1124:1136   */\n              revert\n                /* \"#utility.yul\":1148:1265   */\n            tag_136:\n                /* \"#utility.yul\":1257:1258   */\n              0x00\n                /* \"#utility.yul\":1254:1255   */\n              dup1\n                /* \"#utility.yul\":1247:1259   */\n              revert\n                /* \"#utility.yul\":1271:1373   */\n            tag_137:\n                /* \"#utility.yul\":1312:1318   */\n              0x00\n                /* \"#utility.yul\":1363:1365   */\n              0x1f\n                /* \"#utility.yul\":1359:1366   */\n              not\n                /* \"#utility.yul\":1354:1356   */\n              0x1f\n                /* \"#utility.yul\":1347:1352   */\n              dup4\n                /* \"#utility.yul\":1343:1357   */\n              add\n                /* \"#utility.yul\":1339:1367   */\n              and\n                /* \"#utility.yul\":1329:1367   */\n              swap1\n              pop\n                /* \"#utility.yul\":1271:1373   */\n              swap2\n              swap1\n              pop\n              jump\t// out\n                /* \"#utility.yul\":1379:1559   */\n            tag_138:\n                /* \"#utility.yul\":1427:1504   */\n              0x4e487b7100000000000000000000000000000000000000000000000000000000\n                /* \"#utility.yul\":1424:1425   */\n              0x00\n                /* \"#utility.yul\":1417:1505   */\n              mstore\n                /* \"#utility.yul\":1524:1528   */\n              0x41\n                /* \"#utility.yul\":1521:1522   */\n              0x04\n                /* \"#utility.yul\":1514:1529   */\n              mstore\n                /* \"#utility.yul\":1548:1552   */\n              0x24\n                /* \"#utility.yul\":1545:1546   */\n              0x00\n                /* \"#utility.yul\":1538:1553   */\n              revert\n                /* \"#utility.yul\":1565:1846   */\n            tag_139:\n                /* \"#utility.yul\":1648:1675   */\n              tag_198\n                /* \"#utility.yul\":1670:1674   */\n              dup3\n                /* \"#utility.yul\":1648:1675   */\n              tag_137\n              jump\t// in\n            tag_198:\n                /* \"#utility.yul\":1640:1646   */\n              dup2\n                /* \"#utility.yul\":1636:1676   */\n              add\n                /* \"#utility.yul\":1778:1784   */\n              dup2\n                /* \"#utility.yul\":1766:1776   */\n              dup2\n                /* \"#utility.yul\":1763:1785   */\n              lt\n                /* \"#utility.yul\":1742:1760   */\n              0xffffffffffffffff\n                /* \"#utility.yul\":1730:1740   */\n              dup3\n                /* \"#utility.yul\":1727:1761   */\n              gt\n                /* \"#utility.yul\":1724:1786   */\n              or\n                /* \"#utility.yul\":1721:1809   */\n              iszero\n              tag_199\n              jumpi\n                /* \"#utility.yul\":1789:1807   */\n              tag_200\n              tag_138\n              jump\t// in\n            tag_200:\n                /* \"#utility.yul\":1721:1809   */\n            tag_199:\n                /* \"#utility.yul\":1829:1839   */\n              dup1\n                /* \"#utility.yul\":1825:1827   */\n              0x40\n                /* \"#utility.yul\":1818:1840   */\n              mstore\n                /* \"#utility.yul\":1608:1846   */\n              pop\n                /* \"#utility.yul\":1565:1846   */\n              pop\n              pop\n              jump\t// out\n                /* \"#utility.yul\":1852:1981   */\n            tag_140:\n                /* \"#utility.yul\":1886:1892   */\n              0x00\n                /* \"#utility.yul\":1913:1933   */\n              tag_202\n              tag_129\n              jump\t// in\n            tag_202:\n                /* \"#utility.yul\":1903:1933   */\n              swap1\n              pop\n                /* \"#utility.yul\":1942:1975   */\n              tag_203\n                /* \"#utility.yul\":1970:1974   */\n              dup3\n                /* \"#utility.yul\":1962:1968   */\n              dup3\n                /* \"#utility.yul\":1942:1975   */\n              tag_139\n              jump\t// in\n            tag_203:\n                /* \"#utility.yul\":1852:1981   */\n              swap2\n              swap1\n              pop\n              jump\t// out\n                /* \"#utility.yul\":1987:2295   */\n            tag_141:\n                /* \"#utility.yul\":2049:2053   */\n              0x00\n                /* \"#utility.yul\":2139:2157   */\n              0xffffffffffffffff\n                /* \"#utility.yul\":2131:2137   */\n              dup3\n                /* \"#utility.yul\":2128:2158   */\n              gt\n                /* \"#utility.yul\":2125:2181   */\n              iszero\n              tag_205\n              jumpi\n                /* \"#utility.yul\":2161:2179   */\n              tag_206\n              tag_138\n              jump\t// in\n            tag_206:\n                /* \"#utility.yul\":2125:2181   */\n            tag_205:\n                /* \"#utility.yul\":2199:2228   */\n              tag_207\n                /* \"#utility.yul\":2221:2227   */\n              dup3\n                /* \"#utility.yul\":2199:2228   */\n              tag_137\n              jump\t// in\n            tag_207:\n                /* \"#utility.yul\":2191:2228   */\n              swap1\n              pop\n                /* \"#utility.yul\":2283:2287   */\n              0x20\n                /* \"#utility.yul\":2277:2281   */\n              dup2\n                /* \"#utility.yul\":2273:2288   */\n              add\n                /* \"#utility.yul\":2265:2288   */\n              swap1\n              pop\n                /* \"#utility.yul\":1987:2295   */\n              swap2\n              swap1\n              pop\n              jump\t// out\n                /* \"#utility.yul\":2301:2455   */\n            tag_142:\n                /* \"#utility.yul\":2385:2391   */\n              dup3\n                /* \"#utility.yul\":2380:2383   */\n              dup2\n                /* \"#utility.yul\":2375:2378   */\n              dup4\n                /* \"#utility.yul\":2362:2392   */\n              calldatacopy\n                /* \"#utility.yul\":2447:2448   */\n              0x00\n                /* \"#utility.yul\":2438:2444   */\n              dup4\n                /* \"#utility.yul\":2433:2436   */\n              dup4\n                /* \"#utility.yul\":2429:2445   */\n              add\n                /* \"#utility.yul\":2422:2449   */\n              mstore\n                /* \"#utility.yul\":2301:2455   */\n              pop\n              pop\n              pop\n              jump\t// out\n                /* \"#utility.yul\":2461:2873   */\n            tag_143:\n                /* \"#utility.yul\":2539:2544   */\n              0x00\n                /* \"#utility.yul\":2564:2630   */\n              tag_210\n                /* \"#utility.yul\":2580:2629   */\n              tag_211\n                /* \"#utility.yul\":2622:2628   */\n              dup5\n                /* \"#utility.yul\":2580:2629   */\n              tag_141\n              jump\t// in\n            tag_211:\n                /* \"#utility.yul\":2564:2630   */\n              tag_140\n              jump\t// in\n            tag_210:\n                /* \"#utility.yul\":2555:2630   */\n              swap1\n              pop\n                /* \"#utility.yul\":2653:2659   */\n              dup3\n                /* \"#utility.yul\":2646:2651   */\n              dup2\n                /* \"#utility.yul\":2639:2660   */\n              mstore\n                /* \"#utility.yul\":2691:2695   */\n              0x20\n                /* \"#utility.yul\":2684:2689   */\n              dup2\n                /* \"#utility.yul\":2680:2696   */\n              add\n                /* \"#utility.yul\":2729:2732   */\n              dup5\n                /* \"#utility.yul\":2720:2726   */\n              dup5\n                /* \"#utility.yul\":2715:2718   */\n              dup5\n                /* \"#utility.yul\":2711:2727   */\n              add\n                /* \"#utility.yul\":2708:2733   */\n              gt\n                /* \"#utility.yul\":2705:2817   */\n              iszero\n              tag_212\n              jumpi\n                /* \"#utility.yul\":2736:2815   */\n              tag_213\n              tag_136\n              jump\t// in\n            tag_213:\n                /* \"#utility.yul\":2705:2817   */\n            tag_212:\n                /* \"#utility.yul\":2826:2867   */\n              tag_214\n                /* \"#utility.yul\":2860:2866   */\n              dup5\n                /* \"#utility.yul\":2855:2858   */\n              dup3\n                /* \"#utility.yul\":2850:2853   */\n              dup6\n                /* \"#utility.yul\":2826:2867   */\n              tag_142\n              jump\t// in\n            tag_214:\n                /* \"#utility.yul\":2545:2873   */\n              pop\n                /* \"#utility.yul\":2461:2873   */\n              swap4\n              swap3\n              pop\n              pop\n              pop\n              jump\t// out\n                /* \"#utility.yul\":2893:3233   */\n            tag_144:\n                /* \"#utility.yul\":2949:2954   */\n              0x00\n                /* \"#utility.yul\":2998:3001   */\n              dup3\n                /* \"#utility.yul\":2991:2995   */\n              0x1f\n                /* \"#utility.yul\":2983:2989   */\n              dup4\n                /* \"#utility.yul\":2979:2996   */\n              add\n                /* \"#utility.yul\":2975:3002   */\n              slt\n                /* \"#utility.yul\":2965:3087   */\n              tag_216\n              jumpi\n                /* \"#utility.yul\":3006:3085   */\n              tag_217\n              tag_135\n              jump\t// in\n            tag_217:\n                /* \"#utility.yul\":2965:3087   */\n            tag_216:\n                /* \"#utility.yul\":3123:3129   */\n              dup2\n                /* \"#utility.yul\":3110:3130   */\n              calldataload\n                /* \"#utility.yul\":3148:3227   */\n              tag_218\n                /* \"#utility.yul\":3223:3226   */\n              dup5\n                /* \"#utility.yul\":3215:3221   */\n              dup3\n                /* \"#utility.yul\":3208:3212   */\n              0x20\n                /* \"#utility.yul\":3200:3206   */\n              dup7\n                /* \"#utility.yul\":3196:3213   */\n              add\n                /* \"#utility.yul\":3148:3227   */\n              tag_143\n              jump\t// in\n            tag_218:\n                /* \"#utility.yul\":3139:3227   */\n              swap2\n              pop\n                /* \"#utility.yul\":2955:3233   */\n              pop\n                /* \"#utility.yul\":2893:3233   */\n              swap3\n              swap2\n              pop\n              pop\n              jump\t// out\n                /* \"#utility.yul\":3239:3365   */\n            tag_145:\n                /* \"#utility.yul\":3276:3283   */\n              0x00\n                /* \"#utility.yul\":3316:3358   */\n              0xffffffffffffffffffffffffffffffffffffffff\n                /* \"#utility.yul\":3309:3314   */\n              dup3\n                /* \"#utility.yul\":3305:3359   */\n              and\n                /* \"#utility.yul\":3294:3359   */\n              swap1\n              pop\n                /* \"#utility.yul\":3239:3365   */\n              swap2\n              swap1\n              pop\n              jump\t// out\n                /* \"#utility.yul\":3371:3467   */\n            tag_146:\n                /* \"#utility.yul\":3408:3415   */\n              0x00\n                /* \"#utility.yul\":3437:3461   */\n              tag_221\n                /* \"#utility.yul\":3455:3460   */\n              dup3\n                /* \"#utility.yul\":3437:3461   */\n              tag_145\n              jump\t// in\n            tag_221:\n                /* \"#utility.yul\":3426:3461   */\n              swap1\n              pop\n                /* \"#utility.yul\":3371:3467   */\n              swap2\n              swap1\n              pop\n              jump\t// out\n                /* \"#utility.yul\":3473:3595   */\n            tag_147:\n                /* \"#utility.yul\":3546:3570   */\n              tag_223\n                /* \"#utility.yul\":3564:3569   */\n              dup2\n                /* \"#utility.yul\":3546:3570   */\n              tag_146\n              jump\t// in\n            tag_223:\n                /* \"#utility.yul\":3539:3544   */\n              dup2\n                /* \"#utility.yul\":3536:3571   */\n              eq\n                /* \"#utility.yul\":3526:3589   */\n              tag_224\n              jumpi\n                /* \"#utility.yul\":3585:3586   */\n              0x00\n                /* \"#utility.yul\":3582:3583   */\n              dup1\n                /* \"#utility.yul\":3575:3587   */\n              revert\n                /* \"#utility.yul\":3526:3589   */\n            tag_224:\n                /* \"#utility.yul\":3473:3595   */\n              pop\n              jump\t// out\n                /* \"#utility.yul\":3601:3740   */\n            tag_148:\n                /* \"#utility.yul\":3647:3652   */\n              0x00\n                /* \"#utility.yul\":3685:3691   */\n              dup2\n                /* \"#utility.yul\":3672:3692   */\n              calldataload\n                /* \"#utility.yul\":3663:3692   */\n              swap1\n              pop\n                /* \"#utility.yul\":3701:3734   */\n              tag_226\n                /* \"#utility.yul\":3728:3733   */\n              dup2\n                /* \"#utility.yul\":3701:3734   */\n              tag_147\n              jump\t// in\n            tag_226:\n                /* \"#utility.yul\":3601:3740   */\n              swap3\n              swap2\n              pop\n              pop\n              jump\t// out\n                /* \"#utility.yul\":3746:4545   */\n            tag_21:\n                /* \"#utility.yul\":3833:3839   */\n              0x00\n                /* \"#utility.yul\":3841:3847   */\n              dup1\n                /* \"#utility.yul\":3849:3855   */\n              0x00\n                /* \"#utility.yul\":3898:3900   */\n              0x60\n                /* \"#utility.yul\":3886:3895   */\n              dup5\n                /* \"#utility.yul\":3877:3884   */\n              dup7\n                /* \"#utility.yul\":3873:3896   */\n              sub\n                /* \"#utility.yul\":3869:3901   */\n              slt\n                /* \"#utility.yul\":3866:3985   */\n              iszero\n              tag_228\n              jumpi\n                /* \"#utility.yul\":3904:3983   */\n              tag_229\n              tag_130\n              jump\t// in\n            tag_229:\n                /* \"#utility.yul\":3866:3985   */\n            tag_228:\n                /* \"#utility.yul\":4052:4053   */\n              0x00\n                /* \"#utility.yul\":4041:4050   */\n              dup5\n                /* \"#utility.yul\":4037:4054   */\n              add\n                /* \"#utility.yul\":4024:4055   */\n              calldataload\n                /* \"#utility.yul\":4082:4100   */\n              0xffffffffffffffff\n                /* \"#utility.yul\":4074:4080   */\n              dup2\n                /* \"#utility.yul\":4071:4101   */\n              gt\n                /* \"#utility.yul\":4068:4185   */\n              iszero\n              tag_230\n              jumpi\n                /* \"#utility.yul\":4104:4183   */\n              tag_231\n              tag_131\n              jump\t// in\n            tag_231:\n                /* \"#utility.yul\":4068:4185   */\n            tag_230:\n                /* \"#utility.yul\":4209:4272   */\n              tag_232\n                /* \"#utility.yul\":4264:4271   */\n              dup7\n                /* \"#utility.yul\":4255:4261   */\n              dup3\n                /* \"#utility.yul\":4244:4253   */\n              dup8\n                /* \"#utility.yul\":4240:4262   */\n              add\n                /* \"#utility.yul\":4209:4272   */\n              tag_144\n              jump\t// in\n            tag_232:\n                /* \"#utility.yul\":4199:4272   */\n              swap4\n              pop\n                /* \"#utility.yul\":3995:4282   */\n              pop\n                /* \"#utility.yul\":4321:4323   */\n              0x20\n                /* \"#utility.yul\":4347:4400   */\n              tag_233\n                /* \"#utility.yul\":4392:4399   */\n              dup7\n                /* \"#utility.yul\":4383:4389   */\n              dup3\n                /* \"#utility.yul\":4372:4381   */\n              dup8\n                /* \"#utility.yul\":4368:4390   */\n              add\n                /* \"#utility.yul\":4347:4400   */\n              tag_148\n              jump\t// in\n            tag_233:\n                /* \"#utility.yul\":4337:4400   */\n              swap3\n              pop\n                /* \"#utility.yul\":4292:4410   */\n              pop\n                /* \"#utility.yul\":4449:4451   */\n              0x40\n                /* \"#utility.yul\":4475:4528   */\n              tag_234\n                /* \"#utility.yul\":4520:4527   */\n              dup7\n                /* \"#utility.yul\":4511:4517   */\n              dup3\n                /* \"#utility.yul\":4500:4509   */\n              dup8\n                /* \"#utility.yul\":4496:4518   */\n              add\n                /* \"#utility.yul\":4475:4528   */\n              tag_134\n              jump\t// in\n            tag_234:\n                /* \"#utility.yul\":4465:4528   */\n              swap2\n              pop\n                /* \"#utility.yul\":4420:4538   */\n              pop\n                /* \"#utility.yul\":3746:4545   */\n              swap3\n              pop\n              swap3\n              pop\n              swap3\n              jump\t// out\n                /* \"#utility.yul\":4551:4880   */\n            tag_26:\n                /* \"#utility.yul\":4610:4616   */\n              0x00\n                /* \"#utility.yul\":4659:4661   */\n              0x20\n                /* \"#utility.yul\":4647:4656   */\n              dup3\n                /* \"#utility.yul\":4638:4645   */\n              dup5\n                /* \"#utility.yul\":4634:4657   */\n              sub\n                /* \"#utility.yul\":4630:4662   */\n              slt\n                /* \"#utility.yul\":4627:4746   */\n              iszero\n              tag_236\n              jumpi\n                /* \"#utility.yul\":4665:4744   */\n              tag_237\n              tag_130\n              jump\t// in\n            tag_237:\n                /* \"#utility.yul\":4627:4746   */\n            tag_236:\n                /* \"#utility.yul\":4785:4786   */\n              0x00\n                /* \"#utility.yul\":4810:4863   */\n              tag_238\n                /* \"#utility.yul\":4855:4862   */\n              dup5\n                /* \"#utility.yul\":4846:4852   */\n              dup3\n                /* \"#utility.yul\":4835:4844   */\n              dup6\n                /* \"#utility.yul\":4831:4853   */\n              add\n                /* \"#utility.yul\":4810:4863   */\n              tag_148\n              jump\t// in\n            tag_238:\n                /* \"#utility.yul\":4800:4863   */\n              swap2\n              pop\n                /* \"#utility.yul\":4756:4873   */\n              pop\n                /* \"#utility.yul\":4551:4880   */\n              swap3\n              swap2\n              pop\n              pop\n              jump\t// out\n                /* \"#utility.yul\":4886:4976   */\n            tag_149:\n                /* \"#utility.yul\":4920:4927   */\n              0x00\n                /* \"#utility.yul\":4963:4968   */\n              dup2\n                /* \"#utility.yul\":4956:4969   */\n              iszero\n                /* \"#utility.yul\":4949:4970   */\n              iszero\n                /* \"#utility.yul\":4938:4970   */\n              swap1\n              pop\n                /* \"#utility.yul\":4886:4976   */\n              swap2\n              swap1\n              pop\n              jump\t// out\n                /* \"#utility.yul\":4982:5091   */\n            tag_150:\n                /* \"#utility.yul\":5063:5084   */\n              tag_241\n                /* \"#utility.yul\":5078:5083   */\n              dup2\n                /* \"#utility.yul\":5063:5084   */\n              tag_149\n              jump\t// in\n            tag_241:\n                /* \"#utility.yul\":5058:5061   */\n              dup3\n                /* \"#utility.yul\":5051:5085   */\n              mstore\n                /* \"#utility.yul\":4982:5091   */\n              pop\n              pop\n              jump\t// out\n                /* \"#utility.yul\":5097:5307   */\n            tag_29:\n                /* \"#utility.yul\":5184:5188   */\n              0x00\n                /* \"#utility.yul\":5222:5224   */\n              0x20\n                /* \"#utility.yul\":5211:5220   */\n              dup3\n                /* \"#utility.yul\":5207:5225   */\n              add\n                /* \"#utility.yul\":5199:5225   */\n              swap1\n              pop\n                /* \"#utility.yul\":5235:5300   */\n              tag_243\n                /* \"#utility.yul\":5297:5298   */\n              0x00\n                /* \"#utility.yul\":5286:5295   */\n              dup4\n                /* \"#utility.yul\":5282:5299   */\n              add\n                /* \"#utility.yul\":5273:5279   */\n              dup5\n                /* \"#utility.yul\":5235:5300   */\n              tag_150\n              jump\t// in\n            tag_243:\n                /* \"#utility.yul\":5097:5307   */\n              swap3\n              swap2\n              pop\n              pop\n              jump\t// out\n                /* \"#utility.yul\":5313:5431   */\n            tag_151:\n                /* \"#utility.yul\":5400:5424   */\n              tag_245\n                /* \"#utility.yul\":5418:5423   */\n              dup2\n                /* \"#utility.yul\":5400:5424   */\n              tag_146\n              jump\t// in\n            tag_245:\n                /* \"#utility.yul\":5395:5398   */\n              dup3\n                /* \"#utility.yul\":5388:5425   */\n              mstore\n                /* \"#utility.yul\":5313:5431   */\n              pop\n              pop\n              jump\t// out\n                /* \"#utility.yul\":5437:5659   */\n            tag_34:\n                /* \"#utility.yul\":5530:5534   */\n              0x00\n                /* \"#utility.yul\":5568:5570   */\n              0x20\n                /* \"#utility.yul\":5557:5566   */\n              dup3\n                /* \"#utility.yul\":5553:5571   */\n              add\n                /* \"#utility.yul\":5545:5571   */\n              swap1\n              pop\n                /* \"#utility.yul\":5581:5652   */\n              tag_247\n                /* \"#utility.yul\":5649:5650   */\n              0x00\n                /* \"#utility.yul\":5638:5647   */\n              dup4\n                /* \"#utility.yul\":5634:5651   */\n              add\n                /* \"#utility.yul\":5625:5631   */\n              dup5\n                /* \"#utility.yul\":5581:5652   */\n              tag_151\n              jump\t// in\n            tag_247:\n                /* \"#utility.yul\":5437:5659   */\n              swap3\n              swap2\n              pop\n              pop\n              jump\t// out\n                /* \"#utility.yul\":5665:5783   */\n            tag_152:\n                /* \"#utility.yul\":5752:5776   */\n              tag_249\n                /* \"#utility.yul\":5770:5775   */\n              dup2\n                /* \"#utility.yul\":5752:5776   */\n              tag_132\n              jump\t// in\n            tag_249:\n                /* \"#utility.yul\":5747:5750   */\n              dup3\n                /* \"#utility.yul\":5740:5777   */\n              mstore\n                /* \"#utility.yul\":5665:5783   */\n              pop\n              pop\n              jump\t// out\n                /* \"#utility.yul\":5789:6011   */\n            tag_39:\n                /* \"#utility.yul\":5882:5886   */\n              0x00\n                /* \"#utility.yul\":5920:5922   */\n              0x20\n                /* \"#utility.yul\":5909:5918   */\n              dup3\n                /* \"#utility.yul\":5905:5923   */\n              add\n                /* \"#utility.yul\":5897:5923   */\n              swap1\n              pop\n                /* \"#utility.yul\":5933:6004   */\n              tag_251\n                /* \"#utility.yul\":6001:6002   */\n              0x00\n                /* \"#utility.yul\":5990:5999   */\n              dup4\n                /* \"#utility.yul\":5986:6003   */\n              add\n                /* \"#utility.yul\":5977:5983   */\n              dup5\n                /* \"#utility.yul\":5933:6004   */\n              tag_152\n              jump\t// in\n            tag_251:\n                /* \"#utility.yul\":5789:6011   */\n              swap3\n              swap2\n              pop\n              pop\n              jump\t// out\n                /* \"#utility.yul\":6017:6116   */\n            tag_153:\n                /* \"#utility.yul\":6069:6075   */\n              0x00\n                /* \"#utility.yul\":6103:6108   */\n              dup2\n                /* \"#utility.yul\":6097:6109   */\n              mload\n                /* \"#utility.yul\":6087:6109   */\n              swap1\n              pop\n                /* \"#utility.yul\":6017:6116   */\n              swap2\n              swap1\n              pop\n              jump\t// out\n                /* \"#utility.yul\":6122:6291   */\n            tag_154:\n                /* \"#utility.yul\":6206:6217   */\n              0x00\n                /* \"#utility.yul\":6240:6246   */\n              dup3\n                /* \"#utility.yul\":6235:6238   */\n              dup3\n                /* \"#utility.yul\":6228:6247   */\n              mstore\n                /* \"#utility.yul\":6280:6284   */\n              0x20\n                /* \"#utility.yul\":6275:6278   */\n              dup3\n                /* \"#utility.yul\":6271:6285   */\n              add\n                /* \"#utility.yul\":6256:6285   */\n              swap1\n              pop\n                /* \"#utility.yul\":6122:6291   */\n              swap3\n              swap2\n              pop\n              pop\n              jump\t// out\n                /* \"#utility.yul\":6297:6604   */\n            tag_155:\n                /* \"#utility.yul\":6365:6366   */\n              0x00\n                /* \"#utility.yul\":6375:6488   */\n            tag_255:\n                /* \"#utility.yul\":6389:6395   */\n              dup4\n                /* \"#utility.yul\":6386:6387   */\n              dup2\n                /* \"#utility.yul\":6383:6396   */\n              lt\n                /* \"#utility.yul\":6375:6488   */\n              iszero\n              tag_257\n              jumpi\n                /* \"#utility.yul\":6474:6475   */\n              dup1\n                /* \"#utility.yul\":6469:6472   */\n              dup3\n                /* \"#utility.yul\":6465:6476   */\n              add\n                /* \"#utility.yul\":6459:6477   */\n              mload\n                /* \"#utility.yul\":6455:6456   */\n              dup2\n                /* \"#utility.yul\":6450:6453   */\n              dup5\n                /* \"#utility.yul\":6446:6457   */\n              add\n                /* \"#utility.yul\":6439:6478   */\n              mstore\n                /* \"#utility.yul\":6411:6413   */\n              0x20\n                /* \"#utility.yul\":6408:6409   */\n              dup2\n                /* \"#utility.yul\":6404:6414   */\n              add\n                /* \"#utility.yul\":6399:6414   */\n              swap1\n              pop\n                /* \"#utility.yul\":6375:6488   */\n              jump(tag_255)\n            tag_257:\n                /* \"#utility.yul\":6506:6512   */\n              dup4\n                /* \"#utility.yul\":6503:6504   */\n              dup2\n                /* \"#utility.yul\":6500:6513   */\n              gt\n                /* \"#utility.yul\":6497:6598   */\n              iszero\n              tag_258\n              jumpi\n                /* \"#utility.yul\":6586:6587   */\n              0x00\n                /* \"#utility.yul\":6577:6583   */\n              dup5\n                /* \"#utility.yul\":6572:6575   */\n              dup5\n                /* \"#utility.yul\":6568:6584   */\n              add\n                /* \"#utility.yul\":6561:6588   */\n              mstore\n                /* \"#utility.yul\":6497:6598   */\n            tag_258:\n                /* \"#utility.yul\":6346:6604   */\n              pop\n                /* \"#utility.yul\":6297:6604   */\n              pop\n              pop\n              pop\n              jump\t// out\n                /* \"#utility.yul\":6610:6974   */\n            tag_156:\n                /* \"#utility.yul\":6698:6701   */\n              0x00\n                /* \"#utility.yul\":6726:6765   */\n              tag_260\n                /* \"#utility.yul\":6759:6764   */\n              dup3\n                /* \"#utility.yul\":6726:6765   */\n              tag_153\n              jump\t// in\n            tag_260:\n                /* \"#utility.yul\":6781:6852   */\n              tag_261\n                /* \"#utility.yul\":6845:6851   */\n              dup2\n                /* \"#utility.yul\":6840:6843   */\n              dup6\n                /* \"#utility.yul\":6781:6852   */\n              tag_154\n              jump\t// in\n            tag_261:\n                /* \"#utility.yul\":6774:6852   */\n              swap4\n              pop\n                /* \"#utility.yul\":6861:6913   */\n              tag_262\n                /* \"#utility.yul\":6906:6912   */\n              dup2\n                /* \"#utility.yul\":6901:6904   */\n              dup6\n                /* \"#utility.yul\":6894:6898   */\n              0x20\n                /* \"#utility.yul\":6887:6892   */\n              dup7\n                /* \"#utility.yul\":6883:6899   */\n              add\n                /* \"#utility.yul\":6861:6913   */\n              tag_155\n              jump\t// in\n            tag_262:\n                /* \"#utility.yul\":6938:6967   */\n              tag_263\n                /* \"#utility.yul\":6960:6966   */\n              dup2\n                /* \"#utility.yul\":6938:6967   */\n              tag_137\n              jump\t// in\n            tag_263:\n                /* \"#utility.yul\":6933:6936   */\n              dup5\n                /* \"#utility.yul\":6929:6968   */\n              add\n                /* \"#utility.yul\":6922:6968   */\n              swap2\n              pop\n                /* \"#utility.yul\":6702:6974   */\n              pop\n                /* \"#utility.yul\":6610:6974   */\n              swap3\n              swap2\n              pop\n              pop\n              jump\t// out\n                /* \"#utility.yul\":6980:7084   */\n            tag_157:\n                /* \"#utility.yul\":7025:7032   */\n              0x00\n                /* \"#utility.yul\":7054:7078   */\n              tag_265\n                /* \"#utility.yul\":7072:7077   */\n              dup3\n                /* \"#utility.yul\":7054:7078   */\n              tag_145\n              jump\t// in\n            tag_265:\n                /* \"#utility.yul\":7043:7078   */\n              swap1\n              pop\n                /* \"#utility.yul\":6980:7084   */\n              swap2\n              swap1\n              pop\n              jump\t// out\n                /* \"#utility.yul\":7090:7232   */\n            tag_158:\n                /* \"#utility.yul\":7193:7225   */\n              tag_267\n                /* \"#utility.yul\":7219:7224   */\n              dup2\n                /* \"#utility.yul\":7193:7225   */\n              tag_157\n              jump\t// in\n            tag_267:\n                /* \"#utility.yul\":7188:7191   */\n              dup3\n                /* \"#utility.yul\":7181:7226   */\n              mstore\n                /* \"#utility.yul\":7090:7232   */\n              pop\n              pop\n              jump\t// out\n                /* \"#utility.yul\":7238:8013   */\n            tag_45:\n                /* \"#utility.yul\":7473:7477   */\n              0x00\n                /* \"#utility.yul\":7511:7514   */\n              0xa0\n                /* \"#utility.yul\":7500:7509   */\n              dup3\n                /* \"#utility.yul\":7496:7515   */\n              add\n                /* \"#utility.yul\":7488:7515   */\n              swap1\n              pop\n                /* \"#utility.yul\":7561:7570   */\n              dup2\n                /* \"#utility.yul\":7555:7559   */\n              dup2\n                /* \"#utility.yul\":7551:7571   */\n              sub\n                /* \"#utility.yul\":7547:7548   */\n              0x00\n                /* \"#utility.yul\":7536:7545   */\n              dup4\n                /* \"#utility.yul\":7532:7549   */\n              add\n                /* \"#utility.yul\":7525:7572   */\n              mstore\n                /* \"#utility.yul\":7589:7667   */\n              tag_269\n                /* \"#utility.yul\":7662:7666   */\n              dup2\n                /* \"#utility.yul\":7653:7659   */\n              dup9\n                /* \"#utility.yul\":7589:7667   */\n              tag_156\n              jump\t// in\n            tag_269:\n                /* \"#utility.yul\":7581:7667   */\n              swap1\n              pop\n                /* \"#utility.yul\":7677:7765   */\n              tag_270\n                /* \"#utility.yul\":7761:7763   */\n              0x20\n                /* \"#utility.yul\":7750:7759   */\n              dup4\n                /* \"#utility.yul\":7746:7764   */\n              add\n                /* \"#utility.yul\":7737:7743   */\n              dup8\n                /* \"#utility.yul\":7677:7765   */\n              tag_158\n              jump\t// in\n            tag_270:\n                /* \"#utility.yul\":7775:7847   */\n              tag_271\n                /* \"#utility.yul\":7843:7845   */\n              0x40\n                /* \"#utility.yul\":7832:7841   */\n              dup4\n                /* \"#utility.yul\":7828:7846   */\n              add\n                /* \"#utility.yul\":7819:7825   */\n              dup7\n                /* \"#utility.yul\":7775:7847   */\n              tag_152\n              jump\t// in\n            tag_271:\n                /* \"#utility.yul\":7857:7923   */\n              tag_272\n                /* \"#utility.yul\":7919:7921   */\n              0x60\n                /* \"#utility.yul\":7908:7917   */\n              dup4\n                /* \"#utility.yul\":7904:7922   */\n              add\n                /* \"#utility.yul\":7895:7901   */\n              dup6\n                /* \"#utility.yul\":7857:7923   */\n              tag_150\n              jump\t// in\n            tag_272:\n                /* \"#utility.yul\":7933:8006   */\n              tag_273\n                /* \"#utility.yul\":8001:8004   */\n              0x80\n                /* \"#utility.yul\":7990:7999   */\n              dup4\n                /* \"#utility.yul\":7986:8005   */\n              add\n                /* \"#utility.yul\":7977:7983   */\n              dup5\n                /* \"#utility.yul\":7933:8006   */\n              tag_152\n              jump\t// in\n            tag_273:\n                /* \"#utility.yul\":7238:8013   */\n              swap7\n              swap6\n              pop\n              pop\n              pop\n              pop\n              pop\n              pop\n              jump\t// out\n                /* \"#utility.yul\":8019:8192   */\n            tag_159:\n                /* \"#utility.yul\":8159:8184   */\n              0x43616c6c6572206973206e6f742061206d616e61676572000000000000000000\n                /* \"#utility.yul\":8155:8156   */\n              0x00\n                /* \"#utility.yul\":8147:8153   */\n              dup3\n                /* \"#utility.yul\":8143:8157   */\n              add\n                /* \"#utility.yul\":8136:8185   */\n              mstore\n                /* \"#utility.yul\":8019:8192   */\n              pop\n              jump\t// out\n                /* \"#utility.yul\":8198:8564   */\n            tag_160:\n                /* \"#utility.yul\":8340:8343   */\n              0x00\n                /* \"#utility.yul\":8361:8428   */\n              tag_276\n                /* \"#utility.yul\":8425:8427   */\n              0x17\n                /* \"#utility.yul\":8420:8423   */\n              dup4\n                /* \"#utility.yul\":8361:8428   */\n              tag_154\n              jump\t// in\n            tag_276:\n                /* \"#utility.yul\":8354:8428   */\n              swap2\n              pop\n                /* \"#utility.yul\":8437:8530   */\n              tag_277\n                /* \"#utility.yul\":8526:8529   */\n              dup3\n                /* \"#utility.yul\":8437:8530   */\n              tag_159\n              jump\t// in\n            tag_277:\n                /* \"#utility.yul\":8555:8557   */\n              0x20\n                /* \"#utility.yul\":8550:8553   */\n              dup3\n                /* \"#utility.yul\":8546:8558   */\n              add\n                /* \"#utility.yul\":8539:8558   */\n              swap1\n              pop\n                /* \"#utility.yul\":8198:8564   */\n              swap2\n              swap1\n              pop\n              jump\t// out\n                /* \"#utility.yul\":8570:8989   */\n            tag_63:\n                /* \"#utility.yul\":8736:8740   */\n              0x00\n                /* \"#utility.yul\":8774:8776   */\n              0x20\n                /* \"#utility.yul\":8763:8772   */\n              dup3\n                /* \"#utility.yul\":8759:8777   */\n              add\n                /* \"#utility.yul\":8751:8777   */\n              swap1\n              pop\n                /* \"#utility.yul\":8823:8832   */\n              dup2\n                /* \"#utility.yul\":8817:8821   */\n              dup2\n                /* \"#utility.yul\":8813:8833   */\n              sub\n                /* \"#utility.yul\":8809:8810   */\n              0x00\n                /* \"#utility.yul\":8798:8807   */\n              dup4\n                /* \"#utility.yul\":8794:8811   */\n              add\n                /* \"#utility.yul\":8787:8834   */\n              mstore\n                /* \"#utility.yul\":8851:8982   */\n              tag_279\n                /* \"#utility.yul\":8977:8981   */\n              dup2\n                /* \"#utility.yul\":8851:8982   */\n              tag_160\n              jump\t// in\n            tag_279:\n                /* \"#utility.yul\":8843:8982   */\n              swap1\n              pop\n                /* \"#utility.yul\":8570:8989   */\n              swap2\n              swap1\n              pop\n              jump\t// out\n                /* \"#utility.yul\":8995:9175   */\n            tag_67:\n                /* \"#utility.yul\":9043:9120   */\n              0x4e487b7100000000000000000000000000000000000000000000000000000000\n                /* \"#utility.yul\":9040:9041   */\n              0x00\n                /* \"#utility.yul\":9033:9121   */\n              mstore\n                /* \"#utility.yul\":9140:9144   */\n              0x32\n                /* \"#utility.yul\":9137:9138   */\n              0x04\n                /* \"#utility.yul\":9130:9145   */\n              mstore\n                /* \"#utility.yul\":9164:9168   */\n              0x24\n                /* \"#utility.yul\":9161:9162   */\n              0x00\n                /* \"#utility.yul\":9154:9169   */\n              revert\n                /* \"#utility.yul\":9181:9351   */\n            tag_161:\n                /* \"#utility.yul\":9321:9343   */\n              0x5265717565737420697320636f6d706c65746564000000000000000000000000\n                /* \"#utility.yul\":9317:9318   */\n              0x00\n                /* \"#utility.yul\":9309:9315   */\n              dup3\n                /* \"#utility.yul\":9305:9319   */\n              add\n                /* \"#utility.yul\":9298:9344   */\n              mstore\n                /* \"#utility.yul\":9181:9351   */\n              pop\n              jump\t// out\n                /* \"#utility.yul\":9357:9723   */\n            tag_162:\n                /* \"#utility.yul\":9499:9502   */\n              0x00\n                /* \"#utility.yul\":9520:9587   */\n              tag_283\n                /* \"#utility.yul\":9584:9586   */\n              0x14\n                /* \"#utility.yul\":9579:9582   */\n              dup4\n                /* \"#utility.yul\":9520:9587   */\n              tag_154\n              jump\t// in\n            tag_283:\n                /* \"#utility.yul\":9513:9587   */\n              swap2\n              pop\n                /* \"#utility.yul\":9596:9689   */\n              tag_284\n                /* \"#utility.yul\":9685:9688   */\n              dup3\n                /* \"#utility.yul\":9596:9689   */\n              tag_161\n              jump\t// in\n            tag_284:\n                /* \"#utility.yul\":9714:9716   */\n              0x20\n                /* \"#utility.yul\":9709:9712   */\n              dup3\n                /* \"#utility.yul\":9705:9717   */\n              add\n                /* \"#utility.yul\":9698:9717   */\n              swap1\n              pop\n                /* \"#utility.yul\":9357:9723   */\n              swap2\n              swap1\n              pop\n              jump\t// out\n                /* \"#utility.yul\":9729:10148   */\n            tag_71:\n                /* \"#utility.yul\":9895:9899   */\n              0x00\n                /* \"#utility.yul\":9933:9935   */\n              0x20\n                /* \"#utility.yul\":9922:9931   */\n              dup3\n                /* \"#utility.yul\":9918:9936   */\n              add\n                /* \"#utility.yul\":9910:9936   */\n              swap1\n              pop\n                /* \"#utility.yul\":9982:9991   */\n              dup2\n                /* \"#utility.yul\":9976:9980   */\n              dup2\n                /* \"#utility.yul\":9972:9992   */\n              sub\n                /* \"#utility.yul\":9968:9969   */\n              0x00\n                /* \"#utility.yul\":9957:9966   */\n              dup4\n                /* \"#utility.yul\":9953:9970   */\n              add\n                /* \"#utility.yul\":9946:9993   */\n              mstore\n                /* \"#utility.yul\":10010:10141   */\n              tag_286\n                /* \"#utility.yul\":10136:10140   */\n              dup2\n                /* \"#utility.yul\":10010:10141   */\n              tag_162\n              jump\t// in\n            tag_286:\n                /* \"#utility.yul\":10002:10141   */\n              swap1\n              pop\n                /* \"#utility.yul\":9729:10148   */\n              swap2\n              swap1\n              pop\n              jump\t// out\n                /* \"#utility.yul\":10154:10334   */\n            tag_163:\n                /* \"#utility.yul\":10202:10279   */\n              0x4e487b7100000000000000000000000000000000000000000000000000000000\n                /* \"#utility.yul\":10199:10200   */\n              0x00\n                /* \"#utility.yul\":10192:10280   */\n              mstore\n                /* \"#utility.yul\":10299:10303   */\n              0x12\n                /* \"#utility.yul\":10296:10297   */\n              0x04\n                /* \"#utility.yul\":10289:10304   */\n              mstore\n                /* \"#utility.yul\":10323:10327   */\n              0x24\n                /* \"#utility.yul\":10320:10321   */\n              0x00\n                /* \"#utility.yul\":10313:10328   */\n              revert\n                /* \"#utility.yul\":10340:10520   */\n            tag_164:\n                /* \"#utility.yul\":10388:10465   */\n              0x4e487b7100000000000000000000000000000000000000000000000000000000\n                /* \"#utility.yul\":10385:10386   */\n              0x00\n                /* \"#utility.yul\":10378:10466   */\n              mstore\n                /* \"#utility.yul\":10485:10489   */\n              0x11\n                /* \"#utility.yul\":10482:10483   */\n              0x04\n                /* \"#utility.yul\":10475:10490   */\n              mstore\n                /* \"#utility.yul\":10509:10513   */\n              0x24\n                /* \"#utility.yul\":10506:10507   */\n              0x00\n                /* \"#utility.yul\":10499:10514   */\n              revert\n                /* \"#utility.yul\":10526:10711   */\n            tag_73:\n                /* \"#utility.yul\":10566:10567   */\n              0x00\n                /* \"#utility.yul\":10583:10603   */\n              tag_290\n                /* \"#utility.yul\":10601:10602   */\n              dup3\n                /* \"#utility.yul\":10583:10603   */\n              tag_132\n              jump\t// in\n            tag_290:\n                /* \"#utility.yul\":10578:10603   */\n              swap2\n              pop\n                /* \"#utility.yul\":10617:10637   */\n              tag_291\n                /* \"#utility.yul\":10635:10636   */\n              dup4\n                /* \"#utility.yul\":10617:10637   */\n              tag_132\n              jump\t// in\n            tag_291:\n                /* \"#utility.yul\":10612:10637   */\n              swap3\n              pop\n                /* \"#utility.yul\":10656:10657   */\n              dup3\n                /* \"#utility.yul\":10646:10681   */\n              tag_292\n              jumpi\n                /* \"#utility.yul\":10661:10679   */\n              tag_293\n              tag_163\n              jump\t// in\n            tag_293:\n                /* \"#utility.yul\":10646:10681   */\n            tag_292:\n                /* \"#utility.yul\":10703:10704   */\n              dup3\n                /* \"#utility.yul\":10700:10701   */\n              dup3\n                /* \"#utility.yul\":10696:10705   */\n              div\n                /* \"#utility.yul\":10691:10705   */\n              swap1\n              pop\n                /* \"#utility.yul\":10526:10711   */\n              swap3\n              swap2\n              pop\n              pop\n              jump\t// out\n                /* \"#utility.yul\":10717:10937   */\n            tag_165:\n                /* \"#utility.yul\":10857:10891   */\n              0x5265717565737420686173206e6f7420656e6f7567687420617070726f76616c\n                /* \"#utility.yul\":10853:10854   */\n              0x00\n                /* \"#utility.yul\":10845:10851   */\n              dup3\n                /* \"#utility.yul\":10841:10855   */\n              add\n                /* \"#utility.yul\":10834:10892   */\n              mstore\n                /* \"#utility.yul\":10926:10929   */\n              0x7300000000000000000000000000000000000000000000000000000000000000\n                /* \"#utility.yul\":10921:10923   */\n              0x20\n                /* \"#utility.yul\":10913:10919   */\n              dup3\n                /* \"#utility.yul\":10909:10924   */\n              add\n                /* \"#utility.yul\":10902:10930   */\n              mstore\n                /* \"#utility.yul\":10717:10937   */\n              pop\n              jump\t// out\n                /* \"#utility.yul\":10943:11309   */\n            tag_166:\n                /* \"#utility.yul\":11085:11088   */\n              0x00\n                /* \"#utility.yul\":11106:11173   */\n              tag_296\n                /* \"#utility.yul\":11170:11172   */\n              0x21\n                /* \"#utility.yul\":11165:11168   */\n              dup4\n                /* \"#utility.yul\":11106:11173   */\n              tag_154\n              jump\t// in\n            tag_296:\n                /* \"#utility.yul\":11099:11173   */\n              swap2\n              pop\n                /* \"#utility.yul\":11182:11275   */\n              tag_297\n                /* \"#utility.yul\":11271:11274   */\n              dup3\n                /* \"#utility.yul\":11182:11275   */\n              tag_165\n              jump\t// in\n            tag_297:\n                /* \"#utility.yul\":11300:11302   */\n              0x40\n                /* \"#utility.yul\":11295:11298   */\n              dup3\n                /* \"#utility.yul\":11291:11303   */\n              add\n                /* \"#utility.yul\":11284:11303   */\n              swap1\n              pop\n                /* \"#utility.yul\":10943:11309   */\n              swap2\n              swap1\n              pop\n              jump\t// out\n                /* \"#utility.yul\":11315:11734   */\n            tag_76:\n                /* \"#utility.yul\":11481:11485   */\n              0x00\n                /* \"#utility.yul\":11519:11521   */\n              0x20\n                /* \"#utility.yul\":11508:11517   */\n              dup3\n                /* \"#utility.yul\":11504:11522   */\n              add\n                /* \"#utility.yul\":11496:11522   */\n              swap1\n              pop\n                /* \"#utility.yul\":11568:11577   */\n              dup2\n                /* \"#utility.yul\":11562:11566   */\n              dup2\n                /* \"#utility.yul\":11558:11578   */\n              sub\n                /* \"#utility.yul\":11554:11555   */\n              0x00\n                /* \"#utility.yul\":11543:11552   */\n              dup4\n                /* \"#utility.yul\":11539:11556   */\n              add\n                /* \"#utility.yul\":11532:11579   */\n              mstore\n                /* \"#utility.yul\":11596:11727   */\n              tag_299\n                /* \"#utility.yul\":11722:11726   */\n              dup2\n                /* \"#utility.yul\":11596:11727   */\n              tag_166\n              jump\t// in\n            tag_299:\n                /* \"#utility.yul\":11588:11727   */\n              swap1\n              pop\n                /* \"#utility.yul\":11315:11734   */\n              swap2\n              swap1\n              pop\n              jump\t// out\n                /* \"#utility.yul\":11740:11887   */\n            tag_167:\n                /* \"#utility.yul\":11841:11852   */\n              0x00\n                /* \"#utility.yul\":11878:11881   */\n              dup2\n                /* \"#utility.yul\":11863:11881   */\n              swap1\n              pop\n                /* \"#utility.yul\":11740:11887   */\n              swap3\n              swap2\n              pop\n              pop\n              jump\t// out\n                /* \"#utility.yul\":11893:12007   */\n            tag_168:\n              pop\n              jump\t// out\n                /* \"#utility.yul\":12013:12411   */\n            tag_169:\n                /* \"#utility.yul\":12172:12175   */\n              0x00\n                /* \"#utility.yul\":12193:12276   */\n              tag_303\n                /* \"#utility.yul\":12274:12275   */\n              0x00\n                /* \"#utility.yul\":12269:12272   */\n              dup4\n                /* \"#utility.yul\":12193:12276   */\n              tag_167\n              jump\t// in\n            tag_303:\n                /* \"#utility.yul\":12186:12276   */\n              swap2\n              pop\n                /* \"#utility.yul\":12285:12378   */\n              tag_304\n                /* \"#utility.yul\":12374:12377   */\n              dup3\n                /* \"#utility.yul\":12285:12378   */\n              tag_168\n              jump\t// in\n            tag_304:\n                /* \"#utility.yul\":12403:12404   */\n              0x00\n                /* \"#utility.yul\":12398:12401   */\n              dup3\n                /* \"#utility.yul\":12394:12405   */\n              add\n                /* \"#utility.yul\":12387:12405   */\n              swap1\n              pop\n                /* \"#utility.yul\":12013:12411   */\n              swap2\n              swap1\n              pop\n              jump\t// out\n                /* \"#utility.yul\":12417:12796   */\n            tag_78:\n                /* \"#utility.yul\":12601:12604   */\n              0x00\n                /* \"#utility.yul\":12623:12770   */\n              tag_306\n                /* \"#utility.yul\":12766:12769   */\n              dup3\n                /* \"#utility.yul\":12623:12770   */\n              tag_169\n              jump\t// in\n            tag_306:\n                /* \"#utility.yul\":12616:12770   */\n              swap2\n              pop\n                /* \"#utility.yul\":12787:12790   */\n              dup2\n                /* \"#utility.yul\":12780:12790   */\n              swap1\n              pop\n                /* \"#utility.yul\":12417:12796   */\n              swap2\n              swap1\n              pop\n              jump\t// out\n                /* \"#utility.yul\":12802:12975   */\n            tag_170:\n                /* \"#utility.yul\":12942:12967   */\n              0x4661696c75726521204574686572206e6f742073656e74000000000000000000\n                /* \"#utility.yul\":12938:12939   */\n              0x00\n                /* \"#utility.yul\":12930:12936   */\n              dup3\n                /* \"#utility.yul\":12926:12940   */\n              add\n                /* \"#utility.yul\":12919:12968   */\n              mstore\n                /* \"#utility.yul\":12802:12975   */\n              pop\n              jump\t// out\n                /* \"#utility.yul\":12981:13347   */\n            tag_171:\n                /* \"#utility.yul\":13123:13126   */\n              0x00\n                /* \"#utility.yul\":13144:13211   */\n              tag_309\n                /* \"#utility.yul\":13208:13210   */\n              0x17\n                /* \"#utility.yul\":13203:13206   */\n              dup4\n                /* \"#utility.yul\":13144:13211   */\n              tag_154\n              jump\t// in\n            tag_309:\n                /* \"#utility.yul\":13137:13211   */\n              swap2\n              pop\n                /* \"#utility.yul\":13220:13313   */\n              tag_310\n                /* \"#utility.yul\":13309:13312   */\n              dup3\n                /* \"#utility.yul\":13220:13313   */\n              tag_170\n              jump\t// in\n            tag_310:\n                /* \"#utility.yul\":13338:13340   */\n              0x20\n                /* \"#utility.yul\":13333:13336   */\n              dup3\n                /* \"#utility.yul\":13329:13341   */\n              add\n                /* \"#utility.yul\":13322:13341   */\n              swap1\n              pop\n                /* \"#utility.yul\":12981:13347   */\n              swap2\n              swap1\n              pop\n              jump\t// out\n                /* \"#utility.yul\":13353:13772   */\n            tag_84:\n                /* \"#utility.yul\":13519:13523   */\n              0x00\n                /* \"#utility.yul\":13557:13559   */\n              0x20\n                /* \"#utility.yul\":13546:13555   */\n              dup3\n                /* \"#utility.yul\":13542:13560   */\n              add\n                /* \"#utility.yul\":13534:13560   */\n              swap1\n              pop\n                /* \"#utility.yul\":13606:13615   */\n              dup2\n                /* \"#utility.yul\":13600:13604   */\n              dup2\n                /* \"#utility.yul\":13596:13616   */\n              sub\n                /* \"#utility.yul\":13592:13593   */\n              0x00\n                /* \"#utility.yul\":13581:13590   */\n              dup4\n                /* \"#utility.yul\":13577:13594   */\n              add\n                /* \"#utility.yul\":13570:13617   */\n              mstore\n                /* \"#utility.yul\":13634:13765   */\n              tag_312\n                /* \"#utility.yul\":13760:13764   */\n              dup2\n                /* \"#utility.yul\":13634:13765   */\n              tag_171\n              jump\t// in\n            tag_312:\n                /* \"#utility.yul\":13626:13765   */\n              swap1\n              pop\n                /* \"#utility.yul\":13353:13772   */\n              swap2\n              swap1\n              pop\n              jump\t// out\n                /* \"#utility.yul\":13778:13958   */\n            tag_172:\n                /* \"#utility.yul\":13826:13903   */\n              0x4e487b7100000000000000000000000000000000000000000000000000000000\n                /* \"#utility.yul\":13823:13824   */\n              0x00\n                /* \"#utility.yul\":13816:13904   */\n              mstore\n                /* \"#utility.yul\":13923:13927   */\n              0x22\n                /* \"#utility.yul\":13920:13921   */\n              0x04\n                /* \"#utility.yul\":13913:13928   */\n              mstore\n                /* \"#utility.yul\":13947:13951   */\n              0x24\n                /* \"#utility.yul\":13944:13945   */\n              0x00\n                /* \"#utility.yul\":13937:13952   */\n              revert\n                /* \"#utility.yul\":13964:14284   */\n            tag_95:\n                /* \"#utility.yul\":14008:14014   */\n              0x00\n                /* \"#utility.yul\":14045:14046   */\n              0x02\n                /* \"#utility.yul\":14039:14043   */\n              dup3\n                /* \"#utility.yul\":14035:14047   */\n              div\n                /* \"#utility.yul\":14025:14047   */\n              swap1\n              pop\n                /* \"#utility.yul\":14092:14093   */\n              0x01\n                /* \"#utility.yul\":14086:14090   */\n              dup3\n                /* \"#utility.yul\":14082:14094   */\n              and\n                /* \"#utility.yul\":14113:14131   */\n              dup1\n                /* \"#utility.yul\":14103:14184   */\n              tag_315\n              jumpi\n                /* \"#utility.yul\":14169:14173   */\n              0x7f\n                /* \"#utility.yul\":14161:14167   */\n              dup3\n                /* \"#utility.yul\":14157:14174   */\n              and\n                /* \"#utility.yul\":14147:14174   */\n              swap2\n              pop\n                /* \"#utility.yul\":14103:14184   */\n            tag_315:\n                /* \"#utility.yul\":14231:14233   */\n              0x20\n                /* \"#utility.yul\":14223:14229   */\n              dup3\n                /* \"#utility.yul\":14220:14234   */\n              lt\n                /* \"#utility.yul\":14200:14218   */\n              dup2\n                /* \"#utility.yul\":14197:14235   */\n              eq\n                /* \"#utility.yul\":14194:14278   */\n              iszero\n              tag_316\n              jumpi\n                /* \"#utility.yul\":14250:14268   */\n              tag_317\n              tag_172\n              jump\t// in\n            tag_317:\n                /* \"#utility.yul\":14194:14278   */\n            tag_316:\n                /* \"#utility.yul\":14015:14284   */\n              pop\n                /* \"#utility.yul\":13964:14284   */\n              swap2\n              swap1\n              pop\n              jump\t// out\n                /* \"#utility.yul\":14290:14472   */\n            tag_173:\n                /* \"#utility.yul\":14430:14464   */\n              0x4d696e696d756d20636f6e747269627574696f6e206973207265717569726564\n                /* \"#utility.yul\":14426:14427   */\n              0x00\n                /* \"#utility.yul\":14418:14424   */\n              dup3\n                /* \"#utility.yul\":14414:14428   */\n              add\n                /* \"#utility.yul\":14407:14465   */\n              mstore\n                /* \"#utility.yul\":14290:14472   */\n              pop\n              jump\t// out\n                /* \"#utility.yul\":14478:14844   */\n            tag_174:\n                /* \"#utility.yul\":14620:14623   */\n              0x00\n                /* \"#utility.yul\":14641:14708   */\n              tag_320\n                /* \"#utility.yul\":14705:14707   */\n              0x20\n                /* \"#utility.yul\":14700:14703   */\n              dup4\n                /* \"#utility.yul\":14641:14708   */\n              tag_154\n              jump\t// in\n            tag_320:\n                /* \"#utility.yul\":14634:14708   */\n              swap2\n              pop\n                /* \"#utility.yul\":14717:14810   */\n              tag_321\n                /* \"#utility.yul\":14806:14809   */\n              dup3\n                /* \"#utility.yul\":14717:14810   */\n              tag_173\n              jump\t// in\n            tag_321:\n                /* \"#utility.yul\":14835:14837   */\n              0x20\n                /* \"#utility.yul\":14830:14833   */\n              dup3\n                /* \"#utility.yul\":14826:14838   */\n              add\n                /* \"#utility.yul\":14819:14838   */\n              swap1\n              pop\n                /* \"#utility.yul\":14478:14844   */\n              swap2\n              swap1\n              pop\n              jump\t// out\n                /* \"#utility.yul\":14850:15269   */\n            tag_103:\n                /* \"#utility.yul\":15016:15020   */\n              0x00\n                /* \"#utility.yul\":15054:15056   */\n              0x20\n                /* \"#utility.yul\":15043:15052   */\n              dup3\n                /* \"#utility.yul\":15039:15057   */\n              add\n                /* \"#utility.yul\":15031:15057   */\n              swap1\n              pop\n                /* \"#utility.yul\":15103:15112   */\n              dup2\n                /* \"#utility.yul\":15097:15101   */\n              dup2\n                /* \"#utility.yul\":15093:15113   */\n              sub\n                /* \"#utility.yul\":15089:15090   */\n              0x00\n                /* \"#utility.yul\":15078:15087   */\n              dup4\n                /* \"#utility.yul\":15074:15091   */\n              add\n                /* \"#utility.yul\":15067:15114   */\n              mstore\n                /* \"#utility.yul\":15131:15262   */\n              tag_323\n                /* \"#utility.yul\":15257:15261   */\n              dup2\n                /* \"#utility.yul\":15131:15262   */\n              tag_174\n              jump\t// in\n            tag_323:\n                /* \"#utility.yul\":15123:15262   */\n              swap1\n              pop\n                /* \"#utility.yul\":14850:15269   */\n              swap2\n              swap1\n              pop\n              jump\t// out\n                /* \"#utility.yul\":15275:15508   */\n            tag_106:\n                /* \"#utility.yul\":15314:15317   */\n              0x00\n                /* \"#utility.yul\":15337:15361   */\n              tag_325\n                /* \"#utility.yul\":15355:15360   */\n              dup3\n                /* \"#utility.yul\":15337:15361   */\n              tag_132\n              jump\t// in\n            tag_325:\n                /* \"#utility.yul\":15328:15361   */\n              swap2\n              pop\n                /* \"#utility.yul\":15383:15449   */\n              0xffffffffffffffffffffffffffffffffffffffffffffffffffffffffffffffff\n                /* \"#utility.yul\":15376:15381   */\n              dup3\n                /* \"#utility.yul\":15373:15450   */\n              eq\n                /* \"#utility.yul\":15370:15473   */\n              iszero\n              tag_326\n              jumpi\n                /* \"#utility.yul\":15453:15471   */\n              tag_327\n              tag_164\n              jump\t// in\n            tag_327:\n                /* \"#utility.yul\":15370:15473   */\n            tag_326:\n                /* \"#utility.yul\":15500:15501   */\n              0x01\n                /* \"#utility.yul\":15493:15498   */\n              dup3\n                /* \"#utility.yul\":15489:15502   */\n              add\n                /* \"#utility.yul\":15482:15502   */\n              swap1\n              pop\n                /* \"#utility.yul\":15275:15508   */\n              swap2\n              swap1\n              pop\n              jump\t// out\n                /* \"#utility.yul\":15514:15691   */\n            tag_175:\n                /* \"#utility.yul\":15654:15683   */\n              0x43616c6c6572206973206e6f74206120636f6e7472696275746f720000000000\n                /* \"#utility.yul\":15650:15651   */\n              0x00\n                /* \"#utility.yul\":15642:15648   */\n              dup3\n                /* \"#utility.yul\":15638:15652   */\n              add\n                /* \"#utility.yul\":15631:15684   */\n              mstore\n                /* \"#utility.yul\":15514:15691   */\n              pop\n              jump\t// out\n                /* \"#utility.yul\":15697:16063   */\n            tag_176:\n                /* \"#utility.yul\":15839:15842   */\n              0x00\n                /* \"#utility.yul\":15860:15927   */\n              tag_330\n                /* \"#utility.yul\":15924:15926   */\n              0x1b\n                /* \"#utility.yul\":15919:15922   */\n              dup4\n                /* \"#utility.yul\":15860:15927   */\n              tag_154\n              jump\t// in\n            tag_330:\n                /* \"#utility.yul\":15853:15927   */\n              swap2\n              pop\n                /* \"#utility.yul\":15936:16029   */\n              tag_331\n                /* \"#utility.yul\":16025:16028   */\n              dup3\n                /* \"#utility.yul\":15936:16029   */\n              tag_175\n              jump\t// in\n            tag_331:\n                /* \"#utility.yul\":16054:16056   */\n              0x20\n                /* \"#utility.yul\":16049:16052   */\n              dup3\n                /* \"#utility.yul\":16045:16057   */\n              add\n                /* \"#utility.yul\":16038:16057   */\n              swap1\n              pop\n                /* \"#utility.yul\":15697:16063   */\n              swap2\n              swap1\n              pop\n              jump\t// out\n                /* \"#utility.yul\":16069:16488   */\n            tag_113:\n                /* \"#utility.yul\":16235:16239   */\n              0x00\n                /* \"#utility.yul\":16273:16275   */\n              0x20\n                /* \"#utility.yul\":16262:16271   */\n              dup3\n                /* \"#utility.yul\":16258:16276   */\n              add\n                /* \"#utility.yul\":16250:16276   */\n              swap1\n              pop\n                /* \"#utility.yul\":16322:16331   */\n              dup2\n                /* \"#utility.yul\":16316:16320   */\n              dup2\n                /* \"#utility.yul\":16312:16332   */\n              sub\n                /* \"#utility.yul\":16308:16309   */\n              0x00\n                /* \"#utility.yul\":16297:16306   */\n              dup4\n                /* \"#utility.yul\":16293:16310   */\n              add\n                /* \"#utility.yul\":16286:16333   */\n              mstore\n                /* \"#utility.yul\":16350:16481   */\n              tag_333\n                /* \"#utility.yul\":16476:16480   */\n              dup2\n                /* \"#utility.yul\":16350:16481   */\n              tag_176\n              jump\t// in\n            tag_333:\n                /* \"#utility.yul\":16342:16481   */\n              swap1\n              pop\n                /* \"#utility.yul\":16069:16488   */\n              swap2\n              swap1\n              pop\n              jump\t// out\n                /* \"#utility.yul\":16494:16672   */\n            tag_177:\n                /* \"#utility.yul\":16634:16664   */\n              0x526571756573742077617320616c726561647920617070726f76656400000000\n                /* \"#utility.yul\":16630:16631   */\n              0x00\n                /* \"#utility.yul\":16622:16628   */\n              dup3\n                /* \"#utility.yul\":16618:16632   */\n              add\n                /* \"#utility.yul\":16611:16665   */\n              mstore\n                /* \"#utility.yul\":16494:16672   */\n              pop\n              jump\t// out\n                /* \"#utility.yul\":16678:17044   */\n            tag_178:\n                /* \"#utility.yul\":16820:16823   */\n              0x00\n                /* \"#utility.yul\":16841:16908   */\n              tag_336\n                /* \"#utility.yul\":16905:16907   */\n              0x1c\n                /* \"#utility.yul\":16900:16903   */\n              dup4\n                /* \"#utility.yul\":16841:16908   */\n              tag_154\n              jump\t// in\n            tag_336:\n                /* \"#utility.yul\":16834:16908   */\n              swap2\n              pop\n                /* \"#utility.yul\":16917:17010   */\n              tag_337\n                /* \"#utility.yul\":17006:17009   */\n              dup3\n                /* \"#utility.yul\":16917:17010   */\n              tag_177\n              jump\t// in\n            tag_337:\n                /* \"#utility.yul\":17035:17037   */\n              0x20\n                /* \"#utility.yul\":17030:17033   */\n              dup3\n                /* \"#utility.yul\":17026:17038   */\n              add\n                /* \"#utility.yul\":17019:17038   */\n              swap1\n              pop\n                /* \"#utility.yul\":16678:17044   */\n              swap2\n              swap1\n              pop\n              jump\t// out\n                /* \"#utility.yul\":17050:17469   */\n            tag_116:\n                /* \"#utility.yul\":17216:17220   */\n              0x00\n                /* \"#utility.yul\":17254:17256   */\n              0x20\n                /* \"#utility.yul\":17243:17252   */\n              dup3\n                /* \"#utility.yul\":17239:17257   */\n              add\n                /* \"#utility.yul\":17231:17257   */\n              swap1\n              pop\n                /* \"#utility.yul\":17303:17312   */\n              dup2\n                /* \"#utility.yul\":17297:17301   */\n              dup2\n                /* \"#utility.yul\":17293:17313   */\n              sub\n                /* \"#utility.yul\":17289:17290   */\n              0x00\n                /* \"#utility.yul\":17278:17287   */\n              dup4\n                /* \"#utility.yul\":17274:17291   */\n              add\n                /* \"#utility.yul\":17267:17314   */\n              mstore\n                /* \"#utility.yul\":17331:17462   */\n              tag_339\n                /* \"#utility.yul\":17457:17461   */\n              dup2\n                /* \"#utility.yul\":17331:17462   */\n              tag_178\n              jump\t// in\n            tag_339:\n                /* \"#utility.yul\":17323:17462   */\n              swap1\n              pop\n                /* \"#utility.yul\":17050:17469   */\n              swap2\n              swap1\n              pop\n              jump\t// out\n\n            auxdata: 0xa26469706673582212204878f570ab7c8a71a3b57170f397b27ebe3c2f164717ca080ea51c2cdbcace7c64736f6c634300080c0033\n        }\n    }\n\n    auxdata: 0xa2646970667358221220d075651df3c222433466b1eb89f31a022885625eb0c7ef8de53b6a4a9c2365c164736f6c634300080c0033\n}\n",
    "bytecode": {
      "linkReferences": {},
      "object": "608060405234801561001057600080fd5b506119dd806100206000396000f3fe608060405234801561001057600080fd5b50600436106100415760003560e01c8063064e1faf14610046578063339d50a5146100625780634acb9d4f14610092575b600080fd5b610060600480360381019061005b91906102c5565b6100b0565b005b61007c60048036038101906100779190610305565b610152565b6040516100899190610341565b60405180910390f35b61009a610191565b6040516100a7919061041a565b60405180910390f35b600082826040516100c09061021f565b6100cb92919061044b565b604051809103906000f0801580156100e7573d6000803e3d6000fd5b5090506000819080600181540180825580915050600190039060005260206000200160009091909190916101000a81548173ffffffffffffffffffffffffffffffffffffffff021916908373ffffffffffffffffffffffffffffffffffffffff160217905550505050565b6000818154811061016257600080fd5b906000526020600020016000915054906101000a900473ffffffffffffffffffffffffffffffffffffffff1681565b6060600080548060200260200160405190810160405280929190818152602001828054801561021557602002820191906000526020600020905b8160009054906101000a900473ffffffffffffffffffffffffffffffffffffffff1673ffffffffffffffffffffffffffffffffffffffff16815260200190600101908083116101cb575b5050505050905090565b6115338061047583390190565b600080fd5b600073ffffffffffffffffffffffffffffffffffffffff82169050919050565b600061025c82610231565b9050919050565b61026c81610251565b811461027757600080fd5b50565b60008135905061028981610263565b92915050565b6000819050919050565b6102a28161028f565b81146102ad57600080fd5b50565b6000813590506102bf81610299565b92915050565b600080604083850312156102dc576102db61022c565b5b60006102ea8582860161027a565b92505060206102fb858286016102b0565b9150509250929050565b60006020828403121561031b5761031a61022c565b5b6000610329848285016102b0565b91505092915050565b61033b81610251565b82525050565b60006020820190506103566000830184610332565b92915050565b600081519050919050565b600082825260208201905092915050565b6000819050602082019050919050565b61039181610251565b82525050565b60006103a38383610388565b60208301905092915050565b6000602082019050919050565b60006103c78261035c565b6103d18185610367565b93506103dc83610378565b8060005b8381101561040d5781516103f48882610397565b97506103ff836103af565b9250506001810190506103e0565b5085935050505092915050565b6000602082019050818103600083015261043481846103bc565b905092915050565b6104458161028f565b82525050565b60006040820190506104606000830185610332565b61046d602083018461043c565b939250505056fe60806040523480156200001157600080fd5b50604051620015333803806200153383398181016040528101906200003791906200012b565b816000806101000a81548173ffffffffffffffffffffffffffffffffffffffff021916908373ffffffffffffffffffffffffffffffffffffffff16021790555080600181905550505062000172565b600080fd5b600073ffffffffffffffffffffffffffffffffffffffff82169050919050565b6000620000b8826200008b565b9050919050565b620000ca81620000ab565b8114620000d657600080fd5b50565b600081519050620000ea81620000bf565b92915050565b6000819050919050565b6200010581620000f0565b81146200011157600080fd5b50565b6000815190506200012581620000fa565b92915050565b6000806040838503121562000145576200014462000086565b5b60006200015585828601620000d9565b9250506020620001688582860162000114565b9150509250929050565b6113b180620001826000396000f3fe6080604052600436106100915760003560e01c806381d12c581161005957806381d12c581461017b578063937e09b1146101bc578063d7bb99ba146101e7578063d7d1bbdb146101f1578063fbfa4b7f1461021a57610091565b806303441006146100965780631b16bb5c146100bf5780631f6d4942146100e8578063481c6a75146101255780637569b3d714610150575b600080fd5b3480156100a257600080fd5b506100bd60048036038101906100b89190610ab9565b610245565b005b3480156100cb57600080fd5b506100e660048036038101906100e19190610c8a565b610495565b005b3480156100f457600080fd5b5061010f600480360381019061010a9190610cf9565b6105b2565b60405161011c9190610d41565b60405180910390f35b34801561013157600080fd5b5061013a6105d2565b6040516101479190610d6b565b60405180910390f35b34801561015c57600080fd5b506101656105f6565b6040516101729190610d95565b60405180910390f35b34801561018757600080fd5b506101a2600480360381019061019d9190610ab9565b6105fc565b6040516101b3959493929190610e59565b60405180910390f35b3480156101c857600080fd5b506101d16106f7565b6040516101de9190610d95565b60405180910390f35b6101ef6106fd565b005b3480156101fd57600080fd5b5061021860048036038101906102139190610ab9565b610806565b005b34801561022657600080fd5b5061022f6109bf565b60405161023c9190610d95565b60405180910390f35b60008054906101000a900473ffffffffffffffffffffffffffffffffffffffff1673ffffffffffffffffffffffffffffffffffffffff163373ffffffffffffffffffffffffffffffffffffffff16146102d3576040517f08c379a00000000000000000000000000000000000000000000000000000000081526004016102ca90610eff565b60405180910390fd5b6000600482815481106102e9576102e8610f1f565b5b906000526020600020906006020190508060030160009054906101000a900460ff161561034b576040517f08c379a000000000000000000000000000000000000000000000000000000000815260040161034290610f9a565b60405180910390fd5b600260035461035a9190611018565b81600501541161039f576040517f08c379a0000000000000000000000000000000000000000000000000000000008152600401610396906110bb565b60405180910390fd5b60008160010160009054906101000a900473ffffffffffffffffffffffffffffffffffffffff1673ffffffffffffffffffffffffffffffffffffffff1682600201546040516103ed9061110c565b60006040518083038185875af1925050503d806000811461042a576040519150601f19603f3d011682016040523d82523d6000602084013e61042f565b606091505b5050905080610473576040517f08c379a000000000000000000000000000000000000000000000000000000000815260040161046a9061116d565b60405180910390fd5b60018260030160006101000a81548160ff021916908315150217905550505050565b60008054906101000a900473ffffffffffffffffffffffffffffffffffffffff1673ffffffffffffffffffffffffffffffffffffffff163373ffffffffffffffffffffffffffffffffffffffff1614610523576040517f08c379a000000000000000000000000000000000000000000000000000000000815260040161051a90610eff565b60405180910390fd5b6000600460018160018154018082558091505003906000526020600020906006020190508381600001908051906020019061055f9291906109cc565b50828160010160006101000a81548173ffffffffffffffffffffffffffffffffffffffff021916908373ffffffffffffffffffffffffffffffffffffffff16021790555081816002018190555050505050565b60026020528060005260406000206000915054906101000a900460ff1681565b60008054906101000a900473ffffffffffffffffffffffffffffffffffffffff1681565b60035481565b6004818154811061060c57600080fd5b906000526020600020906006020160009150905080600001805461062f906111bc565b80601f016020809104026020016040519081016040528092919081815260200182805461065b906111bc565b80156106a85780601f1061067d576101008083540402835291602001916106a8565b820191906000526020600020905b81548152906001019060200180831161068b57829003601f168201915b5050505050908060010160009054906101000a900473ffffffffffffffffffffffffffffffffffffffff16908060020154908060030160009054906101000a900460ff16908060050154905085565b60015481565b600154341015610742576040517f08c379a00000000000000000000000000000000000000000000000000000000081526004016107399061123a565b60405180910390fd5b600260003373ffffffffffffffffffffffffffffffffffffffff1673ffffffffffffffffffffffffffffffffffffffff16815260200190815260200160002060009054906101000a900460ff16610804576001600260003373ffffffffffffffffffffffffffffffffffffffff1673ffffffffffffffffffffffffffffffffffffffff16815260200190815260200160002060006101000a81548160ff021916908315150217905550600360008154809291906107fe9061125a565b91905055505b565b60006004828154811061081c5761081b610f1f565b5b90600052602060002090600602019050600260003373ffffffffffffffffffffffffffffffffffffffff1673ffffffffffffffffffffffffffffffffffffffff16815260200190815260200160002060009054906101000a900460ff166108b8576040517f08c379a00000000000000000000000000000000000000000000000000000000081526004016108af906112ef565b60405180910390fd5b8060040160003373ffffffffffffffffffffffffffffffffffffffff1673ffffffffffffffffffffffffffffffffffffffff16815260200190815260200160002060009054906101000a900460ff1615610947576040517f08c379a000000000000000000000000000000000000000000000000000000000815260040161093e9061135b565b60405180910390fd5b60018160040160003373ffffffffffffffffffffffffffffffffffffffff1673ffffffffffffffffffffffffffffffffffffffff16815260200190815260200160002060006101000a81548160ff0219169083151502179055508060050160008154809291906109b69061125a565b91905055505050565b6000600480549050905090565b8280546109d8906111bc565b90600052602060002090601f0160209004810192826109fa5760008555610a41565b82601f10610a1357805160ff1916838001178555610a41565b82800160010185558215610a41579182015b82811115610a40578251825591602001919060010190610a25565b5b509050610a4e9190610a52565b5090565b5b80821115610a6b576000816000905550600101610a53565b5090565b6000604051905090565b600080fd5b600080fd5b6000819050919050565b610a9681610a83565b8114610aa157600080fd5b50565b600081359050610ab381610a8d565b92915050565b600060208284031215610acf57610ace610a79565b5b6000610add84828501610aa4565b91505092915050565b600080fd5b600080fd5b6000601f19601f8301169050919050565b7f4e487b7100000000000000000000000000000000000000000000000000000000600052604160045260246000fd5b610b3982610af0565b810181811067ffffffffffffffff82111715610b5857610b57610b01565b5b80604052505050565b6000610b6b610a6f565b9050610b778282610b30565b919050565b600067ffffffffffffffff821115610b9757610b96610b01565b5b610ba082610af0565b9050602081019050919050565b82818337600083830152505050565b6000610bcf610bca84610b7c565b610b61565b905082815260208101848484011115610beb57610bea610aeb565b5b610bf6848285610bad565b509392505050565b600082601f830112610c1357610c12610ae6565b5b8135610c23848260208601610bbc565b91505092915050565b600073ffffffffffffffffffffffffffffffffffffffff82169050919050565b6000610c5782610c2c565b9050919050565b610c6781610c4c565b8114610c7257600080fd5b50565b600081359050610c8481610c5e565b92915050565b600080600060608486031215610ca357610ca2610a79565b5b600084013567ffffffffffffffff811115610cc157610cc0610a7e565b5b610ccd86828701610bfe565b9350506020610cde86828701610c75565b9250506040610cef86828701610aa4565b9150509250925092565b600060208284031215610d0f57610d0e610a79565b5b6000610d1d84828501610c75565b91505092915050565b60008115159050919050565b610d3b81610d26565b82525050565b6000602082019050610d566000830184610d32565b92915050565b610d6581610c4c565b82525050565b6000602082019050610d806000830184610d5c565b92915050565b610d8f81610a83565b82525050565b6000602082019050610daa6000830184610d86565b92915050565b600081519050919050565b600082825260208201905092915050565b60005b83811015610dea578082015181840152602081019050610dcf565b83811115610df9576000848401525b50505050565b6000610e0a82610db0565b610e148185610dbb565b9350610e24818560208601610dcc565b610e2d81610af0565b840191505092915050565b6000610e4382610c2c565b9050919050565b610e5381610e38565b82525050565b600060a0820190508181036000830152610e738188610dff565b9050610e826020830187610e4a565b610e8f6040830186610d86565b610e9c6060830185610d32565b610ea96080830184610d86565b9695505050505050565b7f43616c6c6572206973206e6f742061206d616e61676572000000000000000000600082015250565b6000610ee9601783610dbb565b9150610ef482610eb3565b602082019050919050565b60006020820190508181036000830152610f1881610edc565b9050919050565b7f4e487b7100000000000000000000000000000000000000000000000000000000600052603260045260246000fd5b7f5265717565737420697320636f6d706c65746564000000000000000000000000600082015250565b6000610f84601483610dbb565b9150610f8f82610f4e565b602082019050919050565b60006020820190508181036000830152610fb381610f77565b9050919050565b7f4e487b7100000000000000000000000000000000000000000000000000000000600052601260045260246000fd5b7f4e487b7100000000000000000000000000000000000000000000000000000000600052601160045260246000fd5b600061102382610a83565b915061102e83610a83565b92508261103e5761103d610fba565b5b828204905092915050565b7f5265717565737420686173206e6f7420656e6f7567687420617070726f76616c60008201527f7300000000000000000000000000000000000000000000000000000000000000602082015250565b60006110a5602183610dbb565b91506110b082611049565b604082019050919050565b600060208201905081810360008301526110d481611098565b9050919050565b600081905092915050565b50565b60006110f66000836110db565b9150611101826110e6565b600082019050919050565b6000611117826110e9565b9150819050919050565b7f4661696c75726521204574686572206e6f742073656e74000000000000000000600082015250565b6000611157601783610dbb565b915061116282611121565b602082019050919050565b600060208201905081810360008301526111868161114a565b9050919050565b7f4e487b7100000000000000000000000000000000000000000000000000000000600052602260045260246000fd5b600060028204905060018216806111d457607f821691505b602082108114156111e8576111e761118d565b5b50919050565b7f4d696e696d756d20636f6e747269627574696f6e206973207265717569726564600082015250565b6000611224602083610dbb565b915061122f826111ee565b602082019050919050565b6000602082019050818103600083015261125381611217565b9050919050565b600061126582610a83565b91507fffffffffffffffffffffffffffffffffffffffffffffffffffffffffffffffff82141561129857611297610fe9565b5b600182019050919050565b7f43616c6c6572206973206e6f74206120636f6e7472696275746f720000000000600082015250565b60006112d9601b83610dbb565b91506112e4826112a3565b602082019050919050565b60006020820190508181036000830152611308816112cc565b9050919050565b7f526571756573742077617320616c726561647920617070726f76656400000000600082015250565b6000611345601c83610dbb565b91506113508261130f565b602082019050919050565b6000602082019050818103600083015261137481611338565b905091905056fea26469706673582212204878f570ab7c8a71a3b57170f397b27ebe3c2f164717ca080ea51c2cdbcace7c64736f6c634300080c0033a2646970667358221220d075651df3c222433466b1eb89f31a022885625eb0c7ef8de53b6a4a9c2365c164736f6c634300080c0033",
      "opcodes": "PUSH1 0x80 PUSH1 0x40 MSTORE CALLVALUE DUP1 ISZERO PUSH2 0x10 JUMPI PUSH1 0x0 DUP1 REVERT JUMPDEST POP PUSH2 0x19DD DUP1 PUSH2 0x20 PUSH1 0x0 CODECOPY PUSH1 0x0 RETURN INVALID PUSH1 0x80 PUSH1 0x40 MSTORE CALLVALUE DUP1 ISZERO PUSH2 0x10 JUMPI PUSH1 0x0 DUP1 REVERT JUMPDEST POP PUSH1 0x4 CALLDATASIZE LT PUSH2 0x41 JUMPI PUSH1 0x0 CALLDATALOAD PUSH1 0xE0 SHR DUP1 PUSH4 0x64E1FAF EQ PUSH2 0x46 JUMPI DUP1 PUSH4 0x339D50A5 EQ PUSH2 0x62 JUMPI DUP1 PUSH4 0x4ACB9D4F EQ PUSH2 0x92 JUMPI JUMPDEST PUSH1 0x0 DUP1 REVERT JUMPDEST PUSH2 0x60 PUSH1 0x4 DUP1 CALLDATASIZE SUB DUP2 ADD SWAP1 PUSH2 0x5B SWAP2 SWAP1 PUSH2 0x2C5 JUMP JUMPDEST PUSH2 0xB0 JUMP JUMPDEST STOP JUMPDEST PUSH2 0x7C PUSH1 0x4 DUP1 CALLDATASIZE SUB DUP2 ADD SWAP1 PUSH2 0x77 SWAP2 SWAP1 PUSH2 0x305 JUMP JUMPDEST PUSH2 0x152 JUMP JUMPDEST PUSH1 0x40 MLOAD PUSH2 0x89 SWAP2 SWAP1 PUSH2 0x341 JUMP JUMPDEST PUSH1 0x40 MLOAD DUP1 SWAP2 SUB SWAP1 RETURN JUMPDEST PUSH2 0x9A PUSH2 0x191 JUMP JUMPDEST PUSH1 0x40 MLOAD PUSH2 0xA7 SWAP2 SWAP1 PUSH2 0x41A JUMP JUMPDEST PUSH1 0x40 MLOAD DUP1 SWAP2 SUB SWAP1 RETURN JUMPDEST PUSH1 0x0 DUP3 DUP3 PUSH1 0x40 MLOAD PUSH2 0xC0 SWAP1 PUSH2 0x21F JUMP JUMPDEST PUSH2 0xCB SWAP3 SWAP2 SWAP1 PUSH2 0x44B JUMP JUMPDEST PUSH1 0x40 MLOAD DUP1 SWAP2 SUB SWAP1 PUSH1 0x0 CREATE DUP1 ISZERO DUP1 ISZERO PUSH2 0xE7 JUMPI RETURNDATASIZE PUSH1 0x0 DUP1 RETURNDATACOPY RETURNDATASIZE PUSH1 0x0 REVERT JUMPDEST POP SWAP1 POP PUSH1 0x0 DUP2 SWAP1 DUP1 PUSH1 0x1 DUP2 SLOAD ADD DUP1 DUP3 SSTORE DUP1 SWAP2 POP POP PUSH1 0x1 SWAP1 SUB SWAP1 PUSH1 0x0 MSTORE PUSH1 0x20 PUSH1 0x0 KECCAK256 ADD PUSH1 0x0 SWAP1 SWAP2 SWAP1 SWAP2 SWAP1 SWAP2 PUSH2 0x100 EXP DUP2 SLOAD DUP2 PUSH20 0xFFFFFFFFFFFFFFFFFFFFFFFFFFFFFFFFFFFFFFFF MUL NOT AND SWAP1 DUP4 PUSH20 0xFFFFFFFFFFFFFFFFFFFFFFFFFFFFFFFFFFFFFFFF AND MUL OR SWAP1 SSTORE POP POP POP POP JUMP JUMPDEST PUSH1 0x0 DUP2 DUP2 SLOAD DUP2 LT PUSH2 0x162 JUMPI PUSH1 0x0 DUP1 REVERT JUMPDEST SWAP1 PUSH1 0x0 MSTORE PUSH1 0x20 PUSH1 0x0 KECCAK256 ADD PUSH1 0x0 SWAP2 POP SLOAD SWAP1 PUSH2 0x100 EXP SWAP1 DIV PUSH20 0xFFFFFFFFFFFFFFFFFFFFFFFFFFFFFFFFFFFFFFFF AND DUP2 JUMP JUMPDEST PUSH1 0x60 PUSH1 0x0 DUP1 SLOAD DUP1 PUSH1 0x20 MUL PUSH1 0x20 ADD PUSH1 0x40 MLOAD SWAP1 DUP2 ADD PUSH1 0x40 MSTORE DUP1 SWAP3 SWAP2 SWAP1 DUP2 DUP2 MSTORE PUSH1 0x20 ADD DUP3 DUP1 SLOAD DUP1 ISZERO PUSH2 0x215 JUMPI PUSH1 0x20 MUL DUP3 ADD SWAP2 SWAP1 PUSH1 0x0 MSTORE PUSH1 0x20 PUSH1 0x0 KECCAK256 SWAP1 JUMPDEST DUP2 PUSH1 0x0 SWAP1 SLOAD SWAP1 PUSH2 0x100 EXP SWAP1 DIV PUSH20 0xFFFFFFFFFFFFFFFFFFFFFFFFFFFFFFFFFFFFFFFF AND PUSH20 0xFFFFFFFFFFFFFFFFFFFFFFFFFFFFFFFFFFFFFFFF AND DUP2 MSTORE PUSH1 0x20 ADD SWAP1 PUSH1 0x1 ADD SWAP1 DUP1 DUP4 GT PUSH2 0x1CB JUMPI JUMPDEST POP POP POP POP POP SWAP1 POP SWAP1 JUMP JUMPDEST PUSH2 0x1533 DUP1 PUSH2 0x475 DUP4 CODECOPY ADD SWAP1 JUMP JUMPDEST PUSH1 0x0 DUP1 REVERT JUMPDEST PUSH1 0x0 PUSH20 0xFFFFFFFFFFFFFFFFFFFFFFFFFFFFFFFFFFFFFFFF DUP3 AND SWAP1 POP SWAP2 SWAP1 POP JUMP JUMPDEST PUSH1 0x0 PUSH2 0x25C DUP3 PUSH2 0x231 JUMP JUMPDEST SWAP1 POP SWAP2 SWAP1 POP JUMP JUMPDEST PUSH2 0x26C DUP2 PUSH2 0x251 JUMP JUMPDEST DUP2 EQ PUSH2 0x277 JUMPI PUSH1 0x0 DUP1 REVERT JUMPDEST POP JUMP JUMPDEST PUSH1 0x0 DUP2 CALLDATALOAD SWAP1 POP PUSH2 0x289 DUP2 PUSH2 0x263 JUMP JUMPDEST SWAP3 SWAP2 POP POP JUMP JUMPDEST PUSH1 0x0 DUP2 SWAP1 POP SWAP2 SWAP1 POP JUMP JUMPDEST PUSH2 0x2A2 DUP2 PUSH2 0x28F JUMP JUMPDEST DUP2 EQ PUSH2 0x2AD JUMPI PUSH1 0x0 DUP1 REVERT JUMPDEST POP JUMP JUMPDEST PUSH1 0x0 DUP2 CALLDATALOAD SWAP1 POP PUSH2 0x2BF DUP2 PUSH2 0x299 JUMP JUMPDEST SWAP3 SWAP2 POP POP JUMP JUMPDEST PUSH1 0x0 DUP1 PUSH1 0x40 DUP4 DUP6 SUB SLT ISZERO PUSH2 0x2DC JUMPI PUSH2 0x2DB PUSH2 0x22C JUMP JUMPDEST JUMPDEST PUSH1 0x0 PUSH2 0x2EA DUP6 DUP3 DUP7 ADD PUSH2 0x27A JUMP JUMPDEST SWAP3 POP POP PUSH1 0x20 PUSH2 0x2FB DUP6 DUP3 DUP7 ADD PUSH2 0x2B0 JUMP JUMPDEST SWAP2 POP POP SWAP3 POP SWAP3 SWAP1 POP JUMP JUMPDEST PUSH1 0x0 PUSH1 0x20 DUP3 DUP5 SUB SLT ISZERO PUSH2 0x31B JUMPI PUSH2 0x31A PUSH2 0x22C JUMP JUMPDEST JUMPDEST PUSH1 0x0 PUSH2 0x329 DUP5 DUP3 DUP6 ADD PUSH2 0x2B0 JUMP JUMPDEST SWAP2 POP POP SWAP3 SWAP2 POP POP JUMP JUMPDEST PUSH2 0x33B DUP2 PUSH2 0x251 JUMP JUMPDEST DUP3 MSTORE POP POP JUMP JUMPDEST PUSH1 0x0 PUSH1 0x20 DUP3 ADD SWAP1 POP PUSH2 0x356 PUSH1 0x0 DUP4 ADD DUP5 PUSH2 0x332 JUMP JUMPDEST SWAP3 SWAP2 POP POP JUMP JUMPDEST PUSH1 0x0 DUP2 MLOAD SWAP1 POP SWAP2 SWAP1 POP JUMP JUMPDEST PUSH1 0x0 DUP3 DUP3 MSTORE PUSH1 0x20 DUP3 ADD SWAP1 POP SWAP3 SWAP2 POP POP JUMP JUMPDEST PUSH1 0x0 DUP2 SWAP1 POP PUSH1 0x20 DUP3 ADD SWAP1 POP SWAP2 SWAP1 POP JUMP JUMPDEST PUSH2 0x391 DUP2 PUSH2 0x251 JUMP JUMPDEST DUP3 MSTORE POP POP JUMP JUMPDEST PUSH1 0x0 PUSH2 0x3A3 DUP4 DUP4 PUSH2 0x388 JUMP JUMPDEST PUSH1 0x20 DUP4 ADD SWAP1 POP SWAP3 SWAP2 POP POP JUMP JUMPDEST PUSH1 0x0 PUSH1 0x20 DUP3 ADD SWAP1 POP SWAP2 SWAP1 POP JUMP JUMPDEST PUSH1 0x0 PUSH2 0x3C7 DUP3 PUSH2 0x35C JUMP JUMPDEST PUSH2 0x3D1 DUP2 DUP6 PUSH2 0x367 JUMP JUMPDEST SWAP4 POP PUSH2 0x3DC DUP4 PUSH2 0x378 JUMP JUMPDEST DUP1 PUSH1 0x0 JUMPDEST DUP4 DUP2 LT ISZERO PUSH2 0x40D JUMPI DUP2 MLOAD PUSH2 0x3F4 DUP9 DUP3 PUSH2 0x397 JUMP JUMPDEST SWAP8 POP PUSH2 0x3FF DUP4 PUSH2 0x3AF JUMP JUMPDEST SWAP3 POP POP PUSH1 0x1 DUP2 ADD SWAP1 POP PUSH2 0x3E0 JUMP JUMPDEST POP DUP6 SWAP4 POP POP POP POP SWAP3 SWAP2 POP POP JUMP JUMPDEST PUSH1 0x0 PUSH1 0x20 DUP3 ADD SWAP1 POP DUP2 DUP2 SUB PUSH1 0x0 DUP4 ADD MSTORE PUSH2 0x434 DUP2 DUP5 PUSH2 0x3BC JUMP JUMPDEST SWAP1 POP SWAP3 SWAP2 POP POP JUMP JUMPDEST PUSH2 0x445 DUP2 PUSH2 0x28F JUMP JUMPDEST DUP3 MSTORE POP POP JUMP JUMPDEST PUSH1 0x0 PUSH1 0x40 DUP3 ADD SWAP1 POP PUSH2 0x460 PUSH1 0x0 DUP4 ADD DUP6 PUSH2 0x332 JUMP JUMPDEST PUSH2 0x46D PUSH1 0x20 DUP4 ADD DUP5 PUSH2 0x43C JUMP JUMPDEST SWAP4 SWAP3 POP POP POP JUMP INVALID PUSH1 0x80 PUSH1 0x40 MSTORE CALLVALUE DUP1 ISZERO PUSH3 0x11 JUMPI PUSH1 0x0 DUP1 REVERT JUMPDEST POP PUSH1 0x40 MLOAD PUSH3 0x1533 CODESIZE SUB DUP1 PUSH3 0x1533 DUP4 CODECOPY DUP2 DUP2 ADD PUSH1 0x40 MSTORE DUP2 ADD SWAP1 PUSH3 0x37 SWAP2 SWAP1 PUSH3 0x12B JUMP JUMPDEST DUP2 PUSH1 0x0 DUP1 PUSH2 0x100 EXP DUP2 SLOAD DUP2 PUSH20 0xFFFFFFFFFFFFFFFFFFFFFFFFFFFFFFFFFFFFFFFF MUL NOT AND SWAP1 DUP4 PUSH20 0xFFFFFFFFFFFFFFFFFFFFFFFFFFFFFFFFFFFFFFFF AND MUL OR SWAP1 SSTORE POP DUP1 PUSH1 0x1 DUP2 SWAP1 SSTORE POP POP POP PUSH3 0x172 JUMP JUMPDEST PUSH1 0x0 DUP1 REVERT JUMPDEST PUSH1 0x0 PUSH20 0xFFFFFFFFFFFFFFFFFFFFFFFFFFFFFFFFFFFFFFFF DUP3 AND SWAP1 POP SWAP2 SWAP1 POP JUMP JUMPDEST PUSH1 0x0 PUSH3 0xB8 DUP3 PUSH3 0x8B JUMP JUMPDEST SWAP1 POP SWAP2 SWAP1 POP JUMP JUMPDEST PUSH3 0xCA DUP2 PUSH3 0xAB JUMP JUMPDEST DUP2 EQ PUSH3 0xD6 JUMPI PUSH1 0x0 DUP1 REVERT JUMPDEST POP JUMP JUMPDEST PUSH1 0x0 DUP2 MLOAD SWAP1 POP PUSH3 0xEA DUP2 PUSH3 0xBF JUMP JUMPDEST SWAP3 SWAP2 POP POP JUMP JUMPDEST PUSH1 0x0 DUP2 SWAP1 POP SWAP2 SWAP1 POP JUMP JUMPDEST PUSH3 0x105 DUP2 PUSH3 0xF0 JUMP JUMPDEST DUP2 EQ PUSH3 0x111 JUMPI PUSH1 0x0 DUP1 REVERT JUMPDEST POP JUMP JUMPDEST PUSH1 0x0 DUP2 MLOAD SWAP1 POP PUSH3 0x125 DUP2 PUSH3 0xFA JUMP JUMPDEST SWAP3 SWAP2 POP POP JUMP JUMPDEST PUSH1 0x0 DUP1 PUSH1 0x40 DUP4 DUP6 SUB SLT ISZERO PUSH3 0x145 JUMPI PUSH3 0x144 PUSH3 0x86 JUMP JUMPDEST JUMPDEST PUSH1 0x0 PUSH3 0x155 DUP6 DUP3 DUP7 ADD PUSH3 0xD9 JUMP JUMPDEST SWAP3 POP POP PUSH1 0x20 PUSH3 0x168 DUP6 DUP3 DUP7 ADD PUSH3 0x114 JUMP JUMPDEST SWAP2 POP POP SWAP3 POP SWAP3 SWAP1 POP JUMP JUMPDEST PUSH2 0x13B1 DUP1 PUSH3 0x182 PUSH1 0x0 CODECOPY PUSH1 0x0 RETURN INVALID PUSH1 0x80 PUSH1 0x40 MSTORE PUSH1 0x4 CALLDATASIZE LT PUSH2 0x91 JUMPI PUSH1 0x0 CALLDATALOAD PUSH1 0xE0 SHR DUP1 PUSH4 0x81D12C58 GT PUSH2 0x59 JUMPI DUP1 PUSH4 0x81D12C58 EQ PUSH2 0x17B JUMPI DUP1 PUSH4 0x937E09B1 EQ PUSH2 0x1BC JUMPI DUP1 PUSH4 0xD7BB99BA EQ PUSH2 0x1E7 JUMPI DUP1 PUSH4 0xD7D1BBDB EQ PUSH2 0x1F1 JUMPI DUP1 PUSH4 0xFBFA4B7F EQ PUSH2 0x21A JUMPI PUSH2 0x91 JUMP JUMPDEST DUP1 PUSH4 0x3441006 EQ PUSH2 0x96 JUMPI DUP1 PUSH4 0x1B16BB5C EQ PUSH2 0xBF JUMPI DUP1 PUSH4 0x1F6D4942 EQ PUSH2 0xE8 JUMPI DUP1 PUSH4 0x481C6A75 EQ PUSH2 0x125 JUMPI DUP1 PUSH4 0x7569B3D7 EQ PUSH2 0x150 JUMPI JUMPDEST PUSH1 0x0 DUP1 REVERT JUMPDEST CALLVALUE DUP1 ISZERO PUSH2 0xA2 JUMPI PUSH1 0x0 DUP1 REVERT JUMPDEST POP PUSH2 0xBD PUSH1 0x4 DUP1 CALLDATASIZE SUB DUP2 ADD SWAP1 PUSH2 0xB8 SWAP2 SWAP1 PUSH2 0xAB9 JUMP JUMPDEST PUSH2 0x245 JUMP JUMPDEST STOP JUMPDEST CALLVALUE DUP1 ISZERO PUSH2 0xCB JUMPI PUSH1 0x0 DUP1 REVERT JUMPDEST POP PUSH2 0xE6 PUSH1 0x4 DUP1 CALLDATASIZE SUB DUP2 ADD SWAP1 PUSH2 0xE1 SWAP2 SWAP1 PUSH2 0xC8A JUMP JUMPDEST PUSH2 0x495 JUMP JUMPDEST STOP JUMPDEST CALLVALUE DUP1 ISZERO PUSH2 0xF4 JUMPI PUSH1 0x0 DUP1 REVERT JUMPDEST POP PUSH2 0x10F PUSH1 0x4 DUP1 CALLDATASIZE SUB DUP2 ADD SWAP1 PUSH2 0x10A SWAP2 SWAP1 PUSH2 0xCF9 JUMP JUMPDEST PUSH2 0x5B2 JUMP JUMPDEST PUSH1 0x40 MLOAD PUSH2 0x11C SWAP2 SWAP1 PUSH2 0xD41 JUMP JUMPDEST PUSH1 0x40 MLOAD DUP1 SWAP2 SUB SWAP1 RETURN JUMPDEST CALLVALUE DUP1 ISZERO PUSH2 0x131 JUMPI PUSH1 0x0 DUP1 REVERT JUMPDEST POP PUSH2 0x13A PUSH2 0x5D2 JUMP JUMPDEST PUSH1 0x40 MLOAD PUSH2 0x147 SWAP2 SWAP1 PUSH2 0xD6B JUMP JUMPDEST PUSH1 0x40 MLOAD DUP1 SWAP2 SUB SWAP1 RETURN JUMPDEST CALLVALUE DUP1 ISZERO PUSH2 0x15C JUMPI PUSH1 0x0 DUP1 REVERT JUMPDEST POP PUSH2 0x165 PUSH2 0x5F6 JUMP JUMPDEST PUSH1 0x40 MLOAD PUSH2 0x172 SWAP2 SWAP1 PUSH2 0xD95 JUMP JUMPDEST PUSH1 0x40 MLOAD DUP1 SWAP2 SUB SWAP1 RETURN JUMPDEST CALLVALUE DUP1 ISZERO PUSH2 0x187 JUMPI PUSH1 0x0 DUP1 REVERT JUMPDEST POP PUSH2 0x1A2 PUSH1 0x4 DUP1 CALLDATASIZE SUB DUP2 ADD SWAP1 PUSH2 0x19D SWAP2 SWAP1 PUSH2 0xAB9 JUMP JUMPDEST PUSH2 0x5FC JUMP JUMPDEST PUSH1 0x40 MLOAD PUSH2 0x1B3 SWAP6 SWAP5 SWAP4 SWAP3 SWAP2 SWAP1 PUSH2 0xE59 JUMP JUMPDEST PUSH1 0x40 MLOAD DUP1 SWAP2 SUB SWAP1 RETURN JUMPDEST CALLVALUE DUP1 ISZERO PUSH2 0x1C8 JUMPI PUSH1 0x0 DUP1 REVERT JUMPDEST POP PUSH2 0x1D1 PUSH2 0x6F7 JUMP JUMPDEST PUSH1 0x40 MLOAD PUSH2 0x1DE SWAP2 SWAP1 PUSH2 0xD95 JUMP JUMPDEST PUSH1 0x40 MLOAD DUP1 SWAP2 SUB SWAP1 RETURN JUMPDEST PUSH2 0x1EF PUSH2 0x6FD JUMP JUMPDEST STOP JUMPDEST CALLVALUE DUP1 ISZERO PUSH2 0x1FD JUMPI PUSH1 0x0 DUP1 REVERT JUMPDEST POP PUSH2 0x218 PUSH1 0x4 DUP1 CALLDATASIZE SUB DUP2 ADD SWAP1 PUSH2 0x213 SWAP2 SWAP1 PUSH2 0xAB9 JUMP JUMPDEST PUSH2 0x806 JUMP JUMPDEST STOP JUMPDEST CALLVALUE DUP1 ISZERO PUSH2 0x226 JUMPI PUSH1 0x0 DUP1 REVERT JUMPDEST POP PUSH2 0x22F PUSH2 0x9BF JUMP JUMPDEST PUSH1 0x40 MLOAD PUSH2 0x23C SWAP2 SWAP1 PUSH2 0xD95 JUMP JUMPDEST PUSH1 0x40 MLOAD DUP1 SWAP2 SUB SWAP1 RETURN JUMPDEST PUSH1 0x0 DUP1 SLOAD SWAP1 PUSH2 0x100 EXP SWAP1 DIV PUSH20 0xFFFFFFFFFFFFFFFFFFFFFFFFFFFFFFFFFFFFFFFF AND PUSH20 0xFFFFFFFFFFFFFFFFFFFFFFFFFFFFFFFFFFFFFFFF AND CALLER PUSH20 0xFFFFFFFFFFFFFFFFFFFFFFFFFFFFFFFFFFFFFFFF AND EQ PUSH2 0x2D3 JUMPI PUSH1 0x40 MLOAD PUSH32 0x8C379A000000000000000000000000000000000000000000000000000000000 DUP2 MSTORE PUSH1 0x4 ADD PUSH2 0x2CA SWAP1 PUSH2 0xEFF JUMP JUMPDEST PUSH1 0x40 MLOAD DUP1 SWAP2 SUB SWAP1 REVERT JUMPDEST PUSH1 0x0 PUSH1 0x4 DUP3 DUP2 SLOAD DUP2 LT PUSH2 0x2E9 JUMPI PUSH2 0x2E8 PUSH2 0xF1F JUMP JUMPDEST JUMPDEST SWAP1 PUSH1 0x0 MSTORE PUSH1 0x20 PUSH1 0x0 KECCAK256 SWAP1 PUSH1 0x6 MUL ADD SWAP1 POP DUP1 PUSH1 0x3 ADD PUSH1 0x0 SWAP1 SLOAD SWAP1 PUSH2 0x100 EXP SWAP1 DIV PUSH1 0xFF AND ISZERO PUSH2 0x34B JUMPI PUSH1 0x40 MLOAD PUSH32 0x8C379A000000000000000000000000000000000000000000000000000000000 DUP2 MSTORE PUSH1 0x4 ADD PUSH2 0x342 SWAP1 PUSH2 0xF9A JUMP JUMPDEST PUSH1 0x40 MLOAD DUP1 SWAP2 SUB SWAP1 REVERT JUMPDEST PUSH1 0x2 PUSH1 0x3 SLOAD PUSH2 0x35A SWAP2 SWAP1 PUSH2 0x1018 JUMP JUMPDEST DUP2 PUSH1 0x5 ADD SLOAD GT PUSH2 0x39F JUMPI PUSH1 0x40 MLOAD PUSH32 0x8C379A000000000000000000000000000000000000000000000000000000000 DUP2 MSTORE PUSH1 0x4 ADD PUSH2 0x396 SWAP1 PUSH2 0x10BB JUMP JUMPDEST PUSH1 0x40 MLOAD DUP1 SWAP2 SUB SWAP1 REVERT JUMPDEST PUSH1 0x0 DUP2 PUSH1 0x1 ADD PUSH1 0x0 SWAP1 SLOAD SWAP1 PUSH2 0x100 EXP SWAP1 DIV PUSH20 0xFFFFFFFFFFFFFFFFFFFFFFFFFFFFFFFFFFFFFFFF AND PUSH20 0xFFFFFFFFFFFFFFFFFFFFFFFFFFFFFFFFFFFFFFFF AND DUP3 PUSH1 0x2 ADD SLOAD PUSH1 0x40 MLOAD PUSH2 0x3ED SWAP1 PUSH2 0x110C JUMP JUMPDEST PUSH1 0x0 PUSH1 0x40 MLOAD DUP1 DUP4 SUB DUP2 DUP6 DUP8 GAS CALL SWAP3 POP POP POP RETURNDATASIZE DUP1 PUSH1 0x0 DUP2 EQ PUSH2 0x42A JUMPI PUSH1 0x40 MLOAD SWAP2 POP PUSH1 0x1F NOT PUSH1 0x3F RETURNDATASIZE ADD AND DUP3 ADD PUSH1 0x40 MSTORE RETURNDATASIZE DUP3 MSTORE RETURNDATASIZE PUSH1 0x0 PUSH1 0x20 DUP5 ADD RETURNDATACOPY PUSH2 0x42F JUMP JUMPDEST PUSH1 0x60 SWAP2 POP JUMPDEST POP POP SWAP1 POP DUP1 PUSH2 0x473 JUMPI PUSH1 0x40 MLOAD PUSH32 0x8C379A000000000000000000000000000000000000000000000000000000000 DUP2 MSTORE PUSH1 0x4 ADD PUSH2 0x46A SWAP1 PUSH2 0x116D JUMP JUMPDEST PUSH1 0x40 MLOAD DUP1 SWAP2 SUB SWAP1 REVERT JUMPDEST PUSH1 0x1 DUP3 PUSH1 0x3 ADD PUSH1 0x0 PUSH2 0x100 EXP DUP2 SLOAD DUP2 PUSH1 0xFF MUL NOT AND SWAP1 DUP4 ISZERO ISZERO MUL OR SWAP1 SSTORE POP POP POP POP JUMP JUMPDEST PUSH1 0x0 DUP1 SLOAD SWAP1 PUSH2 0x100 EXP SWAP1 DIV PUSH20 0xFFFFFFFFFFFFFFFFFFFFFFFFFFFFFFFFFFFFFFFF AND PUSH20 0xFFFFFFFFFFFFFFFFFFFFFFFFFFFFFFFFFFFFFFFF AND CALLER PUSH20 0xFFFFFFFFFFFFFFFFFFFFFFFFFFFFFFFFFFFFFFFF AND EQ PUSH2 0x523 JUMPI PUSH1 0x40 MLOAD PUSH32 0x8C379A000000000000000000000000000000000000000000000000000000000 DUP2 MSTORE PUSH1 0x4 ADD PUSH2 0x51A SWAP1 PUSH2 0xEFF JUMP JUMPDEST PUSH1 0x40 MLOAD DUP1 SWAP2 SUB SWAP1 REVERT JUMPDEST PUSH1 0x0 PUSH1 0x4 PUSH1 0x1 DUP2 PUSH1 0x1 DUP2 SLOAD ADD DUP1 DUP3 SSTORE DUP1 SWAP2 POP POP SUB SWAP1 PUSH1 0x0 MSTORE PUSH1 0x20 PUSH1 0x0 KECCAK256 SWAP1 PUSH1 0x6 MUL ADD SWAP1 POP DUP4 DUP2 PUSH1 0x0 ADD SWAP1 DUP1 MLOAD SWAP1 PUSH1 0x20 ADD SWAP1 PUSH2 0x55F SWAP3 SWAP2 SWAP1 PUSH2 0x9CC JUMP JUMPDEST POP DUP3 DUP2 PUSH1 0x1 ADD PUSH1 0x0 PUSH2 0x100 EXP DUP2 SLOAD DUP2 PUSH20 0xFFFFFFFFFFFFFFFFFFFFFFFFFFFFFFFFFFFFFFFF MUL NOT AND SWAP1 DUP4 PUSH20 0xFFFFFFFFFFFFFFFFFFFFFFFFFFFFFFFFFFFFFFFF AND MUL OR SWAP1 SSTORE POP DUP2 DUP2 PUSH1 0x2 ADD DUP2 SWAP1 SSTORE POP POP POP POP POP JUMP JUMPDEST PUSH1 0x2 PUSH1 0x20 MSTORE DUP1 PUSH1 0x0 MSTORE PUSH1 0x40 PUSH1 0x0 KECCAK256 PUSH1 0x0 SWAP2 POP SLOAD SWAP1 PUSH2 0x100 EXP SWAP1 DIV PUSH1 0xFF AND DUP2 JUMP JUMPDEST PUSH1 0x0 DUP1 SLOAD SWAP1 PUSH2 0x100 EXP SWAP1 DIV PUSH20 0xFFFFFFFFFFFFFFFFFFFFFFFFFFFFFFFFFFFFFFFF AND DUP2 JUMP JUMPDEST PUSH1 0x3 SLOAD DUP2 JUMP JUMPDEST PUSH1 0x4 DUP2 DUP2 SLOAD DUP2 LT PUSH2 0x60C JUMPI PUSH1 0x0 DUP1 REVERT JUMPDEST SWAP1 PUSH1 0x0 MSTORE PUSH1 0x20 PUSH1 0x0 KECCAK256 SWAP1 PUSH1 0x6 MUL ADD PUSH1 0x0 SWAP2 POP SWAP1 POP DUP1 PUSH1 0x0 ADD DUP1 SLOAD PUSH2 0x62F SWAP1 PUSH2 0x11BC JUMP JUMPDEST DUP1 PUSH1 0x1F ADD PUSH1 0x20 DUP1 SWAP2 DIV MUL PUSH1 0x20 ADD PUSH1 0x40 MLOAD SWAP1 DUP2 ADD PUSH1 0x40 MSTORE DUP1 SWAP3 SWAP2 SWAP1 DUP2 DUP2 MSTORE PUSH1 0x20 ADD DUP3 DUP1 SLOAD PUSH2 0x65B SWAP1 PUSH2 0x11BC JUMP JUMPDEST DUP1 ISZERO PUSH2 0x6A8 JUMPI DUP1 PUSH1 0x1F LT PUSH2 0x67D JUMPI PUSH2 0x100 DUP1 DUP4 SLOAD DIV MUL DUP4 MSTORE SWAP2 PUSH1 0x20 ADD SWAP2 PUSH2 0x6A8 JUMP JUMPDEST DUP3 ADD SWAP2 SWAP1 PUSH1 0x0 MSTORE PUSH1 0x20 PUSH1 0x0 KECCAK256 SWAP1 JUMPDEST DUP2 SLOAD DUP2 MSTORE SWAP1 PUSH1 0x1 ADD SWAP1 PUSH1 0x20 ADD DUP1 DUP4 GT PUSH2 0x68B JUMPI DUP3 SWAP1 SUB PUSH1 0x1F AND DUP3 ADD SWAP2 JUMPDEST POP POP POP POP POP SWAP1 DUP1 PUSH1 0x1 ADD PUSH1 0x0 SWAP1 SLOAD SWAP1 PUSH2 0x100 EXP SWAP1 DIV PUSH20 0xFFFFFFFFFFFFFFFFFFFFFFFFFFFFFFFFFFFFFFFF AND SWAP1 DUP1 PUSH1 0x2 ADD SLOAD SWAP1 DUP1 PUSH1 0x3 ADD PUSH1 0x0 SWAP1 SLOAD SWAP1 PUSH2 0x100 EXP SWAP1 DIV PUSH1 0xFF AND SWAP1 DUP1 PUSH1 0x5 ADD SLOAD SWAP1 POP DUP6 JUMP JUMPDEST PUSH1 0x1 SLOAD DUP2 JUMP JUMPDEST PUSH1 0x1 SLOAD CALLVALUE LT ISZERO PUSH2 0x742 JUMPI PUSH1 0x40 MLOAD PUSH32 0x8C379A000000000000000000000000000000000000000000000000000000000 DUP2 MSTORE PUSH1 0x4 ADD PUSH2 0x739 SWAP1 PUSH2 0x123A JUMP JUMPDEST PUSH1 0x40 MLOAD DUP1 SWAP2 SUB SWAP1 REVERT JUMPDEST PUSH1 0x2 PUSH1 0x0 CALLER PUSH20 0xFFFFFFFFFFFFFFFFFFFFFFFFFFFFFFFFFFFFFFFF AND PUSH20 0xFFFFFFFFFFFFFFFFFFFFFFFFFFFFFFFFFFFFFFFF AND DUP2 MSTORE PUSH1 0x20 ADD SWAP1 DUP2 MSTORE PUSH1 0x20 ADD PUSH1 0x0 KECCAK256 PUSH1 0x0 SWAP1 SLOAD SWAP1 PUSH2 0x100 EXP SWAP1 DIV PUSH1 0xFF AND PUSH2 0x804 JUMPI PUSH1 0x1 PUSH1 0x2 PUSH1 0x0 CALLER PUSH20 0xFFFFFFFFFFFFFFFFFFFFFFFFFFFFFFFFFFFFFFFF AND PUSH20 0xFFFFFFFFFFFFFFFFFFFFFFFFFFFFFFFFFFFFFFFF AND DUP2 MSTORE PUSH1 0x20 ADD SWAP1 DUP2 MSTORE PUSH1 0x20 ADD PUSH1 0x0 KECCAK256 PUSH1 0x0 PUSH2 0x100 EXP DUP2 SLOAD DUP2 PUSH1 0xFF MUL NOT AND SWAP1 DUP4 ISZERO ISZERO MUL OR SWAP1 SSTORE POP PUSH1 0x3 PUSH1 0x0 DUP2 SLOAD DUP1 SWAP3 SWAP2 SWAP1 PUSH2 0x7FE SWAP1 PUSH2 0x125A JUMP JUMPDEST SWAP2 SWAP1 POP SSTORE POP JUMPDEST JUMP JUMPDEST PUSH1 0x0 PUSH1 0x4 DUP3 DUP2 SLOAD DUP2 LT PUSH2 0x81C JUMPI PUSH2 0x81B PUSH2 0xF1F JUMP JUMPDEST JUMPDEST SWAP1 PUSH1 0x0 MSTORE PUSH1 0x20 PUSH1 0x0 KECCAK256 SWAP1 PUSH1 0x6 MUL ADD SWAP1 POP PUSH1 0x2 PUSH1 0x0 CALLER PUSH20 0xFFFFFFFFFFFFFFFFFFFFFFFFFFFFFFFFFFFFFFFF AND PUSH20 0xFFFFFFFFFFFFFFFFFFFFFFFFFFFFFFFFFFFFFFFF AND DUP2 MSTORE PUSH1 0x20 ADD SWAP1 DUP2 MSTORE PUSH1 0x20 ADD PUSH1 0x0 KECCAK256 PUSH1 0x0 SWAP1 SLOAD SWAP1 PUSH2 0x100 EXP SWAP1 DIV PUSH1 0xFF AND PUSH2 0x8B8 JUMPI PUSH1 0x40 MLOAD PUSH32 0x8C379A000000000000000000000000000000000000000000000000000000000 DUP2 MSTORE PUSH1 0x4 ADD PUSH2 0x8AF SWAP1 PUSH2 0x12EF JUMP JUMPDEST PUSH1 0x40 MLOAD DUP1 SWAP2 SUB SWAP1 REVERT JUMPDEST DUP1 PUSH1 0x4 ADD PUSH1 0x0 CALLER PUSH20 0xFFFFFFFFFFFFFFFFFFFFFFFFFFFFFFFFFFFFFFFF AND PUSH20 0xFFFFFFFFFFFFFFFFFFFFFFFFFFFFFFFFFFFFFFFF AND DUP2 MSTORE PUSH1 0x20 ADD SWAP1 DUP2 MSTORE PUSH1 0x20 ADD PUSH1 0x0 KECCAK256 PUSH1 0x0 SWAP1 SLOAD SWAP1 PUSH2 0x100 EXP SWAP1 DIV PUSH1 0xFF AND ISZERO PUSH2 0x947 JUMPI PUSH1 0x40 MLOAD PUSH32 0x8C379A000000000000000000000000000000000000000000000000000000000 DUP2 MSTORE PUSH1 0x4 ADD PUSH2 0x93E SWAP1 PUSH2 0x135B JUMP JUMPDEST PUSH1 0x40 MLOAD DUP1 SWAP2 SUB SWAP1 REVERT JUMPDEST PUSH1 0x1 DUP2 PUSH1 0x4 ADD PUSH1 0x0 CALLER PUSH20 0xFFFFFFFFFFFFFFFFFFFFFFFFFFFFFFFFFFFFFFFF AND PUSH20 0xFFFFFFFFFFFFFFFFFFFFFFFFFFFFFFFFFFFFFFFF AND DUP2 MSTORE PUSH1 0x20 ADD SWAP1 DUP2 MSTORE PUSH1 0x20 ADD PUSH1 0x0 KECCAK256 PUSH1 0x0 PUSH2 0x100 EXP DUP2 SLOAD DUP2 PUSH1 0xFF MUL NOT AND SWAP1 DUP4 ISZERO ISZERO MUL OR SWAP1 SSTORE POP DUP1 PUSH1 0x5 ADD PUSH1 0x0 DUP2 SLOAD DUP1 SWAP3 SWAP2 SWAP1 PUSH2 0x9B6 SWAP1 PUSH2 0x125A JUMP JUMPDEST SWAP2 SWAP1 POP SSTORE POP POP POP JUMP JUMPDEST PUSH1 0x0 PUSH1 0x4 DUP1 SLOAD SWAP1 POP SWAP1 POP SWAP1 JUMP JUMPDEST DUP3 DUP1 SLOAD PUSH2 0x9D8 SWAP1 PUSH2 0x11BC JUMP JUMPDEST SWAP1 PUSH1 0x0 MSTORE PUSH1 0x20 PUSH1 0x0 KECCAK256 SWAP1 PUSH1 0x1F ADD PUSH1 0x20 SWAP1 DIV DUP2 ADD SWAP3 DUP3 PUSH2 0x9FA JUMPI PUSH1 0x0 DUP6 SSTORE PUSH2 0xA41 JUMP JUMPDEST DUP3 PUSH1 0x1F LT PUSH2 0xA13 JUMPI DUP1 MLOAD PUSH1 0xFF NOT AND DUP4 DUP1 ADD OR DUP6 SSTORE PUSH2 0xA41 JUMP JUMPDEST DUP3 DUP1 ADD PUSH1 0x1 ADD DUP6 SSTORE DUP3 ISZERO PUSH2 0xA41 JUMPI SWAP2 DUP3 ADD JUMPDEST DUP3 DUP2 GT ISZERO PUSH2 0xA40 JUMPI DUP3 MLOAD DUP3 SSTORE SWAP2 PUSH1 0x20 ADD SWAP2 SWAP1 PUSH1 0x1 ADD SWAP1 PUSH2 0xA25 JUMP JUMPDEST JUMPDEST POP SWAP1 POP PUSH2 0xA4E SWAP2 SWAP1 PUSH2 0xA52 JUMP JUMPDEST POP SWAP1 JUMP JUMPDEST JUMPDEST DUP1 DUP3 GT ISZERO PUSH2 0xA6B JUMPI PUSH1 0x0 DUP2 PUSH1 0x0 SWAP1 SSTORE POP PUSH1 0x1 ADD PUSH2 0xA53 JUMP JUMPDEST POP SWAP1 JUMP JUMPDEST PUSH1 0x0 PUSH1 0x40 MLOAD SWAP1 POP SWAP1 JUMP JUMPDEST PUSH1 0x0 DUP1 REVERT JUMPDEST PUSH1 0x0 DUP1 REVERT JUMPDEST PUSH1 0x0 DUP2 SWAP1 POP SWAP2 SWAP1 POP JUMP JUMPDEST PUSH2 0xA96 DUP2 PUSH2 0xA83 JUMP JUMPDEST DUP2 EQ PUSH2 0xAA1 JUMPI PUSH1 0x0 DUP1 REVERT JUMPDEST POP JUMP JUMPDEST PUSH1 0x0 DUP2 CALLDATALOAD SWAP1 POP PUSH2 0xAB3 DUP2 PUSH2 0xA8D JUMP JUMPDEST SWAP3 SWAP2 POP POP JUMP JUMPDEST PUSH1 0x0 PUSH1 0x20 DUP3 DUP5 SUB SLT ISZERO PUSH2 0xACF JUMPI PUSH2 0xACE PUSH2 0xA79 JUMP JUMPDEST JUMPDEST PUSH1 0x0 PUSH2 0xADD DUP5 DUP3 DUP6 ADD PUSH2 0xAA4 JUMP JUMPDEST SWAP2 POP POP SWAP3 SWAP2 POP POP JUMP JUMPDEST PUSH1 0x0 DUP1 REVERT JUMPDEST PUSH1 0x0 DUP1 REVERT JUMPDEST PUSH1 0x0 PUSH1 0x1F NOT PUSH1 0x1F DUP4 ADD AND SWAP1 POP SWAP2 SWAP1 POP JUMP JUMPDEST PUSH32 0x4E487B7100000000000000000000000000000000000000000000000000000000 PUSH1 0x0 MSTORE PUSH1 0x41 PUSH1 0x4 MSTORE PUSH1 0x24 PUSH1 0x0 REVERT JUMPDEST PUSH2 0xB39 DUP3 PUSH2 0xAF0 JUMP JUMPDEST DUP2 ADD DUP2 DUP2 LT PUSH8 0xFFFFFFFFFFFFFFFF DUP3 GT OR ISZERO PUSH2 0xB58 JUMPI PUSH2 0xB57 PUSH2 0xB01 JUMP JUMPDEST JUMPDEST DUP1 PUSH1 0x40 MSTORE POP POP POP JUMP JUMPDEST PUSH1 0x0 PUSH2 0xB6B PUSH2 0xA6F JUMP JUMPDEST SWAP1 POP PUSH2 0xB77 DUP3 DUP3 PUSH2 0xB30 JUMP JUMPDEST SWAP2 SWAP1 POP JUMP JUMPDEST PUSH1 0x0 PUSH8 0xFFFFFFFFFFFFFFFF DUP3 GT ISZERO PUSH2 0xB97 JUMPI PUSH2 0xB96 PUSH2 0xB01 JUMP JUMPDEST JUMPDEST PUSH2 0xBA0 DUP3 PUSH2 0xAF0 JUMP JUMPDEST SWAP1 POP PUSH1 0x20 DUP2 ADD SWAP1 POP SWAP2 SWAP1 POP JUMP JUMPDEST DUP3 DUP2 DUP4 CALLDATACOPY PUSH1 0x0 DUP4 DUP4 ADD MSTORE POP POP POP JUMP JUMPDEST PUSH1 0x0 PUSH2 0xBCF PUSH2 0xBCA DUP5 PUSH2 0xB7C JUMP JUMPDEST PUSH2 0xB61 JUMP JUMPDEST SWAP1 POP DUP3 DUP2 MSTORE PUSH1 0x20 DUP2 ADD DUP5 DUP5 DUP5 ADD GT ISZERO PUSH2 0xBEB JUMPI PUSH2 0xBEA PUSH2 0xAEB JUMP JUMPDEST JUMPDEST PUSH2 0xBF6 DUP5 DUP3 DUP6 PUSH2 0xBAD JUMP JUMPDEST POP SWAP4 SWAP3 POP POP POP JUMP JUMPDEST PUSH1 0x0 DUP3 PUSH1 0x1F DUP4 ADD SLT PUSH2 0xC13 JUMPI PUSH2 0xC12 PUSH2 0xAE6 JUMP JUMPDEST JUMPDEST DUP2 CALLDATALOAD PUSH2 0xC23 DUP5 DUP3 PUSH1 0x20 DUP7 ADD PUSH2 0xBBC JUMP JUMPDEST SWAP2 POP POP SWAP3 SWAP2 POP POP JUMP JUMPDEST PUSH1 0x0 PUSH20 0xFFFFFFFFFFFFFFFFFFFFFFFFFFFFFFFFFFFFFFFF DUP3 AND SWAP1 POP SWAP2 SWAP1 POP JUMP JUMPDEST PUSH1 0x0 PUSH2 0xC57 DUP3 PUSH2 0xC2C JUMP JUMPDEST SWAP1 POP SWAP2 SWAP1 POP JUMP JUMPDEST PUSH2 0xC67 DUP2 PUSH2 0xC4C JUMP JUMPDEST DUP2 EQ PUSH2 0xC72 JUMPI PUSH1 0x0 DUP1 REVERT JUMPDEST POP JUMP JUMPDEST PUSH1 0x0 DUP2 CALLDATALOAD SWAP1 POP PUSH2 0xC84 DUP2 PUSH2 0xC5E JUMP JUMPDEST SWAP3 SWAP2 POP POP JUMP JUMPDEST PUSH1 0x0 DUP1 PUSH1 0x0 PUSH1 0x60 DUP5 DUP7 SUB SLT ISZERO PUSH2 0xCA3 JUMPI PUSH2 0xCA2 PUSH2 0xA79 JUMP JUMPDEST JUMPDEST PUSH1 0x0 DUP5 ADD CALLDATALOAD PUSH8 0xFFFFFFFFFFFFFFFF DUP2 GT ISZERO PUSH2 0xCC1 JUMPI PUSH2 0xCC0 PUSH2 0xA7E JUMP JUMPDEST JUMPDEST PUSH2 0xCCD DUP7 DUP3 DUP8 ADD PUSH2 0xBFE JUMP JUMPDEST SWAP4 POP POP PUSH1 0x20 PUSH2 0xCDE DUP7 DUP3 DUP8 ADD PUSH2 0xC75 JUMP JUMPDEST SWAP3 POP POP PUSH1 0x40 PUSH2 0xCEF DUP7 DUP3 DUP8 ADD PUSH2 0xAA4 JUMP JUMPDEST SWAP2 POP POP SWAP3 POP SWAP3 POP SWAP3 JUMP JUMPDEST PUSH1 0x0 PUSH1 0x20 DUP3 DUP5 SUB SLT ISZERO PUSH2 0xD0F JUMPI PUSH2 0xD0E PUSH2 0xA79 JUMP JUMPDEST JUMPDEST PUSH1 0x0 PUSH2 0xD1D DUP5 DUP3 DUP6 ADD PUSH2 0xC75 JUMP JUMPDEST SWAP2 POP POP SWAP3 SWAP2 POP POP JUMP JUMPDEST PUSH1 0x0 DUP2 ISZERO ISZERO SWAP1 POP SWAP2 SWAP1 POP JUMP JUMPDEST PUSH2 0xD3B DUP2 PUSH2 0xD26 JUMP JUMPDEST DUP3 MSTORE POP POP JUMP JUMPDEST PUSH1 0x0 PUSH1 0x20 DUP3 ADD SWAP1 POP PUSH2 0xD56 PUSH1 0x0 DUP4 ADD DUP5 PUSH2 0xD32 JUMP JUMPDEST SWAP3 SWAP2 POP POP JUMP JUMPDEST PUSH2 0xD65 DUP2 PUSH2 0xC4C JUMP JUMPDEST DUP3 MSTORE POP POP JUMP JUMPDEST PUSH1 0x0 PUSH1 0x20 DUP3 ADD SWAP1 POP PUSH2 0xD80 PUSH1 0x0 DUP4 ADD DUP5 PUSH2 0xD5C JUMP JUMPDEST SWAP3 SWAP2 POP POP JUMP JUMPDEST PUSH2 0xD8F DUP2 PUSH2 0xA83 JUMP JUMPDEST DUP3 MSTORE POP POP JUMP JUMPDEST PUSH1 0x0 PUSH1 0x20 DUP3 ADD SWAP1 POP PUSH2 0xDAA PUSH1 0x0 DUP4 ADD DUP5 PUSH2 0xD86 JUMP JUMPDEST SWAP3 SWAP2 POP POP JUMP JUMPDEST PUSH1 0x0 DUP2 MLOAD SWAP1 POP SWAP2 SWAP1 POP JUMP JUMPDEST PUSH1 0x0 DUP3 DUP3 MSTORE PUSH1 0x20 DUP3 ADD SWAP1 POP SWAP3 SWAP2 POP POP JUMP JUMPDEST PUSH1 0x0 JUMPDEST DUP4 DUP2 LT ISZERO PUSH2 0xDEA JUMPI DUP1 DUP3 ADD MLOAD DUP2 DUP5 ADD MSTORE PUSH1 0x20 DUP2 ADD SWAP1 POP PUSH2 0xDCF JUMP JUMPDEST DUP4 DUP2 GT ISZERO PUSH2 0xDF9 JUMPI PUSH1 0x0 DUP5 DUP5 ADD MSTORE JUMPDEST POP POP POP POP JUMP JUMPDEST PUSH1 0x0 PUSH2 0xE0A DUP3 PUSH2 0xDB0 JUMP JUMPDEST PUSH2 0xE14 DUP2 DUP6 PUSH2 0xDBB JUMP JUMPDEST SWAP4 POP PUSH2 0xE24 DUP2 DUP6 PUSH1 0x20 DUP7 ADD PUSH2 0xDCC JUMP JUMPDEST PUSH2 0xE2D DUP2 PUSH2 0xAF0 JUMP JUMPDEST DUP5 ADD SWAP2 POP POP SWAP3 SWAP2 POP POP JUMP JUMPDEST PUSH1 0x0 PUSH2 0xE43 DUP3 PUSH2 0xC2C JUMP JUMPDEST SWAP1 POP SWAP2 SWAP1 POP JUMP JUMPDEST PUSH2 0xE53 DUP2 PUSH2 0xE38 JUMP JUMPDEST DUP3 MSTORE POP POP JUMP JUMPDEST PUSH1 0x0 PUSH1 0xA0 DUP3 ADD SWAP1 POP DUP2 DUP2 SUB PUSH1 0x0 DUP4 ADD MSTORE PUSH2 0xE73 DUP2 DUP9 PUSH2 0xDFF JUMP JUMPDEST SWAP1 POP PUSH2 0xE82 PUSH1 0x20 DUP4 ADD DUP8 PUSH2 0xE4A JUMP JUMPDEST PUSH2 0xE8F PUSH1 0x40 DUP4 ADD DUP7 PUSH2 0xD86 JUMP JUMPDEST PUSH2 0xE9C PUSH1 0x60 DUP4 ADD DUP6 PUSH2 0xD32 JUMP JUMPDEST PUSH2 0xEA9 PUSH1 0x80 DUP4 ADD DUP5 PUSH2 0xD86 JUMP JUMPDEST SWAP7 SWAP6 POP POP POP POP POP POP JUMP JUMPDEST PUSH32 0x43616C6C6572206973206E6F742061206D616E61676572000000000000000000 PUSH1 0x0 DUP3 ADD MSTORE POP JUMP JUMPDEST PUSH1 0x0 PUSH2 0xEE9 PUSH1 0x17 DUP4 PUSH2 0xDBB JUMP JUMPDEST SWAP2 POP PUSH2 0xEF4 DUP3 PUSH2 0xEB3 JUMP JUMPDEST PUSH1 0x20 DUP3 ADD SWAP1 POP SWAP2 SWAP1 POP JUMP JUMPDEST PUSH1 0x0 PUSH1 0x20 DUP3 ADD SWAP1 POP DUP2 DUP2 SUB PUSH1 0x0 DUP4 ADD MSTORE PUSH2 0xF18 DUP2 PUSH2 0xEDC JUMP JUMPDEST SWAP1 POP SWAP2 SWAP1 POP JUMP JUMPDEST PUSH32 0x4E487B7100000000000000000000000000000000000000000000000000000000 PUSH1 0x0 MSTORE PUSH1 0x32 PUSH1 0x4 MSTORE PUSH1 0x24 PUSH1 0x0 REVERT JUMPDEST PUSH32 0x5265717565737420697320636F6D706C65746564000000000000000000000000 PUSH1 0x0 DUP3 ADD MSTORE POP JUMP JUMPDEST PUSH1 0x0 PUSH2 0xF84 PUSH1 0x14 DUP4 PUSH2 0xDBB JUMP JUMPDEST SWAP2 POP PUSH2 0xF8F DUP3 PUSH2 0xF4E JUMP JUMPDEST PUSH1 0x20 DUP3 ADD SWAP1 POP SWAP2 SWAP1 POP JUMP JUMPDEST PUSH1 0x0 PUSH1 0x20 DUP3 ADD SWAP1 POP DUP2 DUP2 SUB PUSH1 0x0 DUP4 ADD MSTORE PUSH2 0xFB3 DUP2 PUSH2 0xF77 JUMP JUMPDEST SWAP1 POP SWAP2 SWAP1 POP JUMP JUMPDEST PUSH32 0x4E487B7100000000000000000000000000000000000000000000000000000000 PUSH1 0x0 MSTORE PUSH1 0x12 PUSH1 0x4 MSTORE PUSH1 0x24 PUSH1 0x0 REVERT JUMPDEST PUSH32 0x4E487B7100000000000000000000000000000000000000000000000000000000 PUSH1 0x0 MSTORE PUSH1 0x11 PUSH1 0x4 MSTORE PUSH1 0x24 PUSH1 0x0 REVERT JUMPDEST PUSH1 0x0 PUSH2 0x1023 DUP3 PUSH2 0xA83 JUMP JUMPDEST SWAP2 POP PUSH2 0x102E DUP4 PUSH2 0xA83 JUMP JUMPDEST SWAP3 POP DUP3 PUSH2 0x103E JUMPI PUSH2 0x103D PUSH2 0xFBA JUMP JUMPDEST JUMPDEST DUP3 DUP3 DIV SWAP1 POP SWAP3 SWAP2 POP POP JUMP JUMPDEST PUSH32 0x5265717565737420686173206E6F7420656E6F7567687420617070726F76616C PUSH1 0x0 DUP3 ADD MSTORE PUSH32 0x7300000000000000000000000000000000000000000000000000000000000000 PUSH1 0x20 DUP3 ADD MSTORE POP JUMP JUMPDEST PUSH1 0x0 PUSH2 0x10A5 PUSH1 0x21 DUP4 PUSH2 0xDBB JUMP JUMPDEST SWAP2 POP PUSH2 0x10B0 DUP3 PUSH2 0x1049 JUMP JUMPDEST PUSH1 0x40 DUP3 ADD SWAP1 POP SWAP2 SWAP1 POP JUMP JUMPDEST PUSH1 0x0 PUSH1 0x20 DUP3 ADD SWAP1 POP DUP2 DUP2 SUB PUSH1 0x0 DUP4 ADD MSTORE PUSH2 0x10D4 DUP2 PUSH2 0x1098 JUMP JUMPDEST SWAP1 POP SWAP2 SWAP1 POP JUMP JUMPDEST PUSH1 0x0 DUP2 SWAP1 POP SWAP3 SWAP2 POP POP JUMP JUMPDEST POP JUMP JUMPDEST PUSH1 0x0 PUSH2 0x10F6 PUSH1 0x0 DUP4 PUSH2 0x10DB JUMP JUMPDEST SWAP2 POP PUSH2 0x1101 DUP3 PUSH2 0x10E6 JUMP JUMPDEST PUSH1 0x0 DUP3 ADD SWAP1 POP SWAP2 SWAP1 POP JUMP JUMPDEST PUSH1 0x0 PUSH2 0x1117 DUP3 PUSH2 0x10E9 JUMP JUMPDEST SWAP2 POP DUP2 SWAP1 POP SWAP2 SWAP1 POP JUMP JUMPDEST PUSH32 0x4661696C75726521204574686572206E6F742073656E74000000000000000000 PUSH1 0x0 DUP3 ADD MSTORE POP JUMP JUMPDEST PUSH1 0x0 PUSH2 0x1157 PUSH1 0x17 DUP4 PUSH2 0xDBB JUMP JUMPDEST SWAP2 POP PUSH2 0x1162 DUP3 PUSH2 0x1121 JUMP JUMPDEST PUSH1 0x20 DUP3 ADD SWAP1 POP SWAP2 SWAP1 POP JUMP JUMPDEST PUSH1 0x0 PUSH1 0x20 DUP3 ADD SWAP1 POP DUP2 DUP2 SUB PUSH1 0x0 DUP4 ADD MSTORE PUSH2 0x1186 DUP2 PUSH2 0x114A JUMP JUMPDEST SWAP1 POP SWAP2 SWAP1 POP JUMP JUMPDEST PUSH32 0x4E487B7100000000000000000000000000000000000000000000000000000000 PUSH1 0x0 MSTORE PUSH1 0x22 PUSH1 0x4 MSTORE PUSH1 0x24 PUSH1 0x0 REVERT JUMPDEST PUSH1 0x0 PUSH1 0x2 DUP3 DIV SWAP1 POP PUSH1 0x1 DUP3 AND DUP1 PUSH2 0x11D4 JUMPI PUSH1 0x7F DUP3 AND SWAP2 POP JUMPDEST PUSH1 0x20 DUP3 LT DUP2 EQ ISZERO PUSH2 0x11E8 JUMPI PUSH2 0x11E7 PUSH2 0x118D JUMP JUMPDEST JUMPDEST POP SWAP2 SWAP1 POP JUMP JUMPDEST PUSH32 0x4D696E696D756D20636F6E747269627574696F6E206973207265717569726564 PUSH1 0x0 DUP3 ADD MSTORE POP JUMP JUMPDEST PUSH1 0x0 PUSH2 0x1224 PUSH1 0x20 DUP4 PUSH2 0xDBB JUMP JUMPDEST SWAP2 POP PUSH2 0x122F DUP3 PUSH2 0x11EE JUMP JUMPDEST PUSH1 0x20 DUP3 ADD SWAP1 POP SWAP2 SWAP1 POP JUMP JUMPDEST PUSH1 0x0 PUSH1 0x20 DUP3 ADD SWAP1 POP DUP2 DUP2 SUB PUSH1 0x0 DUP4 ADD MSTORE PUSH2 0x1253 DUP2 PUSH2 0x1217 JUMP JUMPDEST SWAP1 POP SWAP2 SWAP1 POP JUMP JUMPDEST PUSH1 0x0 PUSH2 0x1265 DUP3 PUSH2 0xA83 JUMP JUMPDEST SWAP2 POP PUSH32 0xFFFFFFFFFFFFFFFFFFFFFFFFFFFFFFFFFFFFFFFFFFFFFFFFFFFFFFFFFFFFFFFF DUP3 EQ ISZERO PUSH2 0x1298 JUMPI PUSH2 0x1297 PUSH2 0xFE9 JUMP JUMPDEST JUMPDEST PUSH1 0x1 DUP3 ADD SWAP1 POP SWAP2 SWAP1 POP JUMP JUMPDEST PUSH32 0x43616C6C6572206973206E6F74206120636F6E7472696275746F720000000000 PUSH1 0x0 DUP3 ADD MSTORE POP JUMP JUMPDEST PUSH1 0x0 PUSH2 0x12D9 PUSH1 0x1B DUP4 PUSH2 0xDBB JUMP JUMPDEST SWAP2 POP PUSH2 0x12E4 DUP3 PUSH2 0x12A3 JUMP JUMPDEST PUSH1 0x20 DUP3 ADD SWAP1 POP SWAP2 SWAP1 POP JUMP JUMPDEST PUSH1 0x0 PUSH1 0x20 DUP3 ADD SWAP1 POP DUP2 DUP2 SUB PUSH1 0x0 DUP4 ADD MSTORE PUSH2 0x1308 DUP2 PUSH2 0x12CC JUMP JUMPDEST SWAP1 POP SWAP2 SWAP1 POP JUMP JUMPDEST PUSH32 0x526571756573742077617320616C726561647920617070726F76656400000000 PUSH1 0x0 DUP3 ADD MSTORE POP JUMP JUMPDEST PUSH1 0x0 PUSH2 0x1345 PUSH1 0x1C DUP4 PUSH2 0xDBB JUMP JUMPDEST SWAP2 POP PUSH2 0x1350 DUP3 PUSH2 0x130F JUMP JUMPDEST PUSH1 0x20 DUP3 ADD SWAP1 POP SWAP2 SWAP1 POP JUMP JUMPDEST PUSH1 0x0 PUSH1 0x20 DUP3 ADD SWAP1 POP DUP2 DUP2 SUB PUSH1 0x0 DUP4 ADD MSTORE PUSH2 0x1374 DUP2 PUSH2 0x1338 JUMP JUMPDEST SWAP1 POP SWAP2 SWAP1 POP JUMP INVALID LOG2 PUSH5 0x6970667358 0x22 SLT KECCAK256 BASEFEE PUSH25 0xF570AB7C8A71A3B57170F397B27EBE3C2F164717CA080EA51C 0x2C 0xDB 0xCA 0xCE PUSH29 0x64736F6C634300080C0033A2646970667358221220D075651DF3C22243 CALLVALUE PUSH7 0xB1EB89F31A0228 DUP6 PUSH3 0x5EB0C7 0xEF DUP14 0xE5 EXTCODESIZE PUSH11 0x4A9C2365C164736F6C6343 STOP ADDMOD 0xC STOP CALLER "
    },
    "gasEstimates": {
      "creation": {
        "codeDepositCost": "1324200",
        "executionCost": "1376",
        "totalCost": "1325576"
      },
      "external": {
        "createCampaign(address,uint256)": "infinite",
        "deployedCampaigns(uint256)": "4956",
        "getDeployedCampaigns()": "infinite"
      }
    },
    "methodIdentifiers": {
      "createCampaign(address,uint256)": "064e1faf",
      "deployedCampaigns(uint256)": "339d50a5",
      "getDeployedCampaigns()": "4acb9d4f"
    }
  },
  "storageLayout": {
    "storage": [
      {
        "astId": 4,
        "contract": "Campaign.sol:CampaignFactory",
        "label": "deployedCampaigns",
        "offset": 0,
        "slot": "0",
        "type": "t_array(t_address)dyn_storage"
      }
    ],
    "types": {
      "t_address": {
        "encoding": "inplace",
        "label": "address",
        "numberOfBytes": "20"
      },
      "t_array(t_address)dyn_storage": {
        "base": "t_address",
        "encoding": "dynamic_array",
        "label": "address[]",
        "numberOfBytes": "32"
      }
    }
  },
  "userdoc": {
    "kind": "user",
    "methods": {},
    "version": 1
  }
}