{
  "abi": [
    {
      "inputs": [
        {
          "internalType": "string",
          "name": "value",
          "type": "string"
        }
      ],
      "stateMutability": "nonpayable",
      "type": "constructor"
    },
    {
      "anonymous": false,
      "inputs": [
        {
          "indexed": true,
          "internalType": "address",
          "name": "author",
          "type": "address"
        },
        {
          "indexed": false,
          "internalType": "string",
          "name": "oldValue",
          "type": "string"
        },
        {
          "indexed": false,
          "internalType": "string",
          "name": "newValue",
          "type": "string"
        }
      ],
      "name": "ValueChanged",
      "type": "event"
    },
    {
      "inputs": [],
      "name": "getValue",
      "outputs": [
        {
          "internalType": "string",
          "name": "",
          "type": "string"
        }
      ],
      "stateMutability": "view",
      "type": "function"
    },
    {
      "inputs": [
        {
          "internalType": "string",
          "name": "value",
          "type": "string"
        }
      ],
      "name": "setValue",
      "outputs": [],
      "stateMutability": "nonpayable",
      "type": "function"
    }
  ],
  "devdoc": {
    "kind": "dev",
    "methods": {},
    "version": 1
  },
  "evm": {
    "assembly": "    /* \"SimpleStorage.sol\":35:543  contract SimpleStorage {... */\n  mstore(0x40, 0x80)\n    /* \"SimpleStorage.sol\":174:302  constructor(string memory value) public {... */\n  callvalue\n  dup1\n  iszero\n  tag_1\n  jumpi\n  0x00\n  dup1\n  revert\ntag_1:\n  pop\n  mload(0x40)\n  sub(codesize, bytecodeSize)\n  dup1\n  bytecodeSize\n  dup4\n  codecopy\n  dup2\n  dup2\n  add\n  0x40\n  mstore\n  dup2\n  add\n  swap1\n  tag_2\n  swap2\n  swap1\n  tag_3\n  jump\t// in\ntag_2:\n    /* \"SimpleStorage.sol\":243:253  msg.sender */\n  caller\n    /* \"SimpleStorage.sol\":230:269  ValueChanged(msg.sender, _value, value) */\n  0xffffffffffffffffffffffffffffffffffffffff\n  and\n  0xe826f71647b8486f2bae59832124c70792fba044036720a54ec8dacdd5df4fcb\n    /* \"SimpleStorage.sol\":255:261  _value */\n  0x00\n    /* \"SimpleStorage.sol\":263:268  value */\n  dup4\n    /* \"SimpleStorage.sol\":230:269  ValueChanged(msg.sender, _value, value) */\n  mload(0x40)\n  tag_6\n  swap3\n  swap2\n  swap1\n  tag_7\n  jump\t// in\ntag_6:\n  mload(0x40)\n  dup1\n  swap2\n  sub\n  swap1\n  log2\n    /* \"SimpleStorage.sol\":289:294  value */\n  dup1\n    /* \"SimpleStorage.sol\":280:286  _value */\n  0x00\n    /* \"SimpleStorage.sol\":280:294  _value = value */\n  swap1\n  dup1\n  mload\n  swap1\n  0x20\n  add\n  swap1\n  tag_8\n  swap3\n  swap2\n  swap1\n  tag_9\n  jump\t// in\ntag_8:\n  pop\n    /* \"SimpleStorage.sol\":174:302  constructor(string memory value) public {... */\n  pop\n    /* \"SimpleStorage.sol\":35:543  contract SimpleStorage {... */\n  jump(tag_10)\ntag_9:\n  dup3\n  dup1\n  sload\n  tag_11\n  swap1\n  tag_12\n  jump\t// in\ntag_11:\n  swap1\n  0x00\n  mstore\n  keccak256(0x00, 0x20)\n  swap1\n  0x1f\n  add\n  0x20\n  swap1\n  div\n  dup2\n  add\n  swap3\n  dup3\n  tag_14\n  jumpi\n  0x00\n  dup6\n  sstore\n  jump(tag_13)\ntag_14:\n  dup3\n  0x1f\n  lt\n  tag_15\n  jumpi\n  dup1\n  mload\n  not(0xff)\n  and\n  dup4\n  dup1\n  add\n  or\n  dup6\n  sstore\n  jump(tag_13)\ntag_15:\n  dup3\n  dup1\n  add\n  0x01\n  add\n  dup6\n  sstore\n  dup3\n  iszero\n  tag_13\n  jumpi\n  swap2\n  dup3\n  add\ntag_16:\n  dup3\n  dup2\n  gt\n  iszero\n  tag_17\n  jumpi\n  dup3\n  mload\n  dup3\n  sstore\n  swap2\n  0x20\n  add\n  swap2\n  swap1\n  0x01\n  add\n  swap1\n  jump(tag_16)\ntag_17:\ntag_13:\n  pop\n  swap1\n  pop\n  tag_18\n  swap2\n  swap1\n  tag_19\n  jump\t// in\ntag_18:\n  pop\n  swap1\n  jump\t// out\ntag_19:\ntag_20:\n  dup1\n  dup3\n  gt\n  iszero\n  tag_21\n  jumpi\n  0x00\n  dup2\n  0x00\n  swap1\n  sstore\n  pop\n  0x01\n  add\n  jump(tag_20)\ntag_21:\n  pop\n  swap1\n  jump\t// out\n    /* \"#utility.yul\":7:82   */\ntag_22:\n    /* \"#utility.yul\":40:46   */\n  0x00\n    /* \"#utility.yul\":73:75   */\n  0x40\n    /* \"#utility.yul\":67:76   */\n  mload\n    /* \"#utility.yul\":57:76   */\n  swap1\n  pop\n    /* \"#utility.yul\":7:82   */\n  swap1\n  jump\t// out\n    /* \"#utility.yul\":88:205   */\ntag_23:\n    /* \"#utility.yul\":197:198   */\n  0x00\n    /* \"#utility.yul\":194:195   */\n  dup1\n    /* \"#utility.yul\":187:199   */\n  revert\n    /* \"#utility.yul\":211:328   */\ntag_24:\n    /* \"#utility.yul\":320:321   */\n  0x00\n    /* \"#utility.yul\":317:318   */\n  dup1\n    /* \"#utility.yul\":310:322   */\n  revert\n    /* \"#utility.yul\":334:451   */\ntag_25:\n    /* \"#utility.yul\":443:444   */\n  0x00\n    /* \"#utility.yul\":440:441   */\n  dup1\n    /* \"#utility.yul\":433:445   */\n  revert\n    /* \"#utility.yul\":457:574   */\ntag_26:\n    /* \"#utility.yul\":566:567   */\n  0x00\n    /* \"#utility.yul\":563:564   */\n  dup1\n    /* \"#utility.yul\":556:568   */\n  revert\n    /* \"#utility.yul\":580:682   */\ntag_27:\n    /* \"#utility.yul\":621:627   */\n  0x00\n    /* \"#utility.yul\":672:674   */\n  0x1f\n    /* \"#utility.yul\":668:675   */\n  not\n    /* \"#utility.yul\":663:665   */\n  0x1f\n    /* \"#utility.yul\":656:661   */\n  dup4\n    /* \"#utility.yul\":652:666   */\n  add\n    /* \"#utility.yul\":648:676   */\n  and\n    /* \"#utility.yul\":638:676   */\n  swap1\n  pop\n    /* \"#utility.yul\":580:682   */\n  swap2\n  swap1\n  pop\n  jump\t// out\n    /* \"#utility.yul\":688:868   */\ntag_28:\n    /* \"#utility.yul\":736:813   */\n  0x4e487b7100000000000000000000000000000000000000000000000000000000\n    /* \"#utility.yul\":733:734   */\n  0x00\n    /* \"#utility.yul\":726:814   */\n  mstore\n    /* \"#utility.yul\":833:837   */\n  0x41\n    /* \"#utility.yul\":830:831   */\n  0x04\n    /* \"#utility.yul\":823:838   */\n  mstore\n    /* \"#utility.yul\":857:861   */\n  0x24\n    /* \"#utility.yul\":854:855   */\n  0x00\n    /* \"#utility.yul\":847:862   */\n  revert\n    /* \"#utility.yul\":874:1155   */\ntag_29:\n    /* \"#utility.yul\":957:984   */\n  tag_50\n    /* \"#utility.yul\":979:983   */\n  dup3\n    /* \"#utility.yul\":957:984   */\n  tag_27\n  jump\t// in\ntag_50:\n    /* \"#utility.yul\":949:955   */\n  dup2\n    /* \"#utility.yul\":945:985   */\n  add\n    /* \"#utility.yul\":1087:1093   */\n  dup2\n    /* \"#utility.yul\":1075:1085   */\n  dup2\n    /* \"#utility.yul\":1072:1094   */\n  lt\n    /* \"#utility.yul\":1051:1069   */\n  0xffffffffffffffff\n    /* \"#utility.yul\":1039:1049   */\n  dup3\n    /* \"#utility.yul\":1036:1070   */\n  gt\n    /* \"#utility.yul\":1033:1095   */\n  or\n    /* \"#utility.yul\":1030:1118   */\n  iszero\n  tag_51\n  jumpi\n    /* \"#utility.yul\":1098:1116   */\n  tag_52\n  tag_28\n  jump\t// in\ntag_52:\n    /* \"#utility.yul\":1030:1118   */\ntag_51:\n    /* \"#utility.yul\":1138:1148   */\n  dup1\n    /* \"#utility.yul\":1134:1136   */\n  0x40\n    /* \"#utility.yul\":1127:1149   */\n  mstore\n    /* \"#utility.yul\":917:1155   */\n  pop\n    /* \"#utility.yul\":874:1155   */\n  pop\n  pop\n  jump\t// out\n    /* \"#utility.yul\":1161:1290   */\ntag_30:\n    /* \"#utility.yul\":1195:1201   */\n  0x00\n    /* \"#utility.yul\":1222:1242   */\n  tag_54\n  tag_22\n  jump\t// in\ntag_54:\n    /* \"#utility.yul\":1212:1242   */\n  swap1\n  pop\n    /* \"#utility.yul\":1251:1284   */\n  tag_55\n    /* \"#utility.yul\":1279:1283   */\n  dup3\n    /* \"#utility.yul\":1271:1277   */\n  dup3\n    /* \"#utility.yul\":1251:1284   */\n  tag_29\n  jump\t// in\ntag_55:\n    /* \"#utility.yul\":1161:1290   */\n  swap2\n  swap1\n  pop\n  jump\t// out\n    /* \"#utility.yul\":1296:1604   */\ntag_31:\n    /* \"#utility.yul\":1358:1362   */\n  0x00\n    /* \"#utility.yul\":1448:1466   */\n  0xffffffffffffffff\n    /* \"#utility.yul\":1440:1446   */\n  dup3\n    /* \"#utility.yul\":1437:1467   */\n  gt\n    /* \"#utility.yul\":1434:1490   */\n  iszero\n  tag_57\n  jumpi\n    /* \"#utility.yul\":1470:1488   */\n  tag_58\n  tag_28\n  jump\t// in\ntag_58:\n    /* \"#utility.yul\":1434:1490   */\ntag_57:\n    /* \"#utility.yul\":1508:1537   */\n  tag_59\n    /* \"#utility.yul\":1530:1536   */\n  dup3\n    /* \"#utility.yul\":1508:1537   */\n  tag_27\n  jump\t// in\ntag_59:\n    /* \"#utility.yul\":1500:1537   */\n  swap1\n  pop\n    /* \"#utility.yul\":1592:1596   */\n  0x20\n    /* \"#utility.yul\":1586:1590   */\n  dup2\n    /* \"#utility.yul\":1582:1597   */\n  add\n    /* \"#utility.yul\":1574:1597   */\n  swap1\n  pop\n    /* \"#utility.yul\":1296:1604   */\n  swap2\n  swap1\n  pop\n  jump\t// out\n    /* \"#utility.yul\":1610:1917   */\ntag_32:\n    /* \"#utility.yul\":1678:1679   */\n  0x00\n    /* \"#utility.yul\":1688:1801   */\ntag_61:\n    /* \"#utility.yul\":1702:1708   */\n  dup4\n    /* \"#utility.yul\":1699:1700   */\n  dup2\n    /* \"#utility.yul\":1696:1709   */\n  lt\n    /* \"#utility.yul\":1688:1801   */\n  iszero\n  tag_63\n  jumpi\n    /* \"#utility.yul\":1787:1788   */\n  dup1\n    /* \"#utility.yul\":1782:1785   */\n  dup3\n    /* \"#utility.yul\":1778:1789   */\n  add\n    /* \"#utility.yul\":1772:1790   */\n  mload\n    /* \"#utility.yul\":1768:1769   */\n  dup2\n    /* \"#utility.yul\":1763:1766   */\n  dup5\n    /* \"#utility.yul\":1759:1770   */\n  add\n    /* \"#utility.yul\":1752:1791   */\n  mstore\n    /* \"#utility.yul\":1724:1726   */\n  0x20\n    /* \"#utility.yul\":1721:1722   */\n  dup2\n    /* \"#utility.yul\":1717:1727   */\n  add\n    /* \"#utility.yul\":1712:1727   */\n  swap1\n  pop\n    /* \"#utility.yul\":1688:1801   */\n  jump(tag_61)\ntag_63:\n    /* \"#utility.yul\":1819:1825   */\n  dup4\n    /* \"#utility.yul\":1816:1817   */\n  dup2\n    /* \"#utility.yul\":1813:1826   */\n  gt\n    /* \"#utility.yul\":1810:1911   */\n  iszero\n  tag_64\n  jumpi\n    /* \"#utility.yul\":1899:1900   */\n  0x00\n    /* \"#utility.yul\":1890:1896   */\n  dup5\n    /* \"#utility.yul\":1885:1888   */\n  dup5\n    /* \"#utility.yul\":1881:1897   */\n  add\n    /* \"#utility.yul\":1874:1901   */\n  mstore\n    /* \"#utility.yul\":1810:1911   */\ntag_64:\n    /* \"#utility.yul\":1659:1917   */\n  pop\n    /* \"#utility.yul\":1610:1917   */\n  pop\n  pop\n  pop\n  jump\t// out\n    /* \"#utility.yul\":1923:2344   */\ntag_33:\n    /* \"#utility.yul\":2012:2017   */\n  0x00\n    /* \"#utility.yul\":2037:2103   */\n  tag_66\n    /* \"#utility.yul\":2053:2102   */\n  tag_67\n    /* \"#utility.yul\":2095:2101   */\n  dup5\n    /* \"#utility.yul\":2053:2102   */\n  tag_31\n  jump\t// in\ntag_67:\n    /* \"#utility.yul\":2037:2103   */\n  tag_30\n  jump\t// in\ntag_66:\n    /* \"#utility.yul\":2028:2103   */\n  swap1\n  pop\n    /* \"#utility.yul\":2126:2132   */\n  dup3\n    /* \"#utility.yul\":2119:2124   */\n  dup2\n    /* \"#utility.yul\":2112:2133   */\n  mstore\n    /* \"#utility.yul\":2164:2168   */\n  0x20\n    /* \"#utility.yul\":2157:2162   */\n  dup2\n    /* \"#utility.yul\":2153:2169   */\n  add\n    /* \"#utility.yul\":2202:2205   */\n  dup5\n    /* \"#utility.yul\":2193:2199   */\n  dup5\n    /* \"#utility.yul\":2188:2191   */\n  dup5\n    /* \"#utility.yul\":2184:2200   */\n  add\n    /* \"#utility.yul\":2181:2206   */\n  gt\n    /* \"#utility.yul\":2178:2290   */\n  iszero\n  tag_68\n  jumpi\n    /* \"#utility.yul\":2209:2288   */\n  tag_69\n  tag_26\n  jump\t// in\ntag_69:\n    /* \"#utility.yul\":2178:2290   */\ntag_68:\n    /* \"#utility.yul\":2299:2338   */\n  tag_70\n    /* \"#utility.yul\":2331:2337   */\n  dup5\n    /* \"#utility.yul\":2326:2329   */\n  dup3\n    /* \"#utility.yul\":2321:2324   */\n  dup6\n    /* \"#utility.yul\":2299:2338   */\n  tag_32\n  jump\t// in\ntag_70:\n    /* \"#utility.yul\":2018:2344   */\n  pop\n    /* \"#utility.yul\":1923:2344   */\n  swap4\n  swap3\n  pop\n  pop\n  pop\n  jump\t// out\n    /* \"#utility.yul\":2364:2719   */\ntag_34:\n    /* \"#utility.yul\":2431:2436   */\n  0x00\n    /* \"#utility.yul\":2480:2483   */\n  dup3\n    /* \"#utility.yul\":2473:2477   */\n  0x1f\n    /* \"#utility.yul\":2465:2471   */\n  dup4\n    /* \"#utility.yul\":2461:2478   */\n  add\n    /* \"#utility.yul\":2457:2484   */\n  slt\n    /* \"#utility.yul\":2447:2569   */\n  tag_72\n  jumpi\n    /* \"#utility.yul\":2488:2567   */\n  tag_73\n  tag_25\n  jump\t// in\ntag_73:\n    /* \"#utility.yul\":2447:2569   */\ntag_72:\n    /* \"#utility.yul\":2598:2604   */\n  dup2\n    /* \"#utility.yul\":2592:2605   */\n  mload\n    /* \"#utility.yul\":2623:2713   */\n  tag_74\n    /* \"#utility.yul\":2709:2712   */\n  dup5\n    /* \"#utility.yul\":2701:2707   */\n  dup3\n    /* \"#utility.yul\":2694:2698   */\n  0x20\n    /* \"#utility.yul\":2686:2692   */\n  dup7\n    /* \"#utility.yul\":2682:2699   */\n  add\n    /* \"#utility.yul\":2623:2713   */\n  tag_33\n  jump\t// in\ntag_74:\n    /* \"#utility.yul\":2614:2713   */\n  swap2\n  pop\n    /* \"#utility.yul\":2437:2719   */\n  pop\n    /* \"#utility.yul\":2364:2719   */\n  swap3\n  swap2\n  pop\n  pop\n  jump\t// out\n    /* \"#utility.yul\":2725:3249   */\ntag_3:\n    /* \"#utility.yul\":2805:2811   */\n  0x00\n    /* \"#utility.yul\":2854:2856   */\n  0x20\n    /* \"#utility.yul\":2842:2851   */\n  dup3\n    /* \"#utility.yul\":2833:2840   */\n  dup5\n    /* \"#utility.yul\":2829:2852   */\n  sub\n    /* \"#utility.yul\":2825:2857   */\n  slt\n    /* \"#utility.yul\":2822:2941   */\n  iszero\n  tag_76\n  jumpi\n    /* \"#utility.yul\":2860:2939   */\n  tag_77\n  tag_23\n  jump\t// in\ntag_77:\n    /* \"#utility.yul\":2822:2941   */\ntag_76:\n    /* \"#utility.yul\":3001:3002   */\n  0x00\n    /* \"#utility.yul\":2990:2999   */\n  dup3\n    /* \"#utility.yul\":2986:3003   */\n  add\n    /* \"#utility.yul\":2980:3004   */\n  mload\n    /* \"#utility.yul\":3031:3049   */\n  0xffffffffffffffff\n    /* \"#utility.yul\":3023:3029   */\n  dup2\n    /* \"#utility.yul\":3020:3050   */\n  gt\n    /* \"#utility.yul\":3017:3134   */\n  iszero\n  tag_78\n  jumpi\n    /* \"#utility.yul\":3053:3132   */\n  tag_79\n  tag_24\n  jump\t// in\ntag_79:\n    /* \"#utility.yul\":3017:3134   */\ntag_78:\n    /* \"#utility.yul\":3158:3232   */\n  tag_80\n    /* \"#utility.yul\":3224:3231   */\n  dup5\n    /* \"#utility.yul\":3215:3221   */\n  dup3\n    /* \"#utility.yul\":3204:3213   */\n  dup6\n    /* \"#utility.yul\":3200:3222   */\n  add\n    /* \"#utility.yul\":3158:3232   */\n  tag_34\n  jump\t// in\ntag_80:\n    /* \"#utility.yul\":3148:3232   */\n  swap2\n  pop\n    /* \"#utility.yul\":2951:3242   */\n  pop\n    /* \"#utility.yul\":2725:3249   */\n  swap3\n  swap2\n  pop\n  pop\n  jump\t// out\n    /* \"#utility.yul\":3255:3435   */\ntag_35:\n    /* \"#utility.yul\":3303:3380   */\n  0x4e487b7100000000000000000000000000000000000000000000000000000000\n    /* \"#utility.yul\":3300:3301   */\n  0x00\n    /* \"#utility.yul\":3293:3381   */\n  mstore\n    /* \"#utility.yul\":3400:3404   */\n  0x22\n    /* \"#utility.yul\":3397:3398   */\n  0x04\n    /* \"#utility.yul\":3390:3405   */\n  mstore\n    /* \"#utility.yul\":3424:3428   */\n  0x24\n    /* \"#utility.yul\":3421:3422   */\n  0x00\n    /* \"#utility.yul\":3414:3429   */\n  revert\n    /* \"#utility.yul\":3441:3761   */\ntag_12:\n    /* \"#utility.yul\":3485:3491   */\n  0x00\n    /* \"#utility.yul\":3522:3523   */\n  0x02\n    /* \"#utility.yul\":3516:3520   */\n  dup3\n    /* \"#utility.yul\":3512:3524   */\n  div\n    /* \"#utility.yul\":3502:3524   */\n  swap1\n  pop\n    /* \"#utility.yul\":3569:3570   */\n  0x01\n    /* \"#utility.yul\":3563:3567   */\n  dup3\n    /* \"#utility.yul\":3559:3571   */\n  and\n    /* \"#utility.yul\":3590:3608   */\n  dup1\n    /* \"#utility.yul\":3580:3661   */\n  tag_83\n  jumpi\n    /* \"#utility.yul\":3646:3650   */\n  0x7f\n    /* \"#utility.yul\":3638:3644   */\n  dup3\n    /* \"#utility.yul\":3634:3651   */\n  and\n    /* \"#utility.yul\":3624:3651   */\n  swap2\n  pop\n    /* \"#utility.yul\":3580:3661   */\ntag_83:\n    /* \"#utility.yul\":3708:3710   */\n  0x20\n    /* \"#utility.yul\":3700:3706   */\n  dup3\n    /* \"#utility.yul\":3697:3711   */\n  lt\n    /* \"#utility.yul\":3677:3695   */\n  dup2\n    /* \"#utility.yul\":3674:3712   */\n  eq\n    /* \"#utility.yul\":3671:3755   */\n  iszero\n  tag_84\n  jumpi\n    /* \"#utility.yul\":3727:3745   */\n  tag_85\n  tag_35\n  jump\t// in\ntag_85:\n    /* \"#utility.yul\":3671:3755   */\ntag_84:\n    /* \"#utility.yul\":3492:3761   */\n  pop\n    /* \"#utility.yul\":3441:3761   */\n  swap2\n  swap1\n  pop\n  jump\t// out\n    /* \"#utility.yul\":3767:3936   */\ntag_36:\n    /* \"#utility.yul\":3851:3862   */\n  0x00\n    /* \"#utility.yul\":3885:3891   */\n  dup3\n    /* \"#utility.yul\":3880:3883   */\n  dup3\n    /* \"#utility.yul\":3873:3892   */\n  mstore\n    /* \"#utility.yul\":3925:3929   */\n  0x20\n    /* \"#utility.yul\":3920:3923   */\n  dup3\n    /* \"#utility.yul\":3916:3930   */\n  add\n    /* \"#utility.yul\":3901:3930   */\n  swap1\n  pop\n    /* \"#utility.yul\":3767:3936   */\n  swap3\n  swap2\n  pop\n  pop\n  jump\t// out\n    /* \"#utility.yul\":3942:4083   */\ntag_37:\n    /* \"#utility.yul\":3991:3995   */\n  0x00\n    /* \"#utility.yul\":4014:4017   */\n  dup2\n    /* \"#utility.yul\":4006:4017   */\n  swap1\n  pop\n    /* \"#utility.yul\":4037:4040   */\n  dup2\n    /* \"#utility.yul\":4034:4035   */\n  0x00\n    /* \"#utility.yul\":4027:4041   */\n  mstore\n    /* \"#utility.yul\":4071:4075   */\n  0x20\n    /* \"#utility.yul\":4068:4069   */\n  0x00\n    /* \"#utility.yul\":4058:4076   */\n  keccak256\n    /* \"#utility.yul\":4050:4076   */\n  swap1\n  pop\n    /* \"#utility.yul\":3942:4083   */\n  swap2\n  swap1\n  pop\n  jump\t// out\n    /* \"#utility.yul\":4113:4915   */\ntag_38:\n    /* \"#utility.yul\":4198:4201   */\n  0x00\n    /* \"#utility.yul\":4235:4240   */\n  dup2\n    /* \"#utility.yul\":4229:4241   */\n  sload\n    /* \"#utility.yul\":4264:4300   */\n  tag_89\n    /* \"#utility.yul\":4290:4299   */\n  dup2\n    /* \"#utility.yul\":4264:4300   */\n  tag_12\n  jump\t// in\ntag_89:\n    /* \"#utility.yul\":4316:4387   */\n  tag_90\n    /* \"#utility.yul\":4380:4386   */\n  dup2\n    /* \"#utility.yul\":4375:4378   */\n  dup7\n    /* \"#utility.yul\":4316:4387   */\n  tag_36\n  jump\t// in\ntag_90:\n    /* \"#utility.yul\":4309:4387   */\n  swap5\n  pop\n    /* \"#utility.yul\":4418:4419   */\n  0x01\n    /* \"#utility.yul\":4407:4416   */\n  dup3\n    /* \"#utility.yul\":4403:4420   */\n  and\n    /* \"#utility.yul\":4434:4435   */\n  0x00\n    /* \"#utility.yul\":4429:4564   */\n  dup2\n  eq\n  tag_92\n  jumpi\n    /* \"#utility.yul\":4578:4579   */\n  0x01\n    /* \"#utility.yul\":4573:4909   */\n  dup2\n  eq\n  tag_93\n  jumpi\n    /* \"#utility.yul\":4396:4909   */\n  jump(tag_91)\n    /* \"#utility.yul\":4429:4564   */\ntag_92:\n    /* \"#utility.yul\":4513:4517   */\n  0xff\n    /* \"#utility.yul\":4509:4518   */\n  not\n    /* \"#utility.yul\":4498:4507   */\n  dup4\n    /* \"#utility.yul\":4494:4519   */\n  and\n    /* \"#utility.yul\":4489:4492   */\n  dup7\n    /* \"#utility.yul\":4482:4520   */\n  mstore\n    /* \"#utility.yul\":4549:4553   */\n  0x20\n    /* \"#utility.yul\":4544:4547   */\n  dup7\n    /* \"#utility.yul\":4540:4554   */\n  add\n    /* \"#utility.yul\":4533:4554   */\n  swap4\n  pop\n    /* \"#utility.yul\":4429:4564   */\n  jump(tag_91)\n    /* \"#utility.yul\":4573:4909   */\ntag_93:\n    /* \"#utility.yul\":4640:4678   */\n  tag_94\n    /* \"#utility.yul\":4672:4677   */\n  dup6\n    /* \"#utility.yul\":4640:4678   */\n  tag_37\n  jump\t// in\ntag_94:\n    /* \"#utility.yul\":4700:4701   */\n  0x00\n    /* \"#utility.yul\":4714:4868   */\ntag_95:\n    /* \"#utility.yul\":4728:4734   */\n  dup4\n    /* \"#utility.yul\":4725:4726   */\n  dup2\n    /* \"#utility.yul\":4722:4735   */\n  lt\n    /* \"#utility.yul\":4714:4868   */\n  iszero\n  tag_97\n  jumpi\n    /* \"#utility.yul\":4802:4809   */\n  dup2\n    /* \"#utility.yul\":4796:4810   */\n  sload\n    /* \"#utility.yul\":4792:4793   */\n  dup2\n    /* \"#utility.yul\":4787:4790   */\n  dup10\n    /* \"#utility.yul\":4783:4794   */\n  add\n    /* \"#utility.yul\":4776:4811   */\n  mstore\n    /* \"#utility.yul\":4852:4853   */\n  0x01\n    /* \"#utility.yul\":4843:4850   */\n  dup3\n    /* \"#utility.yul\":4839:4854   */\n  add\n    /* \"#utility.yul\":4828:4854   */\n  swap2\n  pop\n    /* \"#utility.yul\":4750:4754   */\n  0x20\n    /* \"#utility.yul\":4747:4748   */\n  dup2\n    /* \"#utility.yul\":4743:4755   */\n  add\n    /* \"#utility.yul\":4738:4755   */\n  swap1\n  pop\n    /* \"#utility.yul\":4714:4868   */\n  jump(tag_95)\ntag_97:\n    /* \"#utility.yul\":4897:4898   */\n  dup1\n    /* \"#utility.yul\":4892:4895   */\n  dup9\n    /* \"#utility.yul\":4888:4899   */\n  add\n    /* \"#utility.yul\":4881:4899   */\n  swap6\n  pop\n    /* \"#utility.yul\":4580:4909   */\n  pop\n  pop\n    /* \"#utility.yul\":4396:4909   */\ntag_91:\n  pop\n    /* \"#utility.yul\":4202:4915   */\n  pop\n  pop\n    /* \"#utility.yul\":4113:4915   */\n  swap3\n  swap2\n  pop\n  pop\n  jump\t// out\n    /* \"#utility.yul\":4921:5020   */\ntag_39:\n    /* \"#utility.yul\":4973:4979   */\n  0x00\n    /* \"#utility.yul\":5007:5012   */\n  dup2\n    /* \"#utility.yul\":5001:5013   */\n  mload\n    /* \"#utility.yul\":4991:5013   */\n  swap1\n  pop\n    /* \"#utility.yul\":4921:5020   */\n  swap2\n  swap1\n  pop\n  jump\t// out\n    /* \"#utility.yul\":5026:5390   */\ntag_40:\n    /* \"#utility.yul\":5114:5117   */\n  0x00\n    /* \"#utility.yul\":5142:5181   */\n  tag_100\n    /* \"#utility.yul\":5175:5180   */\n  dup3\n    /* \"#utility.yul\":5142:5181   */\n  tag_39\n  jump\t// in\ntag_100:\n    /* \"#utility.yul\":5197:5268   */\n  tag_101\n    /* \"#utility.yul\":5261:5267   */\n  dup2\n    /* \"#utility.yul\":5256:5259   */\n  dup6\n    /* \"#utility.yul\":5197:5268   */\n  tag_36\n  jump\t// in\ntag_101:\n    /* \"#utility.yul\":5190:5268   */\n  swap4\n  pop\n    /* \"#utility.yul\":5277:5329   */\n  tag_102\n    /* \"#utility.yul\":5322:5328   */\n  dup2\n    /* \"#utility.yul\":5317:5320   */\n  dup6\n    /* \"#utility.yul\":5310:5314   */\n  0x20\n    /* \"#utility.yul\":5303:5308   */\n  dup7\n    /* \"#utility.yul\":5299:5315   */\n  add\n    /* \"#utility.yul\":5277:5329   */\n  tag_32\n  jump\t// in\ntag_102:\n    /* \"#utility.yul\":5354:5383   */\n  tag_103\n    /* \"#utility.yul\":5376:5382   */\n  dup2\n    /* \"#utility.yul\":5354:5383   */\n  tag_27\n  jump\t// in\ntag_103:\n    /* \"#utility.yul\":5349:5352   */\n  dup5\n    /* \"#utility.yul\":5345:5384   */\n  add\n    /* \"#utility.yul\":5338:5384   */\n  swap2\n  pop\n    /* \"#utility.yul\":5118:5390   */\n  pop\n    /* \"#utility.yul\":5026:5390   */\n  swap3\n  swap2\n  pop\n  pop\n  jump\t// out\n    /* \"#utility.yul\":5396:5904   */\ntag_7:\n    /* \"#utility.yul\":5554:5558   */\n  0x00\n    /* \"#utility.yul\":5592:5594   */\n  0x40\n    /* \"#utility.yul\":5581:5590   */\n  dup3\n    /* \"#utility.yul\":5577:5595   */\n  add\n    /* \"#utility.yul\":5569:5595   */\n  swap1\n  pop\n    /* \"#utility.yul\":5641:5650   */\n  dup2\n    /* \"#utility.yul\":5635:5639   */\n  dup2\n    /* \"#utility.yul\":5631:5651   */\n  sub\n    /* \"#utility.yul\":5627:5628   */\n  0x00\n    /* \"#utility.yul\":5616:5625   */\n  dup4\n    /* \"#utility.yul\":5612:5629   */\n  add\n    /* \"#utility.yul\":5605:5652   */\n  mstore\n    /* \"#utility.yul\":5669:5744   */\n  tag_105\n    /* \"#utility.yul\":5739:5743   */\n  dup2\n    /* \"#utility.yul\":5730:5736   */\n  dup6\n    /* \"#utility.yul\":5669:5744   */\n  tag_38\n  jump\t// in\ntag_105:\n    /* \"#utility.yul\":5661:5744   */\n  swap1\n  pop\n    /* \"#utility.yul\":5791:5800   */\n  dup2\n    /* \"#utility.yul\":5785:5789   */\n  dup2\n    /* \"#utility.yul\":5781:5801   */\n  sub\n    /* \"#utility.yul\":5776:5778   */\n  0x20\n    /* \"#utility.yul\":5765:5774   */\n  dup4\n    /* \"#utility.yul\":5761:5779   */\n  add\n    /* \"#utility.yul\":5754:5802   */\n  mstore\n    /* \"#utility.yul\":5819:5897   */\n  tag_106\n    /* \"#utility.yul\":5892:5896   */\n  dup2\n    /* \"#utility.yul\":5883:5889   */\n  dup5\n    /* \"#utility.yul\":5819:5897   */\n  tag_40\n  jump\t// in\ntag_106:\n    /* \"#utility.yul\":5811:5897   */\n  swap1\n  pop\n    /* \"#utility.yul\":5396:5904   */\n  swap4\n  swap3\n  pop\n  pop\n  pop\n  jump\t// out\n    /* \"SimpleStorage.sol\":35:543  contract SimpleStorage {... */\ntag_10:\n  dataSize(sub_0)\n  dup1\n  dataOffset(sub_0)\n  0x00\n  codecopy\n  0x00\n  return\nstop\n\nsub_0: assembly {\n        /* \"SimpleStorage.sol\":35:543  contract SimpleStorage {... */\n      mstore(0x40, 0x80)\n      callvalue\n      dup1\n      iszero\n      tag_1\n      jumpi\n      0x00\n      dup1\n      revert\n    tag_1:\n      pop\n      jumpi(tag_2, lt(calldatasize, 0x04))\n      shr(0xe0, calldataload(0x00))\n      dup1\n      0x20965255\n      eq\n      tag_3\n      jumpi\n      dup1\n      0x93a09352\n      eq\n      tag_4\n      jumpi\n    tag_2:\n      0x00\n      dup1\n      revert\n        /* \"SimpleStorage.sol\":310:398  function getValue() view public returns (string memory) {... */\n    tag_3:\n      tag_5\n      tag_6\n      jump\t// in\n    tag_5:\n      mload(0x40)\n      tag_7\n      swap2\n      swap1\n      tag_8\n      jump\t// in\n    tag_7:\n      mload(0x40)\n      dup1\n      swap2\n      sub\n      swap1\n      return\n        /* \"SimpleStorage.sol\":406:540  function setValue(string memory value) public {... */\n    tag_4:\n      tag_9\n      0x04\n      dup1\n      calldatasize\n      sub\n      dup2\n      add\n      swap1\n      tag_10\n      swap2\n      swap1\n      tag_11\n      jump\t// in\n    tag_10:\n      tag_12\n      jump\t// in\n    tag_9:\n      stop\n        /* \"SimpleStorage.sol\":310:398  function getValue() view public returns (string memory) {... */\n    tag_6:\n        /* \"SimpleStorage.sol\":351:364  string memory */\n      0x60\n        /* \"SimpleStorage.sol\":384:390  _value */\n      0x00\n        /* \"SimpleStorage.sol\":377:390  return _value */\n      dup1\n      sload\n      tag_14\n      swap1\n      tag_15\n      jump\t// in\n    tag_14:\n      dup1\n      0x1f\n      add\n      0x20\n      dup1\n      swap2\n      div\n      mul\n      0x20\n      add\n      mload(0x40)\n      swap1\n      dup2\n      add\n      0x40\n      mstore\n      dup1\n      swap3\n      swap2\n      swap1\n      dup2\n      dup2\n      mstore\n      0x20\n      add\n      dup3\n      dup1\n      sload\n      tag_16\n      swap1\n      tag_15\n      jump\t// in\n    tag_16:\n      dup1\n      iszero\n      tag_17\n      jumpi\n      dup1\n      0x1f\n      lt\n      tag_18\n      jumpi\n      0x0100\n      dup1\n      dup4\n      sload\n      div\n      mul\n      dup4\n      mstore\n      swap2\n      0x20\n      add\n      swap2\n      jump(tag_17)\n    tag_18:\n      dup3\n      add\n      swap2\n      swap1\n      0x00\n      mstore\n      keccak256(0x00, 0x20)\n      swap1\n    tag_19:\n      dup2\n      sload\n      dup2\n      mstore\n      swap1\n      0x01\n      add\n      swap1\n      0x20\n      add\n      dup1\n      dup4\n      gt\n      tag_19\n      jumpi\n      dup3\n      swap1\n      sub\n      0x1f\n      and\n      dup3\n      add\n      swap2\n    tag_17:\n      pop\n      pop\n      pop\n      pop\n      pop\n      swap1\n      pop\n        /* \"SimpleStorage.sol\":310:398  function getValue() view public returns (string memory) {... */\n      swap1\n      jump\t// out\n        /* \"SimpleStorage.sol\":406:540  function setValue(string memory value) public {... */\n    tag_12:\n        /* \"SimpleStorage.sol\":481:491  msg.sender */\n      caller\n        /* \"SimpleStorage.sol\":468:507  ValueChanged(msg.sender, _value, value) */\n      0xffffffffffffffffffffffffffffffffffffffff\n      and\n      0xe826f71647b8486f2bae59832124c70792fba044036720a54ec8dacdd5df4fcb\n        /* \"SimpleStorage.sol\":493:499  _value */\n      0x00\n        /* \"SimpleStorage.sol\":501:506  value */\n      dup4\n        /* \"SimpleStorage.sol\":468:507  ValueChanged(msg.sender, _value, value) */\n      mload(0x40)\n      tag_21\n      swap3\n      swap2\n      swap1\n      tag_22\n      jump\t// in\n    tag_21:\n      mload(0x40)\n      dup1\n      swap2\n      sub\n      swap1\n      log2\n        /* \"SimpleStorage.sol\":527:532  value */\n      dup1\n        /* \"SimpleStorage.sol\":518:524  _value */\n      0x00\n        /* \"SimpleStorage.sol\":518:532  _value = value */\n      swap1\n      dup1\n      mload\n      swap1\n      0x20\n      add\n      swap1\n      tag_23\n      swap3\n      swap2\n      swap1\n      tag_24\n      jump\t// in\n    tag_23:\n      pop\n        /* \"SimpleStorage.sol\":406:540  function setValue(string memory value) public {... */\n      pop\n      jump\t// out\n    tag_24:\n      dup3\n      dup1\n      sload\n      tag_25\n      swap1\n      tag_15\n      jump\t// in\n    tag_25:\n      swap1\n      0x00\n      mstore\n      keccak256(0x00, 0x20)\n      swap1\n      0x1f\n      add\n      0x20\n      swap1\n      div\n      dup2\n      add\n      swap3\n      dup3\n      tag_27\n      jumpi\n      0x00\n      dup6\n      sstore\n      jump(tag_26)\n    tag_27:\n      dup3\n      0x1f\n      lt\n      tag_28\n      jumpi\n      dup1\n      mload\n      not(0xff)\n      and\n      dup4\n      dup1\n      add\n      or\n      dup6\n      sstore\n      jump(tag_26)\n    tag_28:\n      dup3\n      dup1\n      add\n      0x01\n      add\n      dup6\n      sstore\n      dup3\n      iszero\n      tag_26\n      jumpi\n      swap2\n      dup3\n      add\n    tag_29:\n      dup3\n      dup2\n      gt\n      iszero\n      tag_30\n      jumpi\n      dup3\n      mload\n      dup3\n      sstore\n      swap2\n      0x20\n      add\n      swap2\n      swap1\n      0x01\n      add\n      swap1\n      jump(tag_29)\n    tag_30:\n    tag_26:\n      pop\n      swap1\n      pop\n      tag_31\n      swap2\n      swap1\n      tag_32\n      jump\t// in\n    tag_31:\n      pop\n      swap1\n      jump\t// out\n    tag_32:\n    tag_33:\n      dup1\n      dup3\n      gt\n      iszero\n      tag_34\n      jumpi\n      0x00\n      dup2\n      0x00\n      swap1\n      sstore\n      pop\n      0x01\n      add\n      jump(tag_33)\n    tag_34:\n      pop\n      swap1\n      jump\t// out\n        /* \"#utility.yul\":7:106   */\n    tag_35:\n        /* \"#utility.yul\":59:65   */\n      0x00\n        /* \"#utility.yul\":93:98   */\n      dup2\n        /* \"#utility.yul\":87:99   */\n      mload\n        /* \"#utility.yul\":77:99   */\n      swap1\n      pop\n        /* \"#utility.yul\":7:106   */\n      swap2\n      swap1\n      pop\n      jump\t// out\n        /* \"#utility.yul\":112:281   */\n    tag_36:\n        /* \"#utility.yul\":196:207   */\n      0x00\n        /* \"#utility.yul\":230:236   */\n      dup3\n        /* \"#utility.yul\":225:228   */\n      dup3\n        /* \"#utility.yul\":218:237   */\n      mstore\n        /* \"#utility.yul\":270:274   */\n      0x20\n        /* \"#utility.yul\":265:268   */\n      dup3\n        /* \"#utility.yul\":261:275   */\n      add\n        /* \"#utility.yul\":246:275   */\n      swap1\n      pop\n        /* \"#utility.yul\":112:281   */\n      swap3\n      swap2\n      pop\n      pop\n      jump\t// out\n        /* \"#utility.yul\":287:594   */\n    tag_37:\n        /* \"#utility.yul\":355:356   */\n      0x00\n        /* \"#utility.yul\":365:478   */\n    tag_59:\n        /* \"#utility.yul\":379:385   */\n      dup4\n        /* \"#utility.yul\":376:377   */\n      dup2\n        /* \"#utility.yul\":373:386   */\n      lt\n        /* \"#utility.yul\":365:478   */\n      iszero\n      tag_61\n      jumpi\n        /* \"#utility.yul\":464:465   */\n      dup1\n        /* \"#utility.yul\":459:462   */\n      dup3\n        /* \"#utility.yul\":455:466   */\n      add\n        /* \"#utility.yul\":449:467   */\n      mload\n        /* \"#utility.yul\":445:446   */\n      dup2\n        /* \"#utility.yul\":440:443   */\n      dup5\n        /* \"#utility.yul\":436:447   */\n      add\n        /* \"#utility.yul\":429:468   */\n      mstore\n        /* \"#utility.yul\":401:403   */\n      0x20\n        /* \"#utility.yul\":398:399   */\n      dup2\n        /* \"#utility.yul\":394:404   */\n      add\n        /* \"#utility.yul\":389:404   */\n      swap1\n      pop\n        /* \"#utility.yul\":365:478   */\n      jump(tag_59)\n    tag_61:\n        /* \"#utility.yul\":496:502   */\n      dup4\n        /* \"#utility.yul\":493:494   */\n      dup2\n        /* \"#utility.yul\":490:503   */\n      gt\n        /* \"#utility.yul\":487:588   */\n      iszero\n      tag_62\n      jumpi\n        /* \"#utility.yul\":576:577   */\n      0x00\n        /* \"#utility.yul\":567:573   */\n      dup5\n        /* \"#utility.yul\":562:565   */\n      dup5\n        /* \"#utility.yul\":558:574   */\n      add\n        /* \"#utility.yul\":551:578   */\n      mstore\n        /* \"#utility.yul\":487:588   */\n    tag_62:\n        /* \"#utility.yul\":336:594   */\n      pop\n        /* \"#utility.yul\":287:594   */\n      pop\n      pop\n      pop\n      jump\t// out\n        /* \"#utility.yul\":600:702   */\n    tag_38:\n        /* \"#utility.yul\":641:647   */\n      0x00\n        /* \"#utility.yul\":692:694   */\n      0x1f\n        /* \"#utility.yul\":688:695   */\n      not\n        /* \"#utility.yul\":683:685   */\n      0x1f\n        /* \"#utility.yul\":676:681   */\n      dup4\n        /* \"#utility.yul\":672:686   */\n      add\n        /* \"#utility.yul\":668:696   */\n      and\n        /* \"#utility.yul\":658:696   */\n      swap1\n      pop\n        /* \"#utility.yul\":600:702   */\n      swap2\n      swap1\n      pop\n      jump\t// out\n        /* \"#utility.yul\":708:1072   */\n    tag_39:\n        /* \"#utility.yul\":796:799   */\n      0x00\n        /* \"#utility.yul\":824:863   */\n      tag_65\n        /* \"#utility.yul\":857:862   */\n      dup3\n        /* \"#utility.yul\":824:863   */\n      tag_35\n      jump\t// in\n    tag_65:\n        /* \"#utility.yul\":879:950   */\n      tag_66\n        /* \"#utility.yul\":943:949   */\n      dup2\n        /* \"#utility.yul\":938:941   */\n      dup6\n        /* \"#utility.yul\":879:950   */\n      tag_36\n      jump\t// in\n    tag_66:\n        /* \"#utility.yul\":872:950   */\n      swap4\n      pop\n        /* \"#utility.yul\":959:1011   */\n      tag_67\n        /* \"#utility.yul\":1004:1010   */\n      dup2\n        /* \"#utility.yul\":999:1002   */\n      dup6\n        /* \"#utility.yul\":992:996   */\n      0x20\n        /* \"#utility.yul\":985:990   */\n      dup7\n        /* \"#utility.yul\":981:997   */\n      add\n        /* \"#utility.yul\":959:1011   */\n      tag_37\n      jump\t// in\n    tag_67:\n        /* \"#utility.yul\":1036:1065   */\n      tag_68\n        /* \"#utility.yul\":1058:1064   */\n      dup2\n        /* \"#utility.yul\":1036:1065   */\n      tag_38\n      jump\t// in\n    tag_68:\n        /* \"#utility.yul\":1031:1034   */\n      dup5\n        /* \"#utility.yul\":1027:1066   */\n      add\n        /* \"#utility.yul\":1020:1066   */\n      swap2\n      pop\n        /* \"#utility.yul\":800:1072   */\n      pop\n        /* \"#utility.yul\":708:1072   */\n      swap3\n      swap2\n      pop\n      pop\n      jump\t// out\n        /* \"#utility.yul\":1078:1391   */\n    tag_8:\n        /* \"#utility.yul\":1191:1195   */\n      0x00\n        /* \"#utility.yul\":1229:1231   */\n      0x20\n        /* \"#utility.yul\":1218:1227   */\n      dup3\n        /* \"#utility.yul\":1214:1232   */\n      add\n        /* \"#utility.yul\":1206:1232   */\n      swap1\n      pop\n        /* \"#utility.yul\":1278:1287   */\n      dup2\n        /* \"#utility.yul\":1272:1276   */\n      dup2\n        /* \"#utility.yul\":1268:1288   */\n      sub\n        /* \"#utility.yul\":1264:1265   */\n      0x00\n        /* \"#utility.yul\":1253:1262   */\n      dup4\n        /* \"#utility.yul\":1249:1266   */\n      add\n        /* \"#utility.yul\":1242:1289   */\n      mstore\n        /* \"#utility.yul\":1306:1384   */\n      tag_70\n        /* \"#utility.yul\":1379:1383   */\n      dup2\n        /* \"#utility.yul\":1370:1376   */\n      dup5\n        /* \"#utility.yul\":1306:1384   */\n      tag_39\n      jump\t// in\n    tag_70:\n        /* \"#utility.yul\":1298:1384   */\n      swap1\n      pop\n        /* \"#utility.yul\":1078:1391   */\n      swap3\n      swap2\n      pop\n      pop\n      jump\t// out\n        /* \"#utility.yul\":1397:1472   */\n    tag_40:\n        /* \"#utility.yul\":1430:1436   */\n      0x00\n        /* \"#utility.yul\":1463:1465   */\n      0x40\n        /* \"#utility.yul\":1457:1466   */\n      mload\n        /* \"#utility.yul\":1447:1466   */\n      swap1\n      pop\n        /* \"#utility.yul\":1397:1472   */\n      swap1\n      jump\t// out\n        /* \"#utility.yul\":1478:1595   */\n    tag_41:\n        /* \"#utility.yul\":1587:1588   */\n      0x00\n        /* \"#utility.yul\":1584:1585   */\n      dup1\n        /* \"#utility.yul\":1577:1589   */\n      revert\n        /* \"#utility.yul\":1601:1718   */\n    tag_42:\n        /* \"#utility.yul\":1710:1711   */\n      0x00\n        /* \"#utility.yul\":1707:1708   */\n      dup1\n        /* \"#utility.yul\":1700:1712   */\n      revert\n        /* \"#utility.yul\":1724:1841   */\n    tag_43:\n        /* \"#utility.yul\":1833:1834   */\n      0x00\n        /* \"#utility.yul\":1830:1831   */\n      dup1\n        /* \"#utility.yul\":1823:1835   */\n      revert\n        /* \"#utility.yul\":1847:1964   */\n    tag_44:\n        /* \"#utility.yul\":1956:1957   */\n      0x00\n        /* \"#utility.yul\":1953:1954   */\n      dup1\n        /* \"#utility.yul\":1946:1958   */\n      revert\n        /* \"#utility.yul\":1970:2150   */\n    tag_45:\n        /* \"#utility.yul\":2018:2095   */\n      0x4e487b7100000000000000000000000000000000000000000000000000000000\n        /* \"#utility.yul\":2015:2016   */\n      0x00\n        /* \"#utility.yul\":2008:2096   */\n      mstore\n        /* \"#utility.yul\":2115:2119   */\n      0x41\n        /* \"#utility.yul\":2112:2113   */\n      0x04\n        /* \"#utility.yul\":2105:2120   */\n      mstore\n        /* \"#utility.yul\":2139:2143   */\n      0x24\n        /* \"#utility.yul\":2136:2137   */\n      0x00\n        /* \"#utility.yul\":2129:2144   */\n      revert\n        /* \"#utility.yul\":2156:2437   */\n    tag_46:\n        /* \"#utility.yul\":2239:2266   */\n      tag_78\n        /* \"#utility.yul\":2261:2265   */\n      dup3\n        /* \"#utility.yul\":2239:2266   */\n      tag_38\n      jump\t// in\n    tag_78:\n        /* \"#utility.yul\":2231:2237   */\n      dup2\n        /* \"#utility.yul\":2227:2267   */\n      add\n        /* \"#utility.yul\":2369:2375   */\n      dup2\n        /* \"#utility.yul\":2357:2367   */\n      dup2\n        /* \"#utility.yul\":2354:2376   */\n      lt\n        /* \"#utility.yul\":2333:2351   */\n      0xffffffffffffffff\n        /* \"#utility.yul\":2321:2331   */\n      dup3\n        /* \"#utility.yul\":2318:2352   */\n      gt\n        /* \"#utility.yul\":2315:2377   */\n      or\n        /* \"#utility.yul\":2312:2400   */\n      iszero\n      tag_79\n      jumpi\n        /* \"#utility.yul\":2380:2398   */\n      tag_80\n      tag_45\n      jump\t// in\n    tag_80:\n        /* \"#utility.yul\":2312:2400   */\n    tag_79:\n        /* \"#utility.yul\":2420:2430   */\n      dup1\n        /* \"#utility.yul\":2416:2418   */\n      0x40\n        /* \"#utility.yul\":2409:2431   */\n      mstore\n        /* \"#utility.yul\":2199:2437   */\n      pop\n        /* \"#utility.yul\":2156:2437   */\n      pop\n      pop\n      jump\t// out\n        /* \"#utility.yul\":2443:2572   */\n    tag_47:\n        /* \"#utility.yul\":2477:2483   */\n      0x00\n        /* \"#utility.yul\":2504:2524   */\n      tag_82\n      tag_40\n      jump\t// in\n    tag_82:\n        /* \"#utility.yul\":2494:2524   */\n      swap1\n      pop\n        /* \"#utility.yul\":2533:2566   */\n      tag_83\n        /* \"#utility.yul\":2561:2565   */\n      dup3\n        /* \"#utility.yul\":2553:2559   */\n      dup3\n        /* \"#utility.yul\":2533:2566   */\n      tag_46\n      jump\t// in\n    tag_83:\n        /* \"#utility.yul\":2443:2572   */\n      swap2\n      swap1\n      pop\n      jump\t// out\n        /* \"#utility.yul\":2578:2886   */\n    tag_48:\n        /* \"#utility.yul\":2640:2644   */\n      0x00\n        /* \"#utility.yul\":2730:2748   */\n      0xffffffffffffffff\n        /* \"#utility.yul\":2722:2728   */\n      dup3\n        /* \"#utility.yul\":2719:2749   */\n      gt\n        /* \"#utility.yul\":2716:2772   */\n      iszero\n      tag_85\n      jumpi\n        /* \"#utility.yul\":2752:2770   */\n      tag_86\n      tag_45\n      jump\t// in\n    tag_86:\n        /* \"#utility.yul\":2716:2772   */\n    tag_85:\n        /* \"#utility.yul\":2790:2819   */\n      tag_87\n        /* \"#utility.yul\":2812:2818   */\n      dup3\n        /* \"#utility.yul\":2790:2819   */\n      tag_38\n      jump\t// in\n    tag_87:\n        /* \"#utility.yul\":2782:2819   */\n      swap1\n      pop\n        /* \"#utility.yul\":2874:2878   */\n      0x20\n        /* \"#utility.yul\":2868:2872   */\n      dup2\n        /* \"#utility.yul\":2864:2879   */\n      add\n        /* \"#utility.yul\":2856:2879   */\n      swap1\n      pop\n        /* \"#utility.yul\":2578:2886   */\n      swap2\n      swap1\n      pop\n      jump\t// out\n        /* \"#utility.yul\":2892:3046   */\n    tag_49:\n        /* \"#utility.yul\":2976:2982   */\n      dup3\n        /* \"#utility.yul\":2971:2974   */\n      dup2\n        /* \"#utility.yul\":2966:2969   */\n      dup4\n        /* \"#utility.yul\":2953:2983   */\n      calldatacopy\n        /* \"#utility.yul\":3038:3039   */\n      0x00\n        /* \"#utility.yul\":3029:3035   */\n      dup4\n        /* \"#utility.yul\":3024:3027   */\n      dup4\n        /* \"#utility.yul\":3020:3036   */\n      add\n        /* \"#utility.yul\":3013:3040   */\n      mstore\n        /* \"#utility.yul\":2892:3046   */\n      pop\n      pop\n      pop\n      jump\t// out\n        /* \"#utility.yul\":3052:3464   */\n    tag_50:\n        /* \"#utility.yul\":3130:3135   */\n      0x00\n        /* \"#utility.yul\":3155:3221   */\n      tag_90\n        /* \"#utility.yul\":3171:3220   */\n      tag_91\n        /* \"#utility.yul\":3213:3219   */\n      dup5\n        /* \"#utility.yul\":3171:3220   */\n      tag_48\n      jump\t// in\n    tag_91:\n        /* \"#utility.yul\":3155:3221   */\n      tag_47\n      jump\t// in\n    tag_90:\n        /* \"#utility.yul\":3146:3221   */\n      swap1\n      pop\n        /* \"#utility.yul\":3244:3250   */\n      dup3\n        /* \"#utility.yul\":3237:3242   */\n      dup2\n        /* \"#utility.yul\":3230:3251   */\n      mstore\n        /* \"#utility.yul\":3282:3286   */\n      0x20\n        /* \"#utility.yul\":3275:3280   */\n      dup2\n        /* \"#utility.yul\":3271:3287   */\n      add\n        /* \"#utility.yul\":3320:3323   */\n      dup5\n        /* \"#utility.yul\":3311:3317   */\n      dup5\n        /* \"#utility.yul\":3306:3309   */\n      dup5\n        /* \"#utility.yul\":3302:3318   */\n      add\n        /* \"#utility.yul\":3299:3324   */\n      gt\n        /* \"#utility.yul\":3296:3408   */\n      iszero\n      tag_92\n      jumpi\n        /* \"#utility.yul\":3327:3406   */\n      tag_93\n      tag_44\n      jump\t// in\n    tag_93:\n        /* \"#utility.yul\":3296:3408   */\n    tag_92:\n        /* \"#utility.yul\":3417:3458   */\n      tag_94\n        /* \"#utility.yul\":3451:3457   */\n      dup5\n        /* \"#utility.yul\":3446:3449   */\n      dup3\n        /* \"#utility.yul\":3441:3444   */\n      dup6\n        /* \"#utility.yul\":3417:3458   */\n      tag_49\n      jump\t// in\n    tag_94:\n        /* \"#utility.yul\":3136:3464   */\n      pop\n        /* \"#utility.yul\":3052:3464   */\n      swap4\n      swap3\n      pop\n      pop\n      pop\n      jump\t// out\n        /* \"#utility.yul\":3484:3824   */\n    tag_51:\n        /* \"#utility.yul\":3540:3545   */\n      0x00\n        /* \"#utility.yul\":3589:3592   */\n      dup3\n        /* \"#utility.yul\":3582:3586   */\n      0x1f\n        /* \"#utility.yul\":3574:3580   */\n      dup4\n        /* \"#utility.yul\":3570:3587   */\n      add\n        /* \"#utility.yul\":3566:3593   */\n      slt\n        /* \"#utility.yul\":3556:3678   */\n      tag_96\n      jumpi\n        /* \"#utility.yul\":3597:3676   */\n      tag_97\n      tag_43\n      jump\t// in\n    tag_97:\n        /* \"#utility.yul\":3556:3678   */\n    tag_96:\n        /* \"#utility.yul\":3714:3720   */\n      dup2\n        /* \"#utility.yul\":3701:3721   */\n      calldataload\n        /* \"#utility.yul\":3739:3818   */\n      tag_98\n        /* \"#utility.yul\":3814:3817   */\n      dup5\n        /* \"#utility.yul\":3806:3812   */\n      dup3\n        /* \"#utility.yul\":3799:3803   */\n      0x20\n        /* \"#utility.yul\":3791:3797   */\n      dup7\n        /* \"#utility.yul\":3787:3804   */\n      add\n        /* \"#utility.yul\":3739:3818   */\n      tag_50\n      jump\t// in\n    tag_98:\n        /* \"#utility.yul\":3730:3818   */\n      swap2\n      pop\n        /* \"#utility.yul\":3546:3824   */\n      pop\n        /* \"#utility.yul\":3484:3824   */\n      swap3\n      swap2\n      pop\n      pop\n      jump\t// out\n        /* \"#utility.yul\":3830:4339   */\n    tag_11:\n        /* \"#utility.yul\":3899:3905   */\n      0x00\n        /* \"#utility.yul\":3948:3950   */\n      0x20\n        /* \"#utility.yul\":3936:3945   */\n      dup3\n        /* \"#utility.yul\":3927:3934   */\n      dup5\n        /* \"#utility.yul\":3923:3946   */\n      sub\n        /* \"#utility.yul\":3919:3951   */\n      slt\n        /* \"#utility.yul\":3916:4035   */\n      iszero\n      tag_100\n      jumpi\n        /* \"#utility.yul\":3954:4033   */\n      tag_101\n      tag_41\n      jump\t// in\n    tag_101:\n        /* \"#utility.yul\":3916:4035   */\n    tag_100:\n        /* \"#utility.yul\":4102:4103   */\n      0x00\n        /* \"#utility.yul\":4091:4100   */\n      dup3\n        /* \"#utility.yul\":4087:4104   */\n      add\n        /* \"#utility.yul\":4074:4105   */\n      calldataload\n        /* \"#utility.yul\":4132:4150   */\n      0xffffffffffffffff\n        /* \"#utility.yul\":4124:4130   */\n      dup2\n        /* \"#utility.yul\":4121:4151   */\n      gt\n        /* \"#utility.yul\":4118:4235   */\n      iszero\n      tag_102\n      jumpi\n        /* \"#utility.yul\":4154:4233   */\n      tag_103\n      tag_42\n      jump\t// in\n    tag_103:\n        /* \"#utility.yul\":4118:4235   */\n    tag_102:\n        /* \"#utility.yul\":4259:4322   */\n      tag_104\n        /* \"#utility.yul\":4314:4321   */\n      dup5\n        /* \"#utility.yul\":4305:4311   */\n      dup3\n        /* \"#utility.yul\":4294:4303   */\n      dup6\n        /* \"#utility.yul\":4290:4312   */\n      add\n        /* \"#utility.yul\":4259:4322   */\n      tag_51\n      jump\t// in\n    tag_104:\n        /* \"#utility.yul\":4249:4322   */\n      swap2\n      pop\n        /* \"#utility.yul\":4045:4332   */\n      pop\n        /* \"#utility.yul\":3830:4339   */\n      swap3\n      swap2\n      pop\n      pop\n      jump\t// out\n        /* \"#utility.yul\":4345:4525   */\n    tag_52:\n        /* \"#utility.yul\":4393:4470   */\n      0x4e487b7100000000000000000000000000000000000000000000000000000000\n        /* \"#utility.yul\":4390:4391   */\n      0x00\n        /* \"#utility.yul\":4383:4471   */\n      mstore\n        /* \"#utility.yul\":4490:4494   */\n      0x22\n        /* \"#utility.yul\":4487:4488   */\n      0x04\n        /* \"#utility.yul\":4480:4495   */\n      mstore\n        /* \"#utility.yul\":4514:4518   */\n      0x24\n        /* \"#utility.yul\":4511:4512   */\n      0x00\n        /* \"#utility.yul\":4504:4519   */\n      revert\n        /* \"#utility.yul\":4531:4851   */\n    tag_15:\n        /* \"#utility.yul\":4575:4581   */\n      0x00\n        /* \"#utility.yul\":4612:4613   */\n      0x02\n        /* \"#utility.yul\":4606:4610   */\n      dup3\n        /* \"#utility.yul\":4602:4614   */\n      div\n        /* \"#utility.yul\":4592:4614   */\n      swap1\n      pop\n        /* \"#utility.yul\":4659:4660   */\n      0x01\n        /* \"#utility.yul\":4653:4657   */\n      dup3\n        /* \"#utility.yul\":4649:4661   */\n      and\n        /* \"#utility.yul\":4680:4698   */\n      dup1\n        /* \"#utility.yul\":4670:4751   */\n      tag_107\n      jumpi\n        /* \"#utility.yul\":4736:4740   */\n      0x7f\n        /* \"#utility.yul\":4728:4734   */\n      dup3\n        /* \"#utility.yul\":4724:4741   */\n      and\n        /* \"#utility.yul\":4714:4741   */\n      swap2\n      pop\n        /* \"#utility.yul\":4670:4751   */\n    tag_107:\n        /* \"#utility.yul\":4798:4800   */\n      0x20\n        /* \"#utility.yul\":4790:4796   */\n      dup3\n        /* \"#utility.yul\":4787:4801   */\n      lt\n        /* \"#utility.yul\":4767:4785   */\n      dup2\n        /* \"#utility.yul\":4764:4802   */\n      eq\n        /* \"#utility.yul\":4761:4845   */\n      iszero\n      tag_108\n      jumpi\n        /* \"#utility.yul\":4817:4835   */\n      tag_109\n      tag_52\n      jump\t// in\n    tag_109:\n        /* \"#utility.yul\":4761:4845   */\n    tag_108:\n        /* \"#utility.yul\":4582:4851   */\n      pop\n        /* \"#utility.yul\":4531:4851   */\n      swap2\n      swap1\n      pop\n      jump\t// out\n        /* \"#utility.yul\":4857:4998   */\n    tag_53:\n        /* \"#utility.yul\":4906:4910   */\n      0x00\n        /* \"#utility.yul\":4929:4932   */\n      dup2\n        /* \"#utility.yul\":4921:4932   */\n      swap1\n      pop\n        /* \"#utility.yul\":4952:4955   */\n      dup2\n        /* \"#utility.yul\":4949:4950   */\n      0x00\n        /* \"#utility.yul\":4942:4956   */\n      mstore\n        /* \"#utility.yul\":4986:4990   */\n      0x20\n        /* \"#utility.yul\":4983:4984   */\n      0x00\n        /* \"#utility.yul\":4973:4991   */\n      keccak256\n        /* \"#utility.yul\":4965:4991   */\n      swap1\n      pop\n        /* \"#utility.yul\":4857:4998   */\n      swap2\n      swap1\n      pop\n      jump\t// out\n        /* \"#utility.yul\":5028:5830   */\n    tag_54:\n        /* \"#utility.yul\":5113:5116   */\n      0x00\n        /* \"#utility.yul\":5150:5155   */\n      dup2\n        /* \"#utility.yul\":5144:5156   */\n      sload\n        /* \"#utility.yul\":5179:5215   */\n      tag_112\n        /* \"#utility.yul\":5205:5214   */\n      dup2\n        /* \"#utility.yul\":5179:5215   */\n      tag_15\n      jump\t// in\n    tag_112:\n        /* \"#utility.yul\":5231:5302   */\n      tag_113\n        /* \"#utility.yul\":5295:5301   */\n      dup2\n        /* \"#utility.yul\":5290:5293   */\n      dup7\n        /* \"#utility.yul\":5231:5302   */\n      tag_36\n      jump\t// in\n    tag_113:\n        /* \"#utility.yul\":5224:5302   */\n      swap5\n      pop\n        /* \"#utility.yul\":5333:5334   */\n      0x01\n        /* \"#utility.yul\":5322:5331   */\n      dup3\n        /* \"#utility.yul\":5318:5335   */\n      and\n        /* \"#utility.yul\":5349:5350   */\n      0x00\n        /* \"#utility.yul\":5344:5479   */\n      dup2\n      eq\n      tag_115\n      jumpi\n        /* \"#utility.yul\":5493:5494   */\n      0x01\n        /* \"#utility.yul\":5488:5824   */\n      dup2\n      eq\n      tag_116\n      jumpi\n        /* \"#utility.yul\":5311:5824   */\n      jump(tag_114)\n        /* \"#utility.yul\":5344:5479   */\n    tag_115:\n        /* \"#utility.yul\":5428:5432   */\n      0xff\n        /* \"#utility.yul\":5424:5433   */\n      not\n        /* \"#utility.yul\":5413:5422   */\n      dup4\n        /* \"#utility.yul\":5409:5434   */\n      and\n        /* \"#utility.yul\":5404:5407   */\n      dup7\n        /* \"#utility.yul\":5397:5435   */\n      mstore\n        /* \"#utility.yul\":5464:5468   */\n      0x20\n        /* \"#utility.yul\":5459:5462   */\n      dup7\n        /* \"#utility.yul\":5455:5469   */\n      add\n        /* \"#utility.yul\":5448:5469   */\n      swap4\n      pop\n        /* \"#utility.yul\":5344:5479   */\n      jump(tag_114)\n        /* \"#utility.yul\":5488:5824   */\n    tag_116:\n        /* \"#utility.yul\":5555:5593   */\n      tag_117\n        /* \"#utility.yul\":5587:5592   */\n      dup6\n        /* \"#utility.yul\":5555:5593   */\n      tag_53\n      jump\t// in\n    tag_117:\n        /* \"#utility.yul\":5615:5616   */\n      0x00\n        /* \"#utility.yul\":5629:5783   */\n    tag_118:\n        /* \"#utility.yul\":5643:5649   */\n      dup4\n        /* \"#utility.yul\":5640:5641   */\n      dup2\n        /* \"#utility.yul\":5637:5650   */\n      lt\n        /* \"#utility.yul\":5629:5783   */\n      iszero\n      tag_120\n      jumpi\n        /* \"#utility.yul\":5717:5724   */\n      dup2\n        /* \"#utility.yul\":5711:5725   */\n      sload\n        /* \"#utility.yul\":5707:5708   */\n      dup2\n        /* \"#utility.yul\":5702:5705   */\n      dup10\n        /* \"#utility.yul\":5698:5709   */\n      add\n        /* \"#utility.yul\":5691:5726   */\n      mstore\n        /* \"#utility.yul\":5767:5768   */\n      0x01\n        /* \"#utility.yul\":5758:5765   */\n      dup3\n        /* \"#utility.yul\":5754:5769   */\n      add\n        /* \"#utility.yul\":5743:5769   */\n      swap2\n      pop\n        /* \"#utility.yul\":5665:5669   */\n      0x20\n        /* \"#utility.yul\":5662:5663   */\n      dup2\n        /* \"#utility.yul\":5658:5670   */\n      add\n        /* \"#utility.yul\":5653:5670   */\n      swap1\n      pop\n        /* \"#utility.yul\":5629:5783   */\n      jump(tag_118)\n    tag_120:\n        /* \"#utility.yul\":5812:5813   */\n      dup1\n        /* \"#utility.yul\":5807:5810   */\n      dup9\n        /* \"#utility.yul\":5803:5814   */\n      add\n        /* \"#utility.yul\":5796:5814   */\n      swap6\n      pop\n        /* \"#utility.yul\":5495:5824   */\n      pop\n      pop\n        /* \"#utility.yul\":5311:5824   */\n    tag_114:\n      pop\n        /* \"#utility.yul\":5117:5830   */\n      pop\n      pop\n        /* \"#utility.yul\":5028:5830   */\n      swap3\n      swap2\n      pop\n      pop\n      jump\t// out\n        /* \"#utility.yul\":5836:6344   */\n    tag_22:\n        /* \"#utility.yul\":5994:5998   */\n      0x00\n        /* \"#utility.yul\":6032:6034   */\n      0x40\n        /* \"#utility.yul\":6021:6030   */\n      dup3\n        /* \"#utility.yul\":6017:6035   */\n      add\n        /* \"#utility.yul\":6009:6035   */\n      swap1\n      pop\n        /* \"#utility.yul\":6081:6090   */\n      dup2\n        /* \"#utility.yul\":6075:6079   */\n      dup2\n        /* \"#utility.yul\":6071:6091   */\n      sub\n        /* \"#utility.yul\":6067:6068   */\n      0x00\n        /* \"#utility.yul\":6056:6065   */\n      dup4\n        /* \"#utility.yul\":6052:6069   */\n      add\n        /* \"#utility.yul\":6045:6092   */\n      mstore\n        /* \"#utility.yul\":6109:6184   */\n      tag_122\n        /* \"#utility.yul\":6179:6183   */\n      dup2\n        /* \"#utility.yul\":6170:6176   */\n      dup6\n        /* \"#utility.yul\":6109:6184   */\n      tag_54\n      jump\t// in\n    tag_122:\n        /* \"#utility.yul\":6101:6184   */\n      swap1\n      pop\n        /* \"#utility.yul\":6231:6240   */\n      dup2\n        /* \"#utility.yul\":6225:6229   */\n      dup2\n        /* \"#utility.yul\":6221:6241   */\n      sub\n        /* \"#utility.yul\":6216:6218   */\n      0x20\n        /* \"#utility.yul\":6205:6214   */\n      dup4\n        /* \"#utility.yul\":6201:6219   */\n      add\n        /* \"#utility.yul\":6194:6242   */\n      mstore\n        /* \"#utility.yul\":6259:6337   */\n      tag_123\n        /* \"#utility.yul\":6332:6336   */\n      dup2\n        /* \"#utility.yul\":6323:6329   */\n      dup5\n        /* \"#utility.yul\":6259:6337   */\n      tag_39\n      jump\t// in\n    tag_123:\n        /* \"#utility.yul\":6251:6337   */\n      swap1\n      pop\n        /* \"#utility.yul\":5836:6344   */\n      swap4\n      swap3\n      pop\n      pop\n      pop\n      jump\t// out\n\n    auxdata: 0xa26469706673582212209b9b15c3a3bc734809de9e5195ad0046791ee0e281158e19be6e143d6fa55eb164736f6c634300080c0033\n}\n",
    "bytecode": {
      "linkReferences": {},
      "object": "60806040523480156200001157600080fd5b5060405162000abb38038062000abb8339818101604052810190620000379190620002f7565b3373ffffffffffffffffffffffffffffffffffffffff167fe826f71647b8486f2bae59832124c70792fba044036720a54ec8dacdd5df4fcb60008360405162000082929190620004ab565b60405180910390a28060009080519060200190620000a2929190620000aa565b5050620004e6565b828054620000b89062000377565b90600052602060002090601f016020900481019282620000dc576000855562000128565b82601f10620000f757805160ff191683800117855562000128565b8280016001018555821562000128579182015b82811115620001275782518255916020019190600101906200010a565b5b5090506200013791906200013b565b5090565b5b80821115620001565760008160009055506001016200013c565b5090565b6000604051905090565b600080fd5b600080fd5b600080fd5b600080fd5b6000601f19601f8301169050919050565b7f4e487b7100000000000000000000000000000000000000000000000000000000600052604160045260246000fd5b620001c38262000178565b810181811067ffffffffffffffff82111715620001e557620001e462000189565b5b80604052505050565b6000620001fa6200015a565b9050620002088282620001b8565b919050565b600067ffffffffffffffff8211156200022b576200022a62000189565b5b620002368262000178565b9050602081019050919050565b60005b838110156200026357808201518184015260208101905062000246565b8381111562000273576000848401525b50505050565b6000620002906200028a846200020d565b620001ee565b905082815260208101848484011115620002af57620002ae62000173565b5b620002bc84828562000243565b509392505050565b600082601f830112620002dc57620002db6200016e565b5b8151620002ee84826020860162000279565b91505092915050565b60006020828403121562000310576200030f62000164565b5b600082015167ffffffffffffffff81111562000331576200033062000169565b5b6200033f84828501620002c4565b91505092915050565b7f4e487b7100000000000000000000000000000000000000000000000000000000600052602260045260246000fd5b600060028204905060018216806200039057607f821691505b60208210811415620003a757620003a662000348565b5b50919050565b600082825260208201905092915050565b60008190508160005260206000209050919050565b60008154620003e28162000377565b620003ee8186620003ad565b945060018216600081146200040c57600181146200041f5762000456565b60ff198316865260208601935062000456565b6200042a85620003be565b60005b838110156200044e578154818901526001820191506020810190506200042d565b808801955050505b50505092915050565b600081519050919050565b600062000477826200045f565b620004838185620003ad565b93506200049581856020860162000243565b620004a08162000178565b840191505092915050565b60006040820190508181036000830152620004c78185620003d3565b90508181036020830152620004dd81846200046a565b90509392505050565b6105c580620004f66000396000f3fe608060405234801561001057600080fd5b50600436106100365760003560e01c8063209652551461003b57806393a0935214610059575b600080fd5b610043610075565b60405161005091906102ae565b60405180910390f35b610073600480360381019061006e9190610419565b610107565b005b60606000805461008490610491565b80601f01602080910402602001604051908101604052809291908181526020018280546100b090610491565b80156100fd5780601f106100d2576101008083540402835291602001916100fd565b820191906000526020600020905b8154815290600101906020018083116100e057829003601f168201915b5050505050905090565b3373ffffffffffffffffffffffffffffffffffffffff167fe826f71647b8486f2bae59832124c70792fba044036720a54ec8dacdd5df4fcb600083604051610150929190610558565b60405180910390a2806000908051906020019061016e929190610172565b5050565b82805461017e90610491565b90600052602060002090601f0160209004810192826101a057600085556101e7565b82601f106101b957805160ff19168380011785556101e7565b828001600101855582156101e7579182015b828111156101e65782518255916020019190600101906101cb565b5b5090506101f491906101f8565b5090565b5b808211156102115760008160009055506001016101f9565b5090565b600081519050919050565b600082825260208201905092915050565b60005b8381101561024f578082015181840152602081019050610234565b8381111561025e576000848401525b50505050565b6000601f19601f8301169050919050565b600061028082610215565b61028a8185610220565b935061029a818560208601610231565b6102a381610264565b840191505092915050565b600060208201905081810360008301526102c88184610275565b905092915050565b6000604051905090565b600080fd5b600080fd5b600080fd5b600080fd5b7f4e487b7100000000000000000000000000000000000000000000000000000000600052604160045260246000fd5b61032682610264565b810181811067ffffffffffffffff82111715610345576103446102ee565b5b80604052505050565b60006103586102d0565b9050610364828261031d565b919050565b600067ffffffffffffffff821115610384576103836102ee565b5b61038d82610264565b9050602081019050919050565b82818337600083830152505050565b60006103bc6103b784610369565b61034e565b9050828152602081018484840111156103d8576103d76102e9565b5b6103e384828561039a565b509392505050565b600082601f830112610400576103ff6102e4565b5b81356104108482602086016103a9565b91505092915050565b60006020828403121561042f5761042e6102da565b5b600082013567ffffffffffffffff81111561044d5761044c6102df565b5b610459848285016103eb565b91505092915050565b7f4e487b7100000000000000000000000000000000000000000000000000000000600052602260045260246000fd5b600060028204905060018216806104a957607f821691505b602082108114156104bd576104bc610462565b5b50919050565b60008190508160005260206000209050919050565b600081546104e581610491565b6104ef8186610220565b9450600182166000811461050a576001811461051c5761054f565b60ff198316865260208601935061054f565b610525856104c3565b60005b8381101561054757815481890152600182019150602081019050610528565b808801955050505b50505092915050565b6000604082019050818103600083015261057281856104d8565b905081810360208301526105868184610275565b9050939250505056fea26469706673582212209b9b15c3a3bc734809de9e5195ad0046791ee0e281158e19be6e143d6fa55eb164736f6c634300080c0033",
      "opcodes": "PUSH1 0x80 PUSH1 0x40 MSTORE CALLVALUE DUP1 ISZERO PUSH3 0x11 JUMPI PUSH1 0x0 DUP1 REVERT JUMPDEST POP PUSH1 0x40 MLOAD PUSH3 0xABB CODESIZE SUB DUP1 PUSH3 0xABB DUP4 CODECOPY DUP2 DUP2 ADD PUSH1 0x40 MSTORE DUP2 ADD SWAP1 PUSH3 0x37 SWAP2 SWAP1 PUSH3 0x2F7 JUMP JUMPDEST CALLER PUSH20 0xFFFFFFFFFFFFFFFFFFFFFFFFFFFFFFFFFFFFFFFF AND PUSH32 0xE826F71647B8486F2BAE59832124C70792FBA044036720A54EC8DACDD5DF4FCB PUSH1 0x0 DUP4 PUSH1 0x40 MLOAD PUSH3 0x82 SWAP3 SWAP2 SWAP1 PUSH3 0x4AB JUMP JUMPDEST PUSH1 0x40 MLOAD DUP1 SWAP2 SUB SWAP1 LOG2 DUP1 PUSH1 0x0 SWAP1 DUP1 MLOAD SWAP1 PUSH1 0x20 ADD SWAP1 PUSH3 0xA2 SWAP3 SWAP2 SWAP1 PUSH3 0xAA JUMP JUMPDEST POP POP PUSH3 0x4E6 JUMP JUMPDEST DUP3 DUP1 SLOAD PUSH3 0xB8 SWAP1 PUSH3 0x377 JUMP JUMPDEST SWAP1 PUSH1 0x0 MSTORE PUSH1 0x20 PUSH1 0x0 KECCAK256 SWAP1 PUSH1 0x1F ADD PUSH1 0x20 SWAP1 DIV DUP2 ADD SWAP3 DUP3 PUSH3 0xDC JUMPI PUSH1 0x0 DUP6 SSTORE PUSH3 0x128 JUMP JUMPDEST DUP3 PUSH1 0x1F LT PUSH3 0xF7 JUMPI DUP1 MLOAD PUSH1 0xFF NOT AND DUP4 DUP1 ADD OR DUP6 SSTORE PUSH3 0x128 JUMP JUMPDEST DUP3 DUP1 ADD PUSH1 0x1 ADD DUP6 SSTORE DUP3 ISZERO PUSH3 0x128 JUMPI SWAP2 DUP3 ADD JUMPDEST DUP3 DUP2 GT ISZERO PUSH3 0x127 JUMPI DUP3 MLOAD DUP3 SSTORE SWAP2 PUSH1 0x20 ADD SWAP2 SWAP1 PUSH1 0x1 ADD SWAP1 PUSH3 0x10A JUMP JUMPDEST JUMPDEST POP SWAP1 POP PUSH3 0x137 SWAP2 SWAP1 PUSH3 0x13B JUMP JUMPDEST POP SWAP1 JUMP JUMPDEST JUMPDEST DUP1 DUP3 GT ISZERO PUSH3 0x156 JUMPI PUSH1 0x0 DUP2 PUSH1 0x0 SWAP1 SSTORE POP PUSH1 0x1 ADD PUSH3 0x13C JUMP JUMPDEST POP SWAP1 JUMP JUMPDEST PUSH1 0x0 PUSH1 0x40 MLOAD SWAP1 POP SWAP1 JUMP JUMPDEST PUSH1 0x0 DUP1 REVERT JUMPDEST PUSH1 0x0 DUP1 REVERT JUMPDEST PUSH1 0x0 DUP1 REVERT JUMPDEST PUSH1 0x0 DUP1 REVERT JUMPDEST PUSH1 0x0 PUSH1 0x1F NOT PUSH1 0x1F DUP4 ADD AND SWAP1 POP SWAP2 SWAP1 POP JUMP JUMPDEST PUSH32 0x4E487B7100000000000000000000000000000000000000000000000000000000 PUSH1 0x0 MSTORE PUSH1 0x41 PUSH1 0x4 MSTORE PUSH1 0x24 PUSH1 0x0 REVERT JUMPDEST PUSH3 0x1C3 DUP3 PUSH3 0x178 JUMP JUMPDEST DUP2 ADD DUP2 DUP2 LT PUSH8 0xFFFFFFFFFFFFFFFF DUP3 GT OR ISZERO PUSH3 0x1E5 JUMPI PUSH3 0x1E4 PUSH3 0x189 JUMP JUMPDEST JUMPDEST DUP1 PUSH1 0x40 MSTORE POP POP POP JUMP JUMPDEST PUSH1 0x0 PUSH3 0x1FA PUSH3 0x15A JUMP JUMPDEST SWAP1 POP PUSH3 0x208 DUP3 DUP3 PUSH3 0x1B8 JUMP JUMPDEST SWAP2 SWAP1 POP JUMP JUMPDEST PUSH1 0x0 PUSH8 0xFFFFFFFFFFFFFFFF DUP3 GT ISZERO PUSH3 0x22B JUMPI PUSH3 0x22A PUSH3 0x189 JUMP JUMPDEST JUMPDEST PUSH3 0x236 DUP3 PUSH3 0x178 JUMP JUMPDEST SWAP1 POP PUSH1 0x20 DUP2 ADD SWAP1 POP SWAP2 SWAP1 POP JUMP JUMPDEST PUSH1 0x0 JUMPDEST DUP4 DUP2 LT ISZERO PUSH3 0x263 JUMPI DUP1 DUP3 ADD MLOAD DUP2 DUP5 ADD MSTORE PUSH1 0x20 DUP2 ADD SWAP1 POP PUSH3 0x246 JUMP JUMPDEST DUP4 DUP2 GT ISZERO PUSH3 0x273 JUMPI PUSH1 0x0 DUP5 DUP5 ADD MSTORE JUMPDEST POP POP POP POP JUMP JUMPDEST PUSH1 0x0 PUSH3 0x290 PUSH3 0x28A DUP5 PUSH3 0x20D JUMP JUMPDEST PUSH3 0x1EE JUMP JUMPDEST SWAP1 POP DUP3 DUP2 MSTORE PUSH1 0x20 DUP2 ADD DUP5 DUP5 DUP5 ADD GT ISZERO PUSH3 0x2AF JUMPI PUSH3 0x2AE PUSH3 0x173 JUMP JUMPDEST JUMPDEST PUSH3 0x2BC DUP5 DUP3 DUP6 PUSH3 0x243 JUMP JUMPDEST POP SWAP4 SWAP3 POP POP POP JUMP JUMPDEST PUSH1 0x0 DUP3 PUSH1 0x1F DUP4 ADD SLT PUSH3 0x2DC JUMPI PUSH3 0x2DB PUSH3 0x16E JUMP JUMPDEST JUMPDEST DUP2 MLOAD PUSH3 0x2EE DUP5 DUP3 PUSH1 0x20 DUP7 ADD PUSH3 0x279 JUMP JUMPDEST SWAP2 POP POP SWAP3 SWAP2 POP POP JUMP JUMPDEST PUSH1 0x0 PUSH1 0x20 DUP3 DUP5 SUB SLT ISZERO PUSH3 0x310 JUMPI PUSH3 0x30F PUSH3 0x164 JUMP JUMPDEST JUMPDEST PUSH1 0x0 DUP3 ADD MLOAD PUSH8 0xFFFFFFFFFFFFFFFF DUP2 GT ISZERO PUSH3 0x331 JUMPI PUSH3 0x330 PUSH3 0x169 JUMP JUMPDEST JUMPDEST PUSH3 0x33F DUP5 DUP3 DUP6 ADD PUSH3 0x2C4 JUMP JUMPDEST SWAP2 POP POP SWAP3 SWAP2 POP POP JUMP JUMPDEST PUSH32 0x4E487B7100000000000000000000000000000000000000000000000000000000 PUSH1 0x0 MSTORE PUSH1 0x22 PUSH1 0x4 MSTORE PUSH1 0x24 PUSH1 0x0 REVERT JUMPDEST PUSH1 0x0 PUSH1 0x2 DUP3 DIV SWAP1 POP PUSH1 0x1 DUP3 AND DUP1 PUSH3 0x390 JUMPI PUSH1 0x7F DUP3 AND SWAP2 POP JUMPDEST PUSH1 0x20 DUP3 LT DUP2 EQ ISZERO PUSH3 0x3A7 JUMPI PUSH3 0x3A6 PUSH3 0x348 JUMP JUMPDEST JUMPDEST POP SWAP2 SWAP1 POP JUMP JUMPDEST PUSH1 0x0 DUP3 DUP3 MSTORE PUSH1 0x20 DUP3 ADD SWAP1 POP SWAP3 SWAP2 POP POP JUMP JUMPDEST PUSH1 0x0 DUP2 SWAP1 POP DUP2 PUSH1 0x0 MSTORE PUSH1 0x20 PUSH1 0x0 KECCAK256 SWAP1 POP SWAP2 SWAP1 POP JUMP JUMPDEST PUSH1 0x0 DUP2 SLOAD PUSH3 0x3E2 DUP2 PUSH3 0x377 JUMP JUMPDEST PUSH3 0x3EE DUP2 DUP7 PUSH3 0x3AD JUMP JUMPDEST SWAP5 POP PUSH1 0x1 DUP3 AND PUSH1 0x0 DUP2 EQ PUSH3 0x40C JUMPI PUSH1 0x1 DUP2 EQ PUSH3 0x41F JUMPI PUSH3 0x456 JUMP JUMPDEST PUSH1 0xFF NOT DUP4 AND DUP7 MSTORE PUSH1 0x20 DUP7 ADD SWAP4 POP PUSH3 0x456 JUMP JUMPDEST PUSH3 0x42A DUP6 PUSH3 0x3BE JUMP JUMPDEST PUSH1 0x0 JUMPDEST DUP4 DUP2 LT ISZERO PUSH3 0x44E JUMPI DUP2 SLOAD DUP2 DUP10 ADD MSTORE PUSH1 0x1 DUP3 ADD SWAP2 POP PUSH1 0x20 DUP2 ADD SWAP1 POP PUSH3 0x42D JUMP JUMPDEST DUP1 DUP9 ADD SWAP6 POP POP POP JUMPDEST POP POP POP SWAP3 SWAP2 POP POP JUMP JUMPDEST PUSH1 0x0 DUP2 MLOAD SWAP1 POP SWAP2 SWAP1 POP JUMP JUMPDEST PUSH1 0x0 PUSH3 0x477 DUP3 PUSH3 0x45F JUMP JUMPDEST PUSH3 0x483 DUP2 DUP6 PUSH3 0x3AD JUMP JUMPDEST SWAP4 POP PUSH3 0x495 DUP2 DUP6 PUSH1 0x20 DUP7 ADD PUSH3 0x243 JUMP JUMPDEST PUSH3 0x4A0 DUP2 PUSH3 0x178 JUMP JUMPDEST DUP5 ADD SWAP2 POP POP SWAP3 SWAP2 POP POP JUMP JUMPDEST PUSH1 0x0 PUSH1 0x40 DUP3 ADD SWAP1 POP DUP2 DUP2 SUB PUSH1 0x0 DUP4 ADD MSTORE PUSH3 0x4C7 DUP2 DUP6 PUSH3 0x3D3 JUMP JUMPDEST SWAP1 POP DUP2 DUP2 SUB PUSH1 0x20 DUP4 ADD MSTORE PUSH3 0x4DD DUP2 DUP5 PUSH3 0x46A JUMP JUMPDEST SWAP1 POP SWAP4 SWAP3 POP POP POP JUMP JUMPDEST PUSH2 0x5C5 DUP1 PUSH3 0x4F6 PUSH1 0x0 CODECOPY PUSH1 0x0 RETURN INVALID PUSH1 0x80 PUSH1 0x40 MSTORE CALLVALUE DUP1 ISZERO PUSH2 0x10 JUMPI PUSH1 0x0 DUP1 REVERT JUMPDEST POP PUSH1 0x4 CALLDATASIZE LT PUSH2 0x36 JUMPI PUSH1 0x0 CALLDATALOAD PUSH1 0xE0 SHR DUP1 PUSH4 0x20965255 EQ PUSH2 0x3B JUMPI DUP1 PUSH4 0x93A09352 EQ PUSH2 0x59 JUMPI JUMPDEST PUSH1 0x0 DUP1 REVERT JUMPDEST PUSH2 0x43 PUSH2 0x75 JUMP JUMPDEST PUSH1 0x40 MLOAD PUSH2 0x50 SWAP2 SWAP1 PUSH2 0x2AE JUMP JUMPDEST PUSH1 0x40 MLOAD DUP1 SWAP2 SUB SWAP1 RETURN JUMPDEST PUSH2 0x73 PUSH1 0x4 DUP1 CALLDATASIZE SUB DUP2 ADD SWAP1 PUSH2 0x6E SWAP2 SWAP1 PUSH2 0x419 JUMP JUMPDEST PUSH2 0x107 JUMP JUMPDEST STOP JUMPDEST PUSH1 0x60 PUSH1 0x0 DUP1 SLOAD PUSH2 0x84 SWAP1 PUSH2 0x491 JUMP JUMPDEST DUP1 PUSH1 0x1F ADD PUSH1 0x20 DUP1 SWAP2 DIV MUL PUSH1 0x20 ADD PUSH1 0x40 MLOAD SWAP1 DUP2 ADD PUSH1 0x40 MSTORE DUP1 SWAP3 SWAP2 SWAP1 DUP2 DUP2 MSTORE PUSH1 0x20 ADD DUP3 DUP1 SLOAD PUSH2 0xB0 SWAP1 PUSH2 0x491 JUMP JUMPDEST DUP1 ISZERO PUSH2 0xFD JUMPI DUP1 PUSH1 0x1F LT PUSH2 0xD2 JUMPI PUSH2 0x100 DUP1 DUP4 SLOAD DIV MUL DUP4 MSTORE SWAP2 PUSH1 0x20 ADD SWAP2 PUSH2 0xFD JUMP JUMPDEST DUP3 ADD SWAP2 SWAP1 PUSH1 0x0 MSTORE PUSH1 0x20 PUSH1 0x0 KECCAK256 SWAP1 JUMPDEST DUP2 SLOAD DUP2 MSTORE SWAP1 PUSH1 0x1 ADD SWAP1 PUSH1 0x20 ADD DUP1 DUP4 GT PUSH2 0xE0 JUMPI DUP3 SWAP1 SUB PUSH1 0x1F AND DUP3 ADD SWAP2 JUMPDEST POP POP POP POP POP SWAP1 POP SWAP1 JUMP JUMPDEST CALLER PUSH20 0xFFFFFFFFFFFFFFFFFFFFFFFFFFFFFFFFFFFFFFFF AND PUSH32 0xE826F71647B8486F2BAE59832124C70792FBA044036720A54EC8DACDD5DF4FCB PUSH1 0x0 DUP4 PUSH1 0x40 MLOAD PUSH2 0x150 SWAP3 SWAP2 SWAP1 PUSH2 0x558 JUMP JUMPDEST PUSH1 0x40 MLOAD DUP1 SWAP2 SUB SWAP1 LOG2 DUP1 PUSH1 0x0 SWAP1 DUP1 MLOAD SWAP1 PUSH1 0x20 ADD SWAP1 PUSH2 0x16E SWAP3 SWAP2 SWAP1 PUSH2 0x172 JUMP JUMPDEST POP POP JUMP JUMPDEST DUP3 DUP1 SLOAD PUSH2 0x17E SWAP1 PUSH2 0x491 JUMP JUMPDEST SWAP1 PUSH1 0x0 MSTORE PUSH1 0x20 PUSH1 0x0 KECCAK256 SWAP1 PUSH1 0x1F ADD PUSH1 0x20 SWAP1 DIV DUP2 ADD SWAP3 DUP3 PUSH2 0x1A0 JUMPI PUSH1 0x0 DUP6 SSTORE PUSH2 0x1E7 JUMP JUMPDEST DUP3 PUSH1 0x1F LT PUSH2 0x1B9 JUMPI DUP1 MLOAD PUSH1 0xFF NOT AND DUP4 DUP1 ADD OR DUP6 SSTORE PUSH2 0x1E7 JUMP JUMPDEST DUP3 DUP1 ADD PUSH1 0x1 ADD DUP6 SSTORE DUP3 ISZERO PUSH2 0x1E7 JUMPI SWAP2 DUP3 ADD JUMPDEST DUP3 DUP2 GT ISZERO PUSH2 0x1E6 JUMPI DUP3 MLOAD DUP3 SSTORE SWAP2 PUSH1 0x20 ADD SWAP2 SWAP1 PUSH1 0x1 ADD SWAP1 PUSH2 0x1CB JUMP JUMPDEST JUMPDEST POP SWAP1 POP PUSH2 0x1F4 SWAP2 SWAP1 PUSH2 0x1F8 JUMP JUMPDEST POP SWAP1 JUMP JUMPDEST JUMPDEST DUP1 DUP3 GT ISZERO PUSH2 0x211 JUMPI PUSH1 0x0 DUP2 PUSH1 0x0 SWAP1 SSTORE POP PUSH1 0x1 ADD PUSH2 0x1F9 JUMP JUMPDEST POP SWAP1 JUMP JUMPDEST PUSH1 0x0 DUP2 MLOAD SWAP1 POP SWAP2 SWAP1 POP JUMP JUMPDEST PUSH1 0x0 DUP3 DUP3 MSTORE PUSH1 0x20 DUP3 ADD SWAP1 POP SWAP3 SWAP2 POP POP JUMP JUMPDEST PUSH1 0x0 JUMPDEST DUP4 DUP2 LT ISZERO PUSH2 0x24F JUMPI DUP1 DUP3 ADD MLOAD DUP2 DUP5 ADD MSTORE PUSH1 0x20 DUP2 ADD SWAP1 POP PUSH2 0x234 JUMP JUMPDEST DUP4 DUP2 GT ISZERO PUSH2 0x25E JUMPI PUSH1 0x0 DUP5 DUP5 ADD MSTORE JUMPDEST POP POP POP POP JUMP JUMPDEST PUSH1 0x0 PUSH1 0x1F NOT PUSH1 0x1F DUP4 ADD AND SWAP1 POP SWAP2 SWAP1 POP JUMP JUMPDEST PUSH1 0x0 PUSH2 0x280 DUP3 PUSH2 0x215 JUMP JUMPDEST PUSH2 0x28A DUP2 DUP6 PUSH2 0x220 JUMP JUMPDEST SWAP4 POP PUSH2 0x29A DUP2 DUP6 PUSH1 0x20 DUP7 ADD PUSH2 0x231 JUMP JUMPDEST PUSH2 0x2A3 DUP2 PUSH2 0x264 JUMP JUMPDEST DUP5 ADD SWAP2 POP POP SWAP3 SWAP2 POP POP JUMP JUMPDEST PUSH1 0x0 PUSH1 0x20 DUP3 ADD SWAP1 POP DUP2 DUP2 SUB PUSH1 0x0 DUP4 ADD MSTORE PUSH2 0x2C8 DUP2 DUP5 PUSH2 0x275 JUMP JUMPDEST SWAP1 POP SWAP3 SWAP2 POP POP JUMP JUMPDEST PUSH1 0x0 PUSH1 0x40 MLOAD SWAP1 POP SWAP1 JUMP JUMPDEST PUSH1 0x0 DUP1 REVERT JUMPDEST PUSH1 0x0 DUP1 REVERT JUMPDEST PUSH1 0x0 DUP1 REVERT JUMPDEST PUSH1 0x0 DUP1 REVERT JUMPDEST PUSH32 0x4E487B7100000000000000000000000000000000000000000000000000000000 PUSH1 0x0 MSTORE PUSH1 0x41 PUSH1 0x4 MSTORE PUSH1 0x24 PUSH1 0x0 REVERT JUMPDEST PUSH2 0x326 DUP3 PUSH2 0x264 JUMP JUMPDEST DUP2 ADD DUP2 DUP2 LT PUSH8 0xFFFFFFFFFFFFFFFF DUP3 GT OR ISZERO PUSH2 0x345 JUMPI PUSH2 0x344 PUSH2 0x2EE JUMP JUMPDEST JUMPDEST DUP1 PUSH1 0x40 MSTORE POP POP POP JUMP JUMPDEST PUSH1 0x0 PUSH2 0x358 PUSH2 0x2D0 JUMP JUMPDEST SWAP1 POP PUSH2 0x364 DUP3 DUP3 PUSH2 0x31D JUMP JUMPDEST SWAP2 SWAP1 POP JUMP JUMPDEST PUSH1 0x0 PUSH8 0xFFFFFFFFFFFFFFFF DUP3 GT ISZERO PUSH2 0x384 JUMPI PUSH2 0x383 PUSH2 0x2EE JUMP JUMPDEST JUMPDEST PUSH2 0x38D DUP3 PUSH2 0x264 JUMP JUMPDEST SWAP1 POP PUSH1 0x20 DUP2 ADD SWAP1 POP SWAP2 SWAP1 POP JUMP JUMPDEST DUP3 DUP2 DUP4 CALLDATACOPY PUSH1 0x0 DUP4 DUP4 ADD MSTORE POP POP POP JUMP JUMPDEST PUSH1 0x0 PUSH2 0x3BC PUSH2 0x3B7 DUP5 PUSH2 0x369 JUMP JUMPDEST PUSH2 0x34E JUMP JUMPDEST SWAP1 POP DUP3 DUP2 MSTORE PUSH1 0x20 DUP2 ADD DUP5 DUP5 DUP5 ADD GT ISZERO PUSH2 0x3D8 JUMPI PUSH2 0x3D7 PUSH2 0x2E9 JUMP JUMPDEST JUMPDEST PUSH2 0x3E3 DUP5 DUP3 DUP6 PUSH2 0x39A JUMP JUMPDEST POP SWAP4 SWAP3 POP POP POP JUMP JUMPDEST PUSH1 0x0 DUP3 PUSH1 0x1F DUP4 ADD SLT PUSH2 0x400 JUMPI PUSH2 0x3FF PUSH2 0x2E4 JUMP JUMPDEST JUMPDEST DUP2 CALLDATALOAD PUSH2 0x410 DUP5 DUP3 PUSH1 0x20 DUP7 ADD PUSH2 0x3A9 JUMP JUMPDEST SWAP2 POP POP SWAP3 SWAP2 POP POP JUMP JUMPDEST PUSH1 0x0 PUSH1 0x20 DUP3 DUP5 SUB SLT ISZERO PUSH2 0x42F JUMPI PUSH2 0x42E PUSH2 0x2DA JUMP JUMPDEST JUMPDEST PUSH1 0x0 DUP3 ADD CALLDATALOAD PUSH8 0xFFFFFFFFFFFFFFFF DUP2 GT ISZERO PUSH2 0x44D JUMPI PUSH2 0x44C PUSH2 0x2DF JUMP JUMPDEST JUMPDEST PUSH2 0x459 DUP5 DUP3 DUP6 ADD PUSH2 0x3EB JUMP JUMPDEST SWAP2 POP POP SWAP3 SWAP2 POP POP JUMP JUMPDEST PUSH32 0x4E487B7100000000000000000000000000000000000000000000000000000000 PUSH1 0x0 MSTORE PUSH1 0x22 PUSH1 0x4 MSTORE PUSH1 0x24 PUSH1 0x0 REVERT JUMPDEST PUSH1 0x0 PUSH1 0x2 DUP3 DIV SWAP1 POP PUSH1 0x1 DUP3 AND DUP1 PUSH2 0x4A9 JUMPI PUSH1 0x7F DUP3 AND SWAP2 POP JUMPDEST PUSH1 0x20 DUP3 LT DUP2 EQ ISZERO PUSH2 0x4BD JUMPI PUSH2 0x4BC PUSH2 0x462 JUMP JUMPDEST JUMPDEST POP SWAP2 SWAP1 POP JUMP JUMPDEST PUSH1 0x0 DUP2 SWAP1 POP DUP2 PUSH1 0x0 MSTORE PUSH1 0x20 PUSH1 0x0 KECCAK256 SWAP1 POP SWAP2 SWAP1 POP JUMP JUMPDEST PUSH1 0x0 DUP2 SLOAD PUSH2 0x4E5 DUP2 PUSH2 0x491 JUMP JUMPDEST PUSH2 0x4EF DUP2 DUP7 PUSH2 0x220 JUMP JUMPDEST SWAP5 POP PUSH1 0x1 DUP3 AND PUSH1 0x0 DUP2 EQ PUSH2 0x50A JUMPI PUSH1 0x1 DUP2 EQ PUSH2 0x51C JUMPI PUSH2 0x54F JUMP JUMPDEST PUSH1 0xFF NOT DUP4 AND DUP7 MSTORE PUSH1 0x20 DUP7 ADD SWAP4 POP PUSH2 0x54F JUMP JUMPDEST PUSH2 0x525 DUP6 PUSH2 0x4C3 JUMP JUMPDEST PUSH1 0x0 JUMPDEST DUP4 DUP2 LT ISZERO PUSH2 0x547 JUMPI DUP2 SLOAD DUP2 DUP10 ADD MSTORE PUSH1 0x1 DUP3 ADD SWAP2 POP PUSH1 0x20 DUP2 ADD SWAP1 POP PUSH2 0x528 JUMP JUMPDEST DUP1 DUP9 ADD SWAP6 POP POP POP JUMPDEST POP POP POP SWAP3 SWAP2 POP POP JUMP JUMPDEST PUSH1 0x0 PUSH1 0x40 DUP3 ADD SWAP1 POP DUP2 DUP2 SUB PUSH1 0x0 DUP4 ADD MSTORE PUSH2 0x572 DUP2 DUP6 PUSH2 0x4D8 JUMP JUMPDEST SWAP1 POP DUP2 DUP2 SUB PUSH1 0x20 DUP4 ADD MSTORE PUSH2 0x586 DUP2 DUP5 PUSH2 0x275 JUMP JUMPDEST SWAP1 POP SWAP4 SWAP3 POP POP POP JUMP INVALID LOG2 PUSH5 0x6970667358 0x22 SLT KECCAK256 SWAP12 SWAP12 ISZERO 0xC3 LOG3 0xBC PUSH20 0x4809DE9E5195AD0046791EE0E281158E19BE6E14 RETURNDATASIZE PUSH16 0xA55EB164736F6C634300080C00330000 "
    },
    "gasEstimates": {
      "creation": {
        "codeDepositCost": "295400",
        "executionCost": "infinite",
        "totalCost": "infinite"
      },
      "external": {
        "getValue()": "infinite",
        "setValue(string)": "infinite"
      }
    },
    "methodIdentifiers": {
      "getValue()": "20965255",
      "setValue(string)": "93a09352"
    }
  },
  "storageLayout": {
    "storage": [
      {
        "astId": 11,
        "contract": "SimpleStorage.sol:SimpleStorage",
        "label": "_value",
        "offset": 0,
        "slot": "0",
        "type": "t_string_storage"
      }
    ],
    "types": {
      "t_string_storage": {
        "encoding": "bytes",
        "label": "string",
        "numberOfBytes": "32"
      }
    }
  },
  "userdoc": {
    "kind": "user",
    "methods": {},
    "version": 1
  }
}